:020000040800F2
:100000004005002001010008891700084B11000875
:1000100085170008450B00080728000800000000AD
:10002000000000000000000000000000291E000881
:10003000490B000800000000E51D00081120000821
:100040001B0100081B0100081B0100081B01000820
:100050001B0100081B0100081B0100083D0D0008E2
:10006000690D00081B0100081B0100081B010008A6
:100070001B0100081B0100081B0100081B010008F0
:100080001B0100081B0100081B0100081B010008E0
:100090001B0100081B0100081B0100081B010008D0
:1000A0001B0100081B0100081B0100081B010008C0
:1000B0001B0100081B0100081B0100081B010008B0
:1000C0001B0100081B0100081B0100081B010008A0
:1000D0001B010008C92600081B0100081B010008BD
:1000E000910B00081B0100081B010008DFF80CD071
:1000F00000F07AFC00480047414900084005002014
:100100000648804706480047FEE7FEE7FEE7FEE7B1
:10011000FEE7FEE7FEE7FEE7FEE7FEE71520000844
:10012000ED0000082DE9F0410024061B254671F181
:10013000000605DA01240027D0EB070067EB010178
:10014000161E73F1000605DA0027D2EB070201251F
:1001500067EB030300F032FB86460E4617469C46CB
:10016000AC4204D00025D0EB050E65EB010624B1AE
:100170000020D2EB000760EB030C704631463A4694
:100180006346BDE8F081D2B201E000F8012B491EC0
:10019000FBD270470022F6E710B513460A46044624
:1001A0001946FFF7F0FF204610BD30B50446002089
:1001B000034600E05B1C934203D2E05CCD5C401B35
:1001C000F8D030BDF0B480EA0102D40F4200B2EBA7
:1001D000410F02D20246084611464A0042D0C30DE2
:1001E000DDB2C1F3C752AD1A202D35DAC1F31601C5
:1001F00041F4000204B15242C5F1200602FA06F1B0
:100200002A411044B3EBD05F23D0C4B1012DA0EB41
:10021000C35009DCF0BC4FF0004202EAC352DBB22B
:1002200000F5000000F025BB400000F1807000EBFD
:10023000C350A0F1807040EAD170490009E049083C
:1002400041EAC071A0EBC35000F50000400800EB8C
:10025000C350F0BC00F004BB6142012202EB41013B
:10026000001BF6E7F0BC704781F00041AAE780F080
:100270000040A7E780EA010210B502F00043400009
:1002800022D04A001FD0010E01EB1261C0F35600CC
:10029000C2F3560240F4000042F40002A0FB022028
:1002A00000047F39140400D0401C50EA124001D4ED
:1002B0004000491EC2B20C0604EBD010401C40089E
:1002C000802A02D003E0002010BD20F001000029A8
:1002D00000DA0020184310BD30B480EA010202F0B9
:1002E000004530F0004221F0004013D090B1C30D22
:1002F000D40DC2F31601C0F31600E41A41F4000154
:1003000040F400027D34914201D3641C00E04900B6
:10031000002C02DA30BC002070474FF400000023AC
:10032000914201D3891A034340084FEA4101F7D1B2
:1003300051B1914202D14FF0004105E002D24FF09D
:10034000010101E06FF0010103EBC450284430BC0F
:1003500000F086BA2DE9FE4F804681EA0300C00F07
:100360000C46009021F0004123F00045B8EB02005C
:10037000A94105D24046214690461C460B460246FE
:1003800023F00040104347D0270DC7F30A00C3F302
:100390000A510290401A019040286BDAC3F313000F
:1003A00040F4801B0098924620B10023D2EB030A50
:1003B00063EB0B0B01985946C0F14002504600F028
:1003C0002EFA06460D4650465946019A00F036FA76
:1003D00010EB08006141002487EA115284EAE773B8
:1003E0001A4340D0009A62B3019A012A4FEA075299
:1003F00015DC001B61EB02014FF0004202EA0752DC
:10040000CDE90042001C41F5801132462B4600F038
:100410006DFA03B0BDE8F08F40462146F9E7001BB6
:1004200061EB0201001C41F5801300185B412018AC
:10043000A2F5001747EB030140EAD570B6196D41EC
:1004400011E06D084FEA360645EAC0754FEA0752DB
:10045000001B61EB0201001C41F5801149084FEAC5
:1004600030000019514132462B4603B0BDE8F04F31
:1004700000F02DBA0098012240000023D0EB0202C8
:1004800063EBE073009821464FEAE074B8EB00009C
:1004900061EB0401E9E783F000435BE781F0004191
:1004A00058E72DE9FE4F81EA030404F0004421F0EF
:1004B000004100944FF0000B23F0004350EA010488
:1004C0005ED052EA03045BD0C3F30A54C1F30A5569
:1004D0002C44A4F2F3340194A0FB0254C1F31301A1
:1004E00041F48011C3F3130343F4801301FB02446E
:1004F00000FB034E840A970A44EA815447EA835773
:10050000A4FB076802958D0A05FB07854FEA932C2B
:1005100004FB0C542705029D4FEA065847EA16379C
:10052000B5EB08056EEB070C870E920E47EA8117B4
:1005300042EA8312A7FB0201B6EB0B0164EB000455
:100540002B0D43EA0C335E1844EB1C50DA4651463F
:10055000E7FB0201C5F313044FEA0B3343EA1453DC
:100560004FEA0432019C43EA0603A4F10C0402940E
:10057000009CCDE900B400F0B9F903B0BDE8F08FFC
:1005800000200146F9E72DE9F04D81EA030404F06B
:10059000004B21F0004514464FF0000A23F00041C3
:1005A00050EA050220D054EA01021DD0C5F30A57D3
:1005B0000246C5F31303C1F31300C1F30A5640F416
:1005C000801543F48013A7EB0608101BD64608F2EB
:1005D000FD3873EB050002D308F1010801E0921821
:1005E0005B41B8F1000F03DA00200146BDE8F08D51
:1005F00000204FF48011064684460EE0171B73EB73
:10060000050705D3121B63EB050306434CEA010CF7
:1006100049084FEA300092185B4150EA0107EDD1DA
:1006200052EA030012D082EA040083EA050108437B
:1006300005D0101BAB4106D20122002306E00022A8
:100640004FF0004302E06FF0010253101AEB060076
:100650004CEB085110EB0A0041EB0B01BDE8F04DEB
:1006600000F035B9C10F80EAE0700844CA0796234C
:10067000002100F0FEB896230022114600F0F9B8E0
:1006800000F0004220F00040C10DC0F3160040F41D
:1006900000007F2901DA00207047962903DCC1F1B0
:1006A0009601C84001E096398840002AF4D04042C3
:1006B000704720F00040C10DC0F3160040F4000068
:1006C0007F2901DA00207047962903DCC1F19601E9
:1006D000C840704796398840704700F0004230F0BB
:1006E00000400AD0C10D01F56071C0F3160042EA66
:1006F0000151C2084007114370470020014670476E
:1007000030B5041E71F1000404DB4FF00044404298
:1007100064EB0101141E73F1000405DB1C464FF06D
:100720000043524263EB0403994208BF904230BD3C
:1007300001F0004330B421F0004150EA010206D03C
:100740000A0DA2F56072C1F31301002A02DC30BC6D
:1007500000207047440F44EAC104C100E01830BCD7
:1007600000EBC25000F07CB8002801DBC0F1004073
:10077000002901DBC1F1004181427047002801DB03
:10078000C0F10040002901DBC1F1004188427047FF
:1007900030B50B46014600202022012409E021FA51
:1007A00002F59D4205D303FA02F5491B04FA02F54E
:1007B0002844151EA2F10102F1DC30BD2DE9F05FE5
:1007C0000546002092469B468846064681464024C0
:1007D0001BE0284641464746224600F017F953469B
:1007E0005A46C01A914110D311461846224600F0CD
:1007F00016F82D1A67EB01084F462246012000210A
:1008000000F00DF817EB00094E41201EA4F1010481
:10081000DFDC484631462A464346BDE8F09F202AA1
:1008200004DB203A00FA02F1002070479140C2F147
:10083000200320FA03F3194390407047202A06DB77
:10084000CB17203A41FA02F043EAE07306E041FA9E
:1008500002F3D040C2F1200291400843194670478C
:100860000029A8BF7047401C490008BF20F00100C4
:10087000704710B4B0FA80FC00FA0CF050EA0104A2
:1008800004BF10BC704749B1CCF1200421FA04F434
:1008900011FA0CF118BF012121430843A3EB0C010D
:1008A000CB1D4FEA00614FEA102042BF002010BC70
:1008B000704700EBC35010440029A4BF10BC704720
:1008C000401C490008BF20F0010010BC704710B563
:1008D000141E73F1000408DA401C41F10001921863
:1008E0005B411A4301D120F0010010BD2DE9F04D0C
:1008F00092469B4611B1B1FA81F202E0B0FA80F261
:1009000020329046FFF78BFF04460F4640EA0A006C
:1009100041EA0B0153465A46084313D0114653EAA5
:10092000010019D0C8F14002504600F06FF80546AA
:100930000E46504659464246FFF771FF084305D020
:10094000012004E020463946BDE8F08D0020054333
:1009500046EAE0762C4337430A986305E40AA0EBA5
:1009600008000022FD0A44EA47540A3002D500205C
:100970000146E9E7010510196941DDE9084500195B
:100980006941BDE8F04DA2E770B521F00043034393
:100990000CD0C1F30A550024D5EB040564EB040325
:1009A000D617AD1AB34102DB0020014670BD2018F6
:1009B00041EB025170BDC1F30A52C1F3130140F281
:1009C000FF3341F480119A4202DA00200146704759
:1009D00040F233439A42A2F2334202DC524200F028
:1009E00015B8FFF71CBF0000064C074D06E0E06895
:1009F00040F0010394E8070098471034AC42F6D366
:100A0000FFF778FBA8710008C8710008202A04DBF2
:100A1000203A21FA02F00021704721FA02F3D04077
:100A2000C2F1200291400843194670472DE9F04D6C
:100A300000231A461B1A8A4103DB00200146BDE849
:100A4000F08DC1F30A52C1F3130141F480154FF048
:100A5000000BD10702D100186D41521E0027044639
:100A600040F2FF11384601EB620A3E4680460246DC
:100A700000204FF48011FFF7C9FFC2197141BB1864
:100A800046EB0100B4EB030C75EB000C04D3E41A45
:100A900065EB000517460E46241908F101006D416B
:100AA00080463428E3DDF91946EB0600091BA8410E
:100AB00003D24FF0FF32134601E0002213461BEB36
:100AC000070046EB0A51BDE8F04DFFF700BF0000FC
:100AD0002DE9F0410446D4E90710FFF7C5FB16499C
:100AE00008601648B0F90000FFF7BCFD0746A16892
:100AF000FFF7C0FB0546104920680968FFF7BAFBFD
:100B000006462946FFF7B0FBA0610021A069FFF768
:100B100035FE04D80A49A069FFF754FBA061002103
:100B2000A069FFF721FE04D20549A069FFF79CFBED
:100B3000A061BDE8F0810000740000203C000020AE
:100B400000007A4500BFFEE7704700B5034603E0AA
:100B50004FF47A7000F005F8181EA3F10103F7D1E5
:100B600000BD00EBC001C9004FF0E022516100213F
:100B700091610521116100BF4FF0E021096901F485
:100B800080310029F8D004214FF0E0221161704734
:100B90002DE9F0414FF4805000F002F901287BD19B
:100BA000000300F0F7F8534A5349544803F098FF04
:100BB0005148006852490862524A5349534800F06C
:100BC0003DFB534801F038FD0446FFF74BFD51490A
:100BD0000860514801F030FD0446FFF743FD4F49DE
:100BE0000860084602684B480168454801F0A2F9D0
:100BF0004349486BFFF771FD0646494A494BFFF7E9
:100C00004AFC0446FFF794FD3D49C8610846FFF7DA
:100C10005FFF3B4880693A490864086C4249FFF726
:100C2000ADFD03D240483649086408E03449086CF9
:100C30003E49FFF799FD02D23C48314908642E48ED
:100C40000068FFF74AFD0646354A364BFFF723FC9E
:100C500004460022364BFFF753FD14D326480068A4
:100C6000FFF73BFD06462E4A2E4BFFF717FC0446C6
:100C700000222F4BFFF744FD05D300211E480068DA
:100C8000FFF772FD09D1002001F098F8002001F073
:100C90009FF800202749086029E000F011FA264853
:100CA0000068FFF7EDFC074601F0D4FC0646144847
:100CB000016C3046FFF7DBFA0546FFF7FAFC84B219
:100CC000204601F07BF81C480068FFF7D9FC074676
:100CD00001F0C0FC06460A48016C3046FFF772FA84
:100CE0000546FFF7E6FC84B2204601F071F8BDE846
:100CF000F08100004C00002048000020440000204B
:100D0000FC000020400000203E0000203C000020AD
:100D1000002C01405000002000040040540000203E
:100D2000CDCCCCCCCCCC004000C0DA4500C0DAC57C
:100D300000804140700000206400002010B50220B7
:100D400000F03AF801280AD10221054800F0ABF979
:100D500010B9012003490870022000F01BF810BDF3
:100D6000000801400000002010B5042000F024F825
:100D700001280AD10421054800F095F910B9022094
:100D800003490870042000F005F810BD0008014078
:100D90000000002001490860704700001404014071
:100DA00001460020034A12680A400AB1012000E00F
:100DB0000020704714040140014600200022074B28
:100DC0001B6803EA0102054B14331B680B4013B187
:100DD0000AB1012000E0002070470000000401403B
:100DE000002123498279002A3AD00A461268036812
:100DF0009A430B461A600A1D126803689A430B1D3A
:100E00001A60027911440A6803681A430A60184A92
:100E10000832126803689A43154B08331A601A1D8A
:100E2000126803689A43124B0C331A604279102AF5
:100E30000ED11A1F126803681A430D4B08331A604B
:100E40001A1D126803681A43094B0C331A600DE02F
:100E50000749427911440A6803681A430A6005E0A9
:100E6000027911440A6803689A430A6070470000D7
:100E70000004014000B587B00121C80200F0C4FFA2
:100E80000121022000F0B0FF0121042000F0BCFF8E
:100E900048208DF81B004FF47070ADF81800032047
:100EA0008DF81A0006A9274800F072F80020ADF866
:100EB0001200ADF80E004FF6FF70ADF810000020E4
:100EC000ADF80C008DF8140003A91F4801F062FB77
:100ED00003A91E4801F05EFB684601F071FA00208C
:100EE000ADF800000F20ADF808006946164801F083
:100EF00011FA6946154801F00DFA0420ADF800001A
:100F00000F20ADF8080069460F4801F003FA694662
:100F10000E4801F0FFF900231A4603210A4801F0A8
:100F2000D5F900231A460321084801F0CFF9012121
:100F3000054801F0BFF90121044801F0BBF907B0F1
:100F400000BD000000080140002C014000040040EA
:100F500030B500228B071C0F0F2303FA04F20B4B52
:100F60008C1053F824309343084C8D1044F82530EE
:100F700023468C1053F824308C07240F00FA04F415
:100F80002343024C8D1044F8253030BD0800014049
:100F90002DE9F04102460025002600200023002410
:100FA000002791F803C00CF00F0591F803C00CF076
:100FB000100CBCF1000F03D091F802C04CEA0505FB
:100FC00091F800C0BCF1000F31D0146800202BE074
:100FD0004FF0010C0CFA00F3B1F800C00CEA030664
:100FE0009E4220D183004FF00F0C0CFA03F7BC4354
:100FF00005FA03FC4CEA040491F803C0BCF1280F85
:1010000006D14FF0010C0CFA00FCC2F814C00AE043
:1010100091F803C0BCF1480F05D14FF0010C0CFA58
:1010200000FCC2F810C0401C0828D1D31460B1F8ED
:1010300000C0BCF1FF0F34DD546800202EE000F149
:10104000080C4FF0010808FA0CF3B1F800C00CEAE4
:1010500003069E4221D183004FF00F0C0CFA03F7D8
:10106000BC4305FA03FC4CEA040491F803C0BCF14C
:10107000280F05D100F1080C08FA0CF8C2F814800A
:1010800091F803C0BCF1480F07D100F1080C4FF0F4
:10109000010808FA0CF8C2F81080401C0828CED3CA
:1010A0005460BDE8F0810246002093680B400BB10C
:1010B000012000E0002070474161704701617047E6
:1010C00010B51D49086C0021FFF758FB16D200220D
:1010D0004FF48051194800F033F8012251031748AA
:1010E00000F02EF800224FF48041144800F028F858
:1010F0000122D103114800F023F81BE00E49086CCF
:101100000021FFF731FB15D2012211030B4800F03B
:1011100017F800224FF40051084800F011F801229E
:101120009103064800F00CF800224FF400410348F8
:1011300000F006F810BD0000FC000020000C01408B
:101140000AB1016100E04161704700BFFEE70000A5
:1011500008B50121082000F057FE10208DF803008B
:101160004FF47040ADF8000003208DF8020069468E
:101170000648FFF70DFF4FF420410448FFF79EFF9C
:101180004FF4A0410148FFF797FF08BD000C014054
:1011900010B500F0D3FB00F0A7FDFFF76BFE06488B
:1011A00000F075FDFFF7D4FF00F0C0F903F0AAFDD1
:1011B00000F004F810BD0000FC0000201FB5012164
:1011C000042000F021FE0121084600F01DFE4FF42E
:1011D0008050ADF8000048208DF8030003208DF802
:1011E000020069461448FFF7D3FE0C210020FFF7E8
:1011F000AFFE4FF48050029000208DF80C000C20C0
:101200008DF80D0001208DF80E0002A8FFF7E8FD13
:101210004FF4A06000F0F2FA28208DF804000020BE
:101220008DF805008DF8060001208DF8070001A853
:1012300000F0ACFA1FBD0000000801402DE9FC41A0
:1012400004460D4616466B4606224321682000F0F0
:10125000C3F90746BFB99DF801009DF8001040EAA8
:10126000012000B220809DF803009DF8021040EAA2
:10127000012000B228809DF805009DF8041040EA86
:10128000012000B230803846BDE8FC8110B5002056
:101290000E4908600E48006820F470400C49086050
:1012A0000846006840F44050086000200949C1F831
:1012B000AC0100F011F801200449086000F00CF8BE
:1012C00000200449C1F8A80110BD0000A8812142F6
:1012D000040C01400080214210B50220FFF741FCC0
:1012E00010BD000008B50121084600F08DFD012168
:1012F000082000F089FD4FF44060ADF80000102098
:101300008DF8030003208DF8020069460448FFF7BA
:101310003FFE4FF440610248FFF7D0FE08BD0000D9
:10132000000C014010B500200E4908600E4800680E
:1013300020F470400C4908600846006840F44050B2
:10134000086001200949C1F8AC01FFF7C5FF012081
:1013500004490860FFF7C0FF00200449C1F8A80154
:1013600010BD0000A8812142040C014000802142F0
:1013700070B5054600241648006820F470401449F2
:1013800008600846006840F400400860002614E049
:10139000002010490860FFF79FFF01200E49C1F8A7
:1013A000A8016006040E0B487C38006808B1601C78
:1013B000C4B2FFF791FF701CC6B2082EE8DB15B966
:1013C000FFF7B0FF01E0FFF761FF204670BD0000AE
:1013D000040C0140A88121420080214270B50446DE
:1013E0001248006820F47040104908600846006800
:1013F00040F44050086000200D490860002512E0CC
:10140000E0090B49091D08606006040E0120094926
:10141000C1F8A801FFF760FF002005490860FFF749
:101420005BFF681CC5B2082DEADB70BD040C0140EF
:10143000A88121420080214210B50E48006820F4A6
:1014400070400C4908600846006840F4405008604D
:101450000120094908600949C1F8A801FFF73CFFCC
:10146000002005490860FFF737FF00200349C1F855
:10147000A80110BD040C0140AC8121420080214232
:1014800010B50E48006820F470400C49086008460A
:10149000006840F44050086000200949086009498C
:1014A000C1F8AC01FFF718FF0120054908600549A4
:1014B000C1F8AC01FFF710FF10BD0000040C0140A3
:1014C000A88121420080214210B500241448006800
:1014D00020F47040124908600846006840F400405B
:1014E000086001200F490860FFF7F6FE01200E4951
:1014F000C1F8A801FFF7F0FE07E0601CC4B2FA2CA7
:1015000003DDFFF7BDFF012010BD064880380068ED
:101510000028F2D10349091F086000BFF4E700006A
:10152000040C0140AC8121420080214210B5FFF73C
:10153000D9FE80216B2000F0D3F86420FFF705FB73
:1015400000216B2000F0CCF8032000F087F8002089
:1015500000F07CF8642000F0A6F80021382000F0AC
:10156000BFF800216A2000F0BBF80021232000F022
:10157000B7F8752000F013F80446682C0BD1012150
:101580006B2000F0ADF800216C2000F0A9F83220AB
:1015900000F089F801E0012010BD0020FCE770B5E3
:1015A0000446FFF749FFD020FFF718FFFFF78CFF35
:1015B0002046FFF713FFFFF787FFFFF73DFFD1201E
:1015C000FFF70CFFFFF780FF0020FFF7D1FE054675
:1015D000FFF756FF284670BD2DE9F04106460F463D
:1015E00014461D46FFF728FF002141EA4601C8B214
:1015F000FFF7F4FEFFF768FF20B1FFF741FF01207E
:10160000BDE8F0813846FFF7E9FEFFF75DFFFFF721
:1016100013FF012101EB4601C8B2FFF7DFFEFFF720
:1016200053FF0DE0012C04D10020FFF7A1FE28702C
:1016300003E00120FFF79CFE2870601EC4B26D1C01
:10164000002CEFD1FFF71CFF0020D9E710B50446AE
:10165000E006010E1C2000F043F810BD10B5044652
:10166000E006010E1B2000F03BF810BD70B50446EB
:101670000025BC2C01DB012510E0622C01DB0225DA
:101680000CE02A2C01DB032508E0142C01DB0425E7
:1016900004E00A2C01DB052500E0062529461A2076
:1016A00000F01EF870BD70B50446B4F57A7F01DD18
:1016B0004FF47A74042C00DA04244FF47A7090FB0F
:1016C000F4F0401EC5B22946192000F009F805467D
:1016D000264604EBD671C1F34F00FFF7C7FF70BD7C
:1016E00070B505460C46FFF7A7FED020FFF776FE43
:1016F000FFF7EAFE18B1FFF7C3FE012070BD2846D0
:10170000FFF76CFEFFF7E0FE2046FFF767FEFFF7EE
:10171000DBFE18B1FFF7B4FE0120EFE7FFF7B0FEE4
:101720000020EBE72DE9F04105460E4617469846A6
:10173000FFF782FE002141EA4501C8B2FFF74EFEE5
:10174000FFF7C2FE20B1FFF79BFE0120BDE8F0814C
:101750003046FFF743FEFFF7B7FE00240CE018F811
:101760000400FFF73BFEFFF7AFFE18B1FFF788FE5E
:101770000120EBE7601CC4B2BC42F0DBFFF780FE47
:101780000020E3E700BFFEE77047000070B50021CE
:1017900000230F22C47804B3154C246804F4E064D9
:1017A000C4F5E064210AC1F10403CA40447804FA94
:1017B00003F184781440214309010E4C0678A155A9
:1017C000047804F01F050124AC4005786D11AD00CC
:1017D00005F1E025C5F8004109E0047804F01F0593
:1017E0000124AC40044D0678761145F8264070BDC2
:1017F0000CED00E000E400E080E100E0024901437C
:10180000024A1160704700000000FA050CED00E08C
:1018100070B500240EE00021204600F0F0F800250D
:1018200004E0002000F023FA681CC5B2802DF8DB2C
:10183000601CC4B2082CEEDB70BD000008B50121AD
:10184000082000F0E1FA14208DF8030003208DF841
:1018500002004FF48070ADF8000069460A48FFF7B7
:1018600097FB4FF40070ADF8000069460648FFF79B
:101870008FFB012211020448FFF762FC0122510292
:101880000148FFF75DFC08BD000C014070B505463E
:10189000002415E08020204100EA05024FF4007189
:1018A0000E48FFF74DFC012211020C48FFF748FCDF
:1018B00000224FF480710948FFF742FC601CC4B25B
:1018C000082CE7DB012211020448FFF739FC002253
:1018D0004FF480710148FFF733FC70BD000C0140EC
:1018E00010B5012251020A48FFF72AFC0122110219
:1018F0000748FFF725FC00224FF400710448FFF76A
:101900001FFC00224FF480710148FFF719FC10BD45
:10191000000C014010B500224FF400710648FFF79B
:101920000FFC012211020448FFF70AFC01225102B8
:101930000148FFF705FC10BD000C014070B5002404
:1019400006E0002500E06D1CB5F57A7FFBD3641C32
:10195000B4F57A7FF5D3FFF771FFAE2000F077F989
:10196000D52000F074F9802000F071F9A82000F073
:101970006EF93F2000F06BF9D32000F068F90020E9
:1019800000F065F9402000F062F9A12000F05FF955
:10199000C82000F05CF9DA2000F059F9122000F0BC
:1019A00056F9812000F053F9CF2000F050F9D920EA
:1019B00000F04DF9F12000F04AF9DB2000F047F982
:1019C000302000F044F9A42000F041F9A62000F0F6
:1019D0003EF98D2000F03BF9142000F038F9AF20DB
:1019E00000F035F9FFF714FF70BD10B50246012075
:1019F00000E050430B1EA1F10101FAD110BD70B5FA
:101A000005460C4645F0B00000F021F9102141EAEE
:101A1000141000F01CF904F00F0000F018F970BD6C
:101A20002DE9F04105460E461746721ED206110EEC
:101A30006A1E5206100EFFF7E2FF002409E0A7F12C
:101A40002001134A02EB0111085D00F010F9601C3F
:101A5000C4B2082CF3DB721ED206110E6A1E0123DB
:101A600003EB4202D0B2FFF7CAFF00240BE0A7F15C
:101A70002001074A02EB011204F10801505C00F05A
:101A8000F6F8601CC4B2082CF1DBBDE8F081000060
:101A9000305E00082DE9FF4F83B00C4615461E4608
:101AA000DDF840902846FEF7EBFD07463846FEF786
:101AB000D9FD83462946FEF7DAFB804600212846F9
:101AC000FEF75CFE0CD82B2221460398FFF7A8FFF7
:101AD000601CC1B233463A46039800F036F80CE079
:101AE0007F422D2221460398FFF79AFF601CC1B266
:101AF00033463A46039800F028F800214046FEF7A6
:101B000033FE01D288F0004849460A20FFF76DFFF6
:101B10000190FEF7B0FD41460290FEF7ABFB834615
:101B2000FEF7AEFD8246A019401CC1B22E220398DA
:101B3000FFF776FFA019801CC1B24B4652460398AE
:101B400000F003F807B0BDE8F08F2DE9F0478046BC
:101B50000E4617461D46002415E0281B411E0A208C
:101B6000FFF743FFB7FBF0F00A21B0FBF1F201FBF6
:101B7000120000F130093019C1B24A464046FFF761
:101B80004FFF601CC4B2AC42E7DBBDE8F087000049
:101B900008B502200346009007480721026801208B
:101BA000FFF778FF05230548B0F900200721022040
:101BB00000F006F808BD0000480000203C000020AE
:101BC0002DE9F0478146884615461E46002D06DB66
:101BD0002B2241464846FFF723FF2F4605E02D22E2
:101BE00041464846FFF71CFF6F42002417E0301BB8
:101BF000411E0A20FFF7F9FEB7FBF0F00A21B0FB07
:101C0000F1F201FB120000F1300A08EB0400401C65
:101C1000C1B252464846FFF703FF601CC4B2B4424B
:101C2000E5DBBDE8F0872DE9F04107460E46154695
:101C3000002407E02A5D3019C1B23846FFF7F0FEF4
:101C4000601CC4B2285D0028F4D1BDE8F08110B555
:101C50000446FFF745FE7820FFF718FE0020FFF747
:101C600015FE2046FFF712FEFFF754FE10BD10B51B
:101C70000446FFF735FE7820FFF708FE4020FFF707
:101C800005FE2046FFF702FEFFF744FE10BD0021CF
:101C900001608160C16041618161C1610162416235
:101CA0008162C162016341638163C1630164704702
:101CB00010B50446074820600748A06007486062E6
:101CC0000749606AFEF708FBA06206480068A06347
:101CD00010BD000000004CC33333B33FE17A543FE2
:101CE00000005C436000002000B589B001210420A1
:101CF00000F07AF80121082000F086F818208DF80D
:101D000023004020ADF8200003208DF8220008A910
:101D10002848FFF73DF918208DF823008020ADF802
:101D2000200003208DF8220008A92248FFF730F98F
:101D3000214800F04EFB0020ADF81A00ADF8160067
:101D400041F61F40ADF818006420ADF814000020E3
:101D50008DF81C0005A9184800F01CFC01A800F033
:101D6000DDFB6020ADF804000020ADF80C00012080
:101D7000ADF806000020ADF80A0001A90E4800F0F9
:101D80002FFB01A800F0CAFB6020ADF80400002082
:101D9000ADF80C000120ADF806000020ADF80A00F7
:101DA00001A9054800F068FB0121034800F082FA10
:101DB00009B000BD000C01400008004010B5044609
:101DC0002146024800F0B4FB10BD000000080040AE
:101DD00010B504462146024800F0ACFB10BD0000DF
:101DE000000800407047000029B1064AD26902434A
:101DF000044BDA6104E0034AD2698243014BDA61A1
:101E0000704700000010024029B1064A926902435F
:101E1000044B9A6104E0034A92698243014B9A6140
:101E200070470000001002407047000010B50446E3
:101E30002146054800F0E3FC00BF8021024800F085
:101E4000A2FC0028F9D010BD0038014010B500F008
:101E500001F810BD0CB500200190009033480068D7
:101E600040F480303149086000BF3048006800F419
:101E7000003000900198401C0190009818B901981A
:101E8000B0F5A06FF1D12948006800F4003010B11E
:101E90000120009001E0002000900098012843D12B
:101EA0002348006840F01000214908600846006897
:101EB00020F0030008600846006840F00200086057
:101EC0001A48406819494860084640684860084612
:101ED000406840F4806048600846406820F47C1008
:101EE00048600846406840F4E810486008460068CA
:101EF00040F08070086000BF0C48006800F000707F
:101F00000028F9D00948406820F0030007494860DC
:101F10000846406840F00200486000BF034840683F
:101F200000F00C000828F9D10CBD000000100240A0
:101F3000002002402DE9FF4704460D461646314673
:101F40002846FEF73FF90746A16BFEF78DF9E063DF
:101F500028480068FEF7C1FB07464FF06632264B63
:101F6000FEF79FFA81468A46E06BFEF7B6FB07460E
:101F70004FF03332214BFEF794FA4A465346CDE9EF
:101F80000001FEF7E7F9CDE90201FEF7D1FB1C499C
:101F90000860084600681749086019480168194830
:101FA0000068FEF70FF917490860174915480068DF
:101FB000FEF7E4FB02D214481249086013491148A5
:101FC0000068FEF7D1FB02D210480E4908600D48A8
:101FD000A16A0068FEF74EF907460948616A006881
:101FE000FEF748F980463946FEF7ECF86063BDE835
:101FF000FF8700007C0000206666E63F3333D33F56
:1020000078000020700000200000FA450000FAC5AA
:102010007047000010B51348006840F001001149F6
:10202000086008464068104908400E494860084664
:1020300000680E4908400B4908600846006820F413
:10204000802008600846406820F4FE0048604FF495
:102050001F008860FFF7FAFE4FF000600449086037
:1020600010BD0000001002400000FFF8FFFFF6FE68
:1020700008ED00E0F0B50C46154600220021068C64
:102080004FF6FE773E400684028B018C4FF60C76AD
:1020900032407E1C06EA03162E433243104EB042F5
:1020A0000ED0104EB0420BD0B0F1804F08D00E4E83
:1020B000B04205D00D4EB04202D00D4EB04206D116
:1020C0004FF6FD76314044F00106314305E04FF60E
:1020D000F576314044F00106314302830184F0BDBE
:1020E000002C014000340140000400400008004082
:1020F000000C0040F0B50C461546002200210026D9
:10210000078C4FF6EF7C07EA0C070784028B018CE3
:102110004FF6FF7707EA041640F6FF473A404FF6BE
:10212000FF7707EA03373A434FF6FF7707EA0527B9
:102130003A43114FB8420ED0104FB8420BD0B0F115
:10214000804F08D00E4FB84205D00E4FB84202D093
:102150000D4FB84206D14FF6DF77394046F01007F1
:10216000394305E04FF65F77394044F010073943B3
:1021700002830184F0BD0000002C014000340140C6
:102180000004004000080040000C0040F0B50C4680
:102190001546002200210026078C4FF6FF6C07EA47
:1021A0000C070784828B018C4FF6FF7707EA042621
:1021B0004FF60C773A404FF6FF7707EA03172F43A5
:1021C0003A43114FB8420ED0104FB8420BD0B0F185
:1021D000804F08D00E4FB84205D00E4FB84202D003
:1021E0000D4FB84206D14FF6FF57394046F480777D
:1021F000394305E04FF2FF57394044F480773943C3
:1022000082830184F0BD0000002C014000340140B5
:102210000004004000080040000C0040F0B50C46EF
:102220001546002200210026078C4EF6FF7C07EAA7
:102230000C070784828B018C4FF6FF7707EA043680
:1022400040F6FF473A404FF6FF7707EA05273A4343
:102250004FF6FF7707EA03373A43114FB8420ED0E3
:10226000104FB8420BD0B0F1804F08D00E4FB8429B
:1022700005D00E4FB84202D00D4FB84206D14DF6F0
:10228000FF77394046F48057394305E047F6FF575A
:10229000394044F48057394382830184F0BD000003
:1022A000002C0140003401400004004000080040C0
:1022B000000C004021B1028842F00102028004E0DB
:1022C00002884FF6FE731A4002807047F0B50C4644
:1022D00015461E460021002200230189028B038C33
:1022E0004FF6F877394021434FF6FC473A4040F229
:1022F00001173A434FF6DD773B404FF6FF7707EA89
:1023000006172F433B43018102830384F0BD01463E
:10231000888C704770B505460C46244885420ED01F
:10232000234885420BD0B5F1804F08D02148854223
:1023300005D02148854202D02048854200D100E0E6
:1023400000BF208850B92389A28861882846FFF7FA
:1023500091FEE188284600F0F1F825E02088042865
:102360000AD12389A28861882846FFF7C3FEE18845
:10237000284600F0ECF817E0208808280AD12389C5
:10238000A28861882846FFF701FFE188284600F00F
:10239000EBF809E02389A28861882846FFF73EFF11
:1023A000E188284600F0E9F870BD0000002C0140EB
:1023B000003401400004004000080040000C0040D0
:1023C000002101804180012181800021C1800181A3
:1023D000704701894FF6F872114001817047000083
:1023E00070B5002400220023058C4FF6FE763540A0
:1023F0000584028C8388048B4FF68F752C40B51EA4
:102400002C400D882C43751E2A400D892A434D8887
:102410002A43144DA8420BD0134DA84208D0134DA7
:10242000A84205D0124DA84202D0124DA84213D1A5
:102430004FF6F7752A404D892A434FF6FB752A401F
:102440008D882A434FF6FF652B404FF6FF552B40F2
:102450008D892B43CD892B4383800483CD8885864A
:10246000028470BD002C0140003401400040014056
:10247000004401400048014070B5002400220023C0
:10248000058C4FF6EF7635400584028C8388048BEB
:1024900048F6FF752C404FF6FF452C400D884FF64F
:1024A000FF7606EA05252C434FF6DF752A400D8995
:1024B00006EA05152A434D8806EA05152A43154DF7
:1024C000A84202D0144DA8421DD14FF67F752A4074
:1024D0004D894FF6FF7606EA05152A434FF6BF757C
:1024E0002A408D8806EA05152A434FF6FF352B4012
:1024F0004FF2FF752B408D8906EA85052B43CD8968
:1025000006EA85052B4383800483CD8805870284F2
:1025100070BD0000002C014000340140002101800A
:1025200041808180C180018141818181C181704769
:10253000818670470187704781847047028B4FF610
:10254000F3731A400283028B0A4302837047028BA3
:102550004FF2FF331A400283028B4FF6FF7303EAF8
:1025600001231A4302837047828B4FF6F3731A409C
:102570008283828B0A4382837047828B4FF2FF33C0
:102580001A408283828B4FF6FF7303EA01231A43BA
:1025900082837047002202881D4B98420ED01D4B4B
:1025A00098420BD0B0F1804F08D01B4B984205D019
:1025B0001A4B984202D01A4B984204D14FF68F73AF
:1025C0001A404B881A43174B984207D0164B984233
:1025D00004D04FF6FF431A40CB881A4302808B8801
:1025E00083850B8803850A4B98420BD0094B984290
:1025F00008D00E4B984205D00D4B984202D00D4B9F
:10260000984201D10B7A0386012383827047000030
:10261000002C01400034014000040040000800404C
:10262000000C004000100040001400400040014039
:10263000004401400048014070B504460025204692
:10264000FFF765FE05B200212046FFF775FF28461B
:1026500070BD00002DE9F04104462046FEF702F867
:102660008046144801684046FDF704FE06461248BD
:10267000B0F90000FDF7F6FF8046104801684046BB
:10268000FDF7F8FD07463146FDF79CFD05460C4970
:102690002846FEF773F801D2094807E009492846A1
:1026A000FEF762F801D2074800E0284605462846B2
:1026B000BDE8F08168000020400000206C00002090
:1026C0000000A0410000A0C110B540F225512148F2
:1026D00000F066F801283CD11E4800F08BF8C4B227
:1026E0001D48007858B9402C2DD11C48007850BBAB
:1026F00001201949087000201949087023E0164884
:10270000007801280FD10D2C03D102201249087046
:1027100019E0144812490978445411480078401CC3
:102720000F4908700FE00C48007802280BD10A2CE2
:1027300009D10020084908700A49094A12788854CA
:1027400001200649087040F22551024800F00CF8BB
:1027500000BF10BD003801405E0000205C0000207A
:102760005F0000209800002010B50022002340F6F2
:102770006A14A14200D100BF0A1201249440A3B2FE
:10278000DC43048010BD02460020B1F5007F00D17B
:1027900000BF13880B400BB1012000E00020704700
:1027A00070B50246002400230025002040F66A167A
:1027B000B14200D100BFC1F3421501F01F03012651
:1027C00006FA03F3012D02D19689334006E0022D6B
:1027D00002D1168A334001E0968A33400C1201265A
:1027E00006FA04F41688344013B10CB1012000E05D
:1027F000002070BD01468888C0F308007047C1F30F
:1028000008028280704700BFFEE700000FB4054B4E
:1028100010B503A9044A029800F05CF910BC5DF8F9
:1028200014FB00007D42000880000020490050EAAF
:10283000C12018BF04204A0D18BF40F0010040F22B
:10284000FF72B2EB515F08BF40F00200012808BFE1
:10285000052070472DE9F0414F1E00EBC7010446EB
:10286000D1E9000115461E4637F006020DD02A4672
:102870003346FDF716FE7F1E04EBC703D3E90023A2
:10288000FDF768FD37F00602F1D1022F25D0042FA5
:1028900013D0062F18BFBDE8F0812A463346FDF756
:1028A00000FED4E90A23FDF755FD2A463346FDF71D
:1028B000F8FDD4E90823FDF74DFD2A463346FDF720
:1028C000F0FDD4E90623FDF745FD2A463346FDF722
:1028D000E8FDD4E90423FDF73DFD2A463346FDF724
:1028E000E0FDD4E90223FDF735FD2A463346FDF726
:1028F000D8FDD4E90023BDE8F041FDF72BBD01224E
:10290000FEF742B8FDF726BD0022134610461146D9
:10291000FDF739BE024A00201107FEF735B8000066
:1029200001FDFFFF02E008C8121F08C1002AFAD10A
:1029300070477047002001E001C1121F002AFBD13F
:1029400070470000014908607047000084000020C3
:102950002DE9FF5F82B00021DDE90430020DDDF8D2
:1029600040B0034318D044F61050A2F2FF32424365
:102970001514119801281FD0A5EB0B00401C5FEA2D
:10298000000A4FF000064E4FDFF83891B04650462F
:1029900015D5CAF1000413E0119801244AA30128B7
:1029A00001D16FEA0B010298119AC0E90031C0E928
:1029B000024206B0BDE8F09FCBF10000DFE704461D
:1029C0000021404A491842EB0450CDE9001012E0C2
:1029D000E00707D032463B4640464946FDF761FDD9
:1029E0008046894632463B4610461946FDF759FD5A
:1029F00006460F466410002CEAD1DDE90401DDE94A
:102A00000023BAF1000F06DAFDF74BFD42464B46B4
:102A1000FDF747FD05E0FDF7B6FD42464B46FDF7E5
:102A2000B2FD04460E460022284BFDF769FE03D88E
:102A30004FF0FF30014607E00022254B204631468B
:102A4000FDF788FCFDF7B7FF102409E0002C0ADB36
:102A50000A220023FDF7B2FE039B30321A55641E92
:102A600050EA0102F2D1641C039AC4F11103144428
:102A7000119A012A03D0012208430DD10AE008432C
:102A800004D000204FF0110B119072E7A3EB0B055F
:102A90006D1E0DE05B4504DD4FF0000205F1010500
:102AA00004E003DA4FF00002A5F10105002AECD0A2
:102AB00002981199C0E90231C0E9004579E70000A8
:102AC000000014400000F03F300000000000F04320
:102AD0000000E03F2DE9FF4F95B09B468946064632
:102AE00000250FE2252877D100242746F84A012146
:102AF000059400E0044316F8013F203B01FA03F07F
:102B00001042F7D130782A2811D06FF02F03307897
:102B1000A0F13002092A16D8059A44F0020402EB0B
:102B2000820203EB42021044761C0590EFE759F84D
:102B3000042B0592002A03DA504244F40054059015
:102B400044F00204761C30782E2816D116F8010FB6
:102B500044F004042A280DD06FF02F023078A0F141
:102B60003003092B09D807EB870302EB4303C7188F
:102B7000761CF3E759F8047B761C30786C280FD06C
:102B800006DC4C2817D068280DD06A2814D104E040
:102B9000742810D07A280FD10DE044F400140AE014
:102BA00044F4801401E044F440147278824202D16B
:102BB00004F58014761C761C307866280BD013DC64
:102BC000582877D009DC002875D04528F6D046284B
:102BD000F4D047281AD19DE118E0632835D0642845
:102BE00079D0652812D195E1702873D008DC672868
:102BF000F1D069286FD06E280DD06F2806D1B5E0CE
:102C000073282CD0752875D0782874D05A46179917
:102C100090476D1C75E1C4F30250022809D00328C7
:102C20000DD0D9F8001004280DD00D6009F1040969
:102C300067E1D9F80010EA17C1E90052F6E7D9F8C0
:102C400000100D80F2E70D70F0E719F8041B8DF805
:102C5000001000208DF80100EA46012003E059F839
:102C600004AB4FF0FF3061074FF0000102D40DE0DC
:102C700008F101018846B9420FDA8045F8DB1AF8FD
:102C800008100029F4D108E008F1010188468142CA
:102C9000FADB1AF808100029F6D105985B46A0EB7C
:102CA000080721463846179A00F094FA284400EBAA
:102CB000080507E04DE029E10DE01AF8010B5A463E
:102CC00017999047B8F10108F7D25B46214638467C
:102CD000179A13E142E00A220092C4F302524FF025
:102CE000000A022A08D059F804CB032A4FEAEC71F3
:102CF0000AD00DE029E02AE009F1070121F00702DE
:102D0000F2E802C1914609E00FFA8CFC4FEAEC713F
:102D1000042A03D14FFA8CFC4FEAEC71002907DA40
:102D20000A460021DCF1000C61EB02012D2202E0D9
:102D3000220504D52B228DF80420012203E0E207AE
:102D400001D02022F7E7904659E00A2102E0102244
:102D50000DE010214FF0000A00910BE010224FF01F
:102D6000000A44F004040827009203E008224FF010
:102D7000000A0092C4F30252022A05D059F804CB8B
:102D80000021032A08D009E009F1070121F0070218
:102D9000F2E802C1914605E01FFA8CFC042A01D139
:102DA0000CF0FF0C4FF00008220728D5702806D041
:102DB000009B83F0100353EA0A0305D00EE0402283
:102DC0008DF80420012208E05CEA010206D03022DE
:102DD0008DF804208DF8050002229046009B83F0B8
:102DE000080353EA0A030AD15CEA010201D162072F
:102DF00005D530228DF804204FF001087F1E582899
:102E000004D034A003900EA802900DE036A0F9E79C
:102E100053466046009AFDF7D1FC84460398825CD5
:102E20000298401E029002705CEA0100F0D1029804
:102E300006A9081A00F1200A600702D524F480349C
:102E400000E00127574502DDA7EB0A0000E0002063
:102E500000EB0A01009005984144401A0590E003F8
:102E600006D45B462146179A059800F0B3F905444D
:102E7000002706E001A85A46C05D179990476D1CCF
:102E80007F1C4745F6DBE0030CD55B462146179ACD
:102E9000059800F09FF9054404E030205A46179940
:102EA00090476D1C0099481E00900029F5DC08E051
:102EB000029802995A460078491C02911799904746
:102EC0006D1CBAF10001AAF1010AF1DC65E1000014
:102ED00009280100303132333435363738396162F0
:102EE00063646566000000003031323334353637B4
:102EF00038394142434445460000000000F058F98B
:102F00000544761C307800287FF4ECAD19B02846D3
:102F1000BDE8F08F620700D4062709F1070222F00E
:102F2000070CFCE80223E14603F000485FEA080CC6
:102F300002D00FF2702C0DE05FEA045C02D50FF2B4
:102F4000682C07E05FEAC47C02D00FF2602C01E03D
:102F5000AFF2700C4FF0FF3823F00043CDF850C0B3
:102F600065280CD006DC452809D046281DD0472806
:102F70003DD13DE0662818D067287ED138E0002199
:102F8000112F01DB112000E0781CCDE9000106A91A
:102F90000EA8FFF7DDFCDDE90F010E9A0391002179
:102FA000009207F1010A04914DE04FF000400097B4
:102FB000CDE9011006A90EA8FFF7CAFCDDE90F0252
:102FC00003920E9B11990022DDF80CA0009304924D
:102FD00011B9791C00EB010AB7EB0A0004D4C0F167
:102FE000FF3007F1010A0490AAEB0700019044E0CA
:102FF000012F00DA01270021112F01DD112000E04F
:103000003846CDE9000106A90EA8FFF7A1FCDDE9CD
:103010000F010E9A0391002104910092BA462107F4
:103020000CD40399514500DA8A46BAF1010F05DD47
:10303000009AAAF10101515C302908D0B84202DAA5
:1030400010F1040F06DA0121CDE9011015E0AAF113
:103050000101E9E7002805DC049901440491AAEB89
:10306000000102E0411C514500DD8A460499401AE6
:10307000401C01904FF000400290200704D40198BA
:10308000504501DBCDF8048000208DF84F000298F8
:103090000DF14F07B0F1004F25D02B200E90029874
:1030A0004FF0020800280CDA404202902D200E90CA
:1030B00007E00A210298FDF76BFB3031029007F818
:1030C000011DB8F10001A8F10108F2DC0298002806
:1030D000EFD1791E0E980870307800F0200040F093
:1030E000450007F8020D12A8C01B00F1070814984C
:1030F000007800B1012000EB0A01019801EBE071BA
:1031000005984144401A401E0590E00306D45B46F2
:103110002146179A059800F05DF805441498007848
:1031200018B15A46179990476D1CE00324D55B46A9
:103130002146179A059800F04DF805441CE00498C4
:10314000002807DBDDE90301884203DD0098405CCD
:10315000179901E0179930205A469047049805F1D5
:103160000105401C04900198401E019004D12E20BE
:103170005A46179990476D1CBAF10001AAF1010A4D
:10318000DDDC05E017F8010B5A46179990476D1CD6
:10319000B8F10001A8F10108F4DC5B462146179A5A
:1031A0000598ABE62D0000002B0000002000000079
:1031B0002DE9F041044600251E461746880404D434
:1031C00005E039462020B0476D1C641EF9D528461D
:1031D000BDE8F0812DE9F041044600251E469046E9
:1031E000C80301D5302700E02027880404D505E076
:1031F00041463846B0476D1C641EF9D52846BDE8E7
:10320000F08100002DE9FE4F0746884600266846FB
:1032100001F03CF8002444E057F8240058F824104A
:10322000A0EB010ABAF1000F01DB514601E0CAF13F
:1032300000010846FDF716FA83464FF08F41FDF76F
:103240004BF881465DF824000021FDF78DFA18D077
:103250005DF824104846FDF73FF882464FF07E5156
:10326000FDF702F8054600BF25F0004082460F48F2
:10327000416A5046FDF782FA12D20120A04006436F
:103280000EE00A48C1694846FDF76EFA05D30748C3
:10329000016A4846FDF772FA02D20120A0400643B7
:1032A000641C032CB8DB3046BDE8FE8F4864000880
:1032B0002DE9F04D8D4F21F0004A86B005460C46B1
:1032C000BA452ADBAAEB070028430AD08848824582
:1032D00001DC1AD1CDB106B02846BDE8F04DFFF7AC
:1032E0000EBB844A844B2846FDF7DBF807460E46A2
:1032F000824A834B28462146FDF7D3F806B03A466A
:103300003346BDE8F04DFDF725B80120FFF71AFB65
:1033100006B0BDE8F04DFFF7F7BA7A48824542DAC9
:10332000BAF1795F0BDA2846FFF780FA042808BF64
:10333000FFF7F0FA284606B02146BDE8F08D2A4690
:103340000B461046FDF7ADF8834602466E480E4622
:103350000B4606217844FFF77DFA5A463346FDF7BF
:10336000A0F8804669488A465A4633460421784484
:10337000FFF770FA5A463346FDF793F800223B46B2
:10338000FCF7E8FF02460B4640465146FDF7FBF8C6
:103390002A462346FDF785F806B02A462346BDE8AF
:1033A000F04DFCF7D7BF284624F0004100223D46EF
:1033B0003B46FDF773F84FF0FF32FDF7E5FA06469E
:1033C000024653480F460B4606217844FFF742FA5F
:1033D00032463B46FDF765F8CDE900014D483246DF
:1033E0003B4604217844FFF735FA32463B46FDF769
:1033F00058F800222B46FCF7ADFF83460291304679
:10340000394602F0EFFC804643480D46504517DC34
:10341000DDE900015A46029BFDF7B5F842462B460E
:10342000FDF73FF842462B46FCF794FF0122FDF7DB
:10343000ABFA304A304BFDF72EF8304A304B4CE0B7
:103440004FF0000A52460B464046FCF783FFCDE999
:10345000031052462B4610461946FDF722F8324615
:103460003B46FDF71BF8DDE90332FDF78CF8064615
:103470000F46DDE900015A46029BFDF784F88346BA
:103480000091012230463946FDF77EFA194A1A4B5F
:10349000FDF704F806460F46012240462946FDF78F
:1034A00073FA5A46009BFCF7FCFF32463B46FCF79A
:1034B000F2FF06460F46012250462946FDF764FA00
:1034C0000E4DDFF858802A464346FCF7E7FF3246A8
:1034D0003B46FCF7E3FF2A464346FCF7DFFF002CA0
:1034E000D8BF81F0004106B0BDE8F08D0000F03F8C
:1034F0000000F07F075C143326A6913C182D44543D
:10350000FB21F93F0000E03F103D0000263D000098
:103510009A3C0000B03C00003333EF3FFB21E93F11
:103520002DE9F84F04460D4621F000400091734903
:10353000814211DC7249884201DC06D12CB120465F
:103540002946BDE8F84FFFF7DAB96E48002DCCBF29
:103550006D496E49BDE8F88F6D49814211DD6D49B5
:103560008142D8BF4FF0FF366DDD20462946FFF778
:103570005DF9042808BFFFF7CDF920462946BDE8CC
:10358000F88F6549654F25F00045814233DD644978
:10359000814219DD002632464FF0804320462946FD
:1035A000FCF7D8FE80468A46012220462946FDF7D0
:1035B000EBF900223B46FCF76EFF42465346FCF710
:1035C000E2FF04460D463EE001260022BA463B4695
:1035D00020462946FCF7BEFE80460F460022534691
:1035E00020462946FCF757FF42463B46FCF7CBFFF7
:1035F00004460D4627E04B4981421BDDDFF828A138
:1036000002260022534620462946FCF74AFF0022A4
:103610003B46FCF79FFE80460F460022534620465D
:103620002946FCF738FF42463B46FCF7ACFF044610
:103630000D4608E0032622462B4600203B49FCF7B6
:10364000A2FF04460D4622462B4610461946FCF7BB
:1036500028FF8B46824602460B46FCF722FF0746B0
:103660000246334888460B4606217844FFF7F2F8B5
:1036700052465B46FCF715FF82462E488B463A467B
:10368000434605217844FFF7E5F83A464346FCF700
:1036900008FF02460B46002E504659460CDAFCF74E
:1036A00059FE22462B46FCF7FCFE01B022462B4673
:1036B000BDE8F04FFCF7F2BEFCF74CFE22462B466D
:1036C000FCF7EFFE1C4A7A4402EBC603D3E9002361
:1036D000FCF7E1FE22462B46FCF7DDFE174A7A4452
:1036E00002EBC603D3E90023FCF7D8FE009A002AB8
:1036F000B8BF81F00041BDE8F88F00000000104421
:103700000000F07F182D4454FB21F93FFB21F9BF45
:103710000000DC3F0000203E0000F33F0000F03FCF
:103720000000E63F008003400000F83F0000F0BFCB
:10373000B23A0000703A00000E3A0000D63900009C
:103740002DE9F04D9446CCF1000423F000464CEAFC
:103750000404524F46EAD4749A46884621F0004247
:10376000BC4206D8454240EA050442EAD474BC4251
:1037700004D9BDE8F04D6246FFF7C4B8AAF1405540
:10378000A5F17F6555EA0C040BD0022404EAAA7463
:10379000434DDFF810E144EAD87452EA000B04D03C
:1037A0000CE0BDE8F04DFFF7BBBE002C14BF012CB0
:1037B000BDE8F08D022C30D0032C32D056EA0C0B31
:1037C0000AD0BE4220D1BA4209D126F0804622F06A
:1037D00080423346114617E000291ADB25E0DFF866
:1037E000C8B0FB44002C04BFDBE90001BDE8F08D4C
:1037F000012C02BFDBE9000181F00041BDE8F08D42
:10380000022C0AD0032C0CD0BA4212D1B8F1000F0E
:103810000BDA23482549BDE8F08D28462449BDE848
:10382000F08D28467146BDE8F08D1D482149BDE860
:10383000F08D921B12153C2AC4BF19481D490EDC9D
:10384000BAF1000FBEBF12F13C0F0020014606DBAB
:103850006246FCF798FE21F00041FFF761FE002C64
:1038600008BFBDE8F08D012C04BF81F00041BDE828
:10387000F08D114A114B022C07D0FCF70CFE2A46A2
:10388000BDE8F04D0A4BFCF706BEFCF704FE2A46E5
:10389000BDE8F04D064BFCF701BE00000000F07FD4
:1038A000182D4454FB2109C06A390000FB21F9BFDF
:1038B000FB210940FB21F93F075C143326A6A13CFC
:1038C0002DE9F0410446E07800F0C006E07800F011
:1038D0003F05607800F0010098B1EF102846E91725
:1038E00005EB5171C910A5EBC101491C01F0FF089E
:1038F0000B48006820B10A484146026838469047A4
:1039000000BF607800F0080030B10548406818B189
:10391000B011034A516888470020BDE8F0810000DB
:103920008800002038B5044664B120208DF80000DE
:1039300028208DF8010030208DF8020038208DF805
:10394000030004E0A32204216846FCF71CFC6A463D
:10395000042140F69E2002F077F901F061FD38BDA8
:103960003EB5044602208DF80000CA208DF8010003
:10397000E3208DF8020009208DF803006A46042137
:10398000682002F061F9A3208DF8000004F04000E7
:1039900048B1C0208DF80100C8208DF80200C22077
:1039A0008DF8030006E0A3208DF801008DF80200D9
:1039B0008DF8030004F4C07048B1C4208DF80400F1
:1039C000CC208DF80500C6208DF8060006E0A32067
:1039D0008DF804008DF805008DF80600A3208DF801
:1039E00007008DF808008DF809006A460A2140F6A4
:1039F000A72002F029F904F0030018B120208DF867
:103A0000000002E0D8208DF800006A46012140F64F
:103A1000B62002F019F904F0200018B1012000F0DE
:103A2000ADF802E0002000F0A9F804F4C07008B37B
:103A300004F4807060B1B2208DF800008B208DF806
:103A40000100B6208DF802009B208DF803000BE0EA
:103A5000B0208DF8000080208DF80100B4208DF892
:103A6000020090208DF803006A46042140F6A2204F
:103A700002F0EAF804F0010020B3F8208DF800000D
:103A80006A4601214FF40B6002F0DEF8FA210720AC
:103A900000F0FEFA072000F0C5FA012000F0E5FA78
:103AA000642000F0C5FB4FF4FA7000F0D4FBC8218D
:103AB000304800F075FA282000F08EFA0A2000F055
:103AC0009EFA08E0D8208DF800006A4601214FF4E4
:103AD0000B6002F0B9F804F0020018B1D9208DF89B
:103AE000000002E0D8208DF800006A46012140F273
:103AF0003D7002F0A9F804F0040018B1012000F0B4
:103B000069F802E0002000F065F804F0100018B138
:103B10000120FFF707FF02E00020FFF703FF44F05A
:103B200008001549488101F07BFC00201249887388
:103B300004F0400018B10846807B801D887304F4AF
:103B4000C07020B10C48807B801D0B49887304F045
:103B5000140020B10848807B10300749887304F0B6
:103B6000030020B10448807B001D034988730020B6
:103B70003EBD000009E3CA02880000203EB50446AD
:103B80006CB10EA1D1E900208968CDE90020029135
:103B90006A4609214FF4976002F056F83EBD0AA22A
:103BA000D2E900109268CDE9010200916A4609212C
:103BB0004FF4976002F048F8F0E70000B8AAB38D20
:103BC000B4980D355D000000B8AAAAAAB088C3C594
:103BD000C700000038B5044664B1C0208DF800006D
:103BE000C2208DF80100C4208DF80200C6208DF897
:103BF000030004E08B2204216846FCF7C4FA6A46FD
:103C0000042140F6982002F01FF801F009FC38BDAD
:103C100010B5C8234FF48062034940F6F63001F036
:103C200093FA0446204610BD706400082DE9F04F59
:103C30008DB00746884615469946DDE9166B002487
:103C4000002030806B49887B5A4605A901F048FB6B
:103C500018B1601E0DB0BDE8F08F6648807A00F0A4
:103C60001400002867D09DF8140000069DF8151078
:103C700040EA01409DF8161040EA01209DF8171017
:103C8000084328609DF8180000069DF8191040EAC6
:103C900001409DF81A1040EA01209DF81B100843CE
:103CA00068609DF81C0000069DF81D1040EA014068
:103CB0009DF81E1040EA01209DF81F100843A860DF
:103CC0009DF8200000069DF8211040EA01409DF873
:103CD000221040EA01209DF823100843E86004F117
:103CE0001000C4B2286800140190686800140290A3
:103CF000A86800140390E8680014049001984043F9
:103D0000029901FB0100039901FB0100049901FBE9
:103D1000010ABAF1706F02DBBAF1885F05DD01F0CC
:103D20007FFB00203080401E94E7B6F9000040F48D
:103D30008070308000BF2F48807A00F0400020B3B0
:103D400005A9601C085C095D40EA012000B2A8F8E2
:103D5000000005A9E01C095C05AAA01C105C41EA52
:103D6000002000B2A8F8020005A9601D095C201D12
:103D7000105C41EA002000B2A8F80400A01DC4B203
:103D8000B6F9000040F0080030801A48408900F47D
:103D9000C07008B305A9601C085C095D40EA0120F9
:103DA00000B2388005A9E01C095C05AAA01C105CC3
:103DB00041EA002000B2788005A9601D095C201D41
:103DC000105C41EA002000B2B880A01DC4B2B6F970
:103DD000000040F0700030800648807A00F0030058
:103DE00018B105A90819FFF76BFD484600F03EFE23
:103DF00000202FE78800002030B585B0044616A2C9
:103E000007CA02AB07C3C82C03DD4FF0FF3005B073
:103E100030BDC82090FBF4F0401E85B2280A8DF812
:103E20000000E8B28DF801006A46022140F2162037
:103E300001F00AFF10B14FF0FF30E8E702AA0C21B1
:103E400040F6C12001F000FF10B14FF0FF30DEE777
:103E5000044884810020DAE7FEF2ABC4AAF1DFDF78
:103E6000BBAFDFDF8800002010B586B0044647A056
:103E70000068039046A00068029046A00068019088
:103E800045A00068009004F0030003A9085C8DF8C9
:103E9000140003A8C4F3C101405C8DF8150003A809
:103EA000C4F38111405C8DF8160004F0030002A9F0
:103EB000085C8DF8100002A8C4F3C101405C8DF8C5
:103EC000110002A8C4F38111405C8DF8120005AA0C
:103ED000032140F2264001F0B7FE18B14FF0FF3049
:103EE00006B010BD04AA032140F22A4001F0ACFE46
:103EF00010B14FF0FF30F3E701980590009804905F
:103F000004F0040058B19DF8140040F001008DF851
:103F100014009DF8100040F001008DF8100004F02E
:103F2000200058B19DF8150040F001008DF81500F3
:103F30009DF8110040F001008DF8110004F480702C
:103F400058B19DF8160040F001008DF816009DF85C
:103F5000120040F001008DF8120005AA03214FF471
:103F6000886001F071FE10B14FF0FF30B8E704AA8D
:103F7000032140F2314001F067FE10B14FF0FF30F5
:103F8000AEE7064804810020AAE700004CCD6C0093
:103F90000CC92C00365676002646660088000020A4
:103FA000F8B505460E464FF47A7095FBF0F000FB2D
:103FB00006F4200E8DF80000200C8DF80100200A78
:103FC0008DF80200E0B28DF803006A4604214FF438
:103FD000AE7001F039FEF8BD38B50446052094FBFB
:103FE000F0F084B220128DF80000E0B28DF80100EC
:103FF0006A4602214FF4AD7001F026FE38BD38B597
:104000000446052094FBF0F084B220128DF80000E5
:10401000E0B28DF801006A4602214FF4AC7001F065
:1040200013FE38BD38B504460020009004F00100AE
:1040300020B19DF8000040F03000009004F0020034
:1040400020B19DF8000040F00C00009004F0040046
:1040500020B19DF8000040F0030000906A46012165
:104060004FF4A47001F0F0FD38BD38B50446012CC2
:1040700001DA012402E0042C00DD0424601EC0B239
:1040800000906A46012140F24F1001F0DDFD38BD7D
:104090002DE9FC4706460F4606F0070010B1B7F5BC
:1040A000C86F03DD4FF0FF30BDE8FC873846FCF7F2
:1040B000E2FA81465949FCF70FF98046684600F05C
:1040C00071FE9DF80000022806D0042816D00828AA
:1040D00026D0102848D135E04FF08D414046FCF7FE
:1040E000C9F88146FCF7E5FA84B24D494046FCF731
:1040F000C1F88146FCF7DDFA85B238E04FF08C411B
:104100004046FCF7B7F88146FCF7D3FA84B245493C
:104110004046FCF7AFF88146FCF7CBFA85B226E0C3
:104120004FF08B414046FCF7A5F88146FCF7C1FAF9
:1041300084B23D494046FCF79DF88146FCF7B9FA48
:1041400085B214E04FF08A414046FCF793F881466F
:10415000FCF7AFFA84B235494046FCF78BF881464C
:10416000FCF7A7FA85B202E04FF0FF309CE700BFF2
:1041700020128DF80400E0B28DF8050028128DF8A9
:104180000600E8B28DF8070006F00100A0B101AA10
:1041900002214FF4EA7001F057FD10B14FF0FF30EB
:1041A00082E70DF1060202214FF4927001F04CFDFE
:1041B00010B14FF0FF3077E706F00200A0B101AA7E
:1041C00002214FF4EC7001F03FFD10B14FF0FF30D1
:1041D0006AE70DF1060202214FF4947001F034FDFC
:1041E00010B14FF0FF305FE706F00400A0B101AA64
:1041F00002214FF4EE7001F027FD10B14FF0FF30B7
:1042000052E70DF1060202214FF4967001F01CFDF9
:1042100010B14FF0FF3047E7002045E7000048436A
:10422000000040460000C045000040450000C0447A
:1042300038B50446052094FBF0F085B228128DF8BD
:104240000000E8B28DF801006A4602214FF4EF70D9
:1042500001F0FAFC38BD38B50446052094FBF0F0B7
:1042600085B228128DF80000E8B28DF801006A4688
:1042700002214FF4ED7001F0E7FC38BD70B5044643
:104280000D46E0B2FDF7D2FD204670BD7CB5054677
:1042900028494968087801AB04220D21FDF79CF9F3
:1042A00008B107207CBD9DF80700C0F301109DF800
:1042B000041001F0E00140EAE1008DF800009DF8F3
:1042C0000700C0F381009DF8051001F0E00140EA0D
:1042D000E1008DF801009DF8070000F003009DF853
:1042E000061001F0E00140EAE1008DF80200002430
:1042F0001CE01DF8040018B9002045F8240013E064
:104300000D4845F8240006E055F824000B49FBF75A
:10431000B1FF45F824001DF80400401EC0B20DF89E
:1043200004000028F0D100BF601CC4B2032CE0DB05
:104330000020B7E7040000207B14AE3E1D5A843FE6
:104340002DE9F04F87B005460C46914601208DF8C7
:10435000100000208DF81100FE4A1268917CFD4A81
:104360005268107804AB0222FDF7DCF920B14FF05F
:10437000FF3007B0BDE8F08FC820FCF7E6FB002057
:104380008DF81000F34A1268D17BF24A5268107817
:1043900004AB0122FDF7C6F910B14FF0FF30E8E79A
:1043A000EC4A12685179EB4A5268107804AB01224A
:1043B000FDF7B8F910B14FF0FF30DAE7E54A1268BF
:1043C000917CE44A5268107804AB0122FDF7AAF907
:1043D00010B14FF0FF30CCE7DE4A1268D17DDD4AE4
:1043E0005268107804AB0122FDF79CF910B14FF030
:1043F000FF30BEE7D74A12681179D64A5268107862
:1044000004AB0122FDF78EF910B14FF0FF30B0E799
:104410000C208DF81000CF4A12681179CD4A5268ED
:10442000107804AB0122FDF77DF910B14FF0FF3099
:104430009FE70F20FCF789FBC648806A407A8DF819
:104440001000C44A12689178C24A5268107804ABCE
:104450000122FDF767F910B14FF0FF3089E7BD4841
:10446000806A007A8DF81000BA4A12685178B94A09
:104470005268107804AB0122FDF754F910B14FF0E7
:10448000FF3076E7B9F1000F07D0B248806A807A32
:1044900040F0E0008DF8100004E0AE48806A807AB9
:1044A0008DF81000AB4A12689179AA4A52681078C8
:1044B00004AB0122FDF736F910B14FF0FF3058E799
:1044C000B9F1000F07D0A348806AC07A40F0E0003D
:1044D0008DF8100003E0A048C07A8DF810009D4AC6
:1044E0001268D1799B4A5268107804AB0122FDF71B
:1044F00019F910B14FF0FF303BE7B9F1000F02D0CE
:10450000C820FCF722FB40208DF81000914A126869
:104510001179904A5268107804AB0122FDF702F934
:1045200010B14FF0FF3024E778208DF81000894A51
:1045300012685179874A5268107804AB0122FDF75E
:10454000F1F810B14FF0FF3013E783498889FCF789
:10455000FCFA00208DF810007E4A126851797D4ADD
:104560005268107804AB0122FDF7DCF810B14FF06F
:10457000FF30FEE6774A1268917A764A52681078E0
:1045800004AB0222FDF728F810B14FF0FF30F0E63F
:104590009DF811009DF8101040EA012B0C209BFBA8
:1045A000F0F0C6B20020A86068602860A06060607B
:1045B0002060824665E0674A1268D17A654A52688F
:1045C000107804AB0C22FDF707F810B14FF0FF3064
:1045D000CFE69DF811009DF8101040EA012000B2CE
:1045E000ADF808009DF813009DF8121040EA012074
:1045F00000B2ADF80A009DF815009DF8141040EACD
:10460000012000B2ADF80C00BDF908102068084484
:104610002060BDF90A10606808446060BDF90C10A4
:10462000A0680844A0609DF817009DF8161040EAA5
:10463000012000B2ADF800009DF819009DF8181097
:1046400040EA012000B2ADF802009DF81B009DF881
:104650001A1040EA012000B2ADF80400BDF90010C4
:10466000286808442860BDF902106868084468603A
:10467000BDF90410A8680844A8600AF1010000F020
:10468000FF0AB24597DB3448D0F800C02868C1174C
:10469000090441EA10410704624600233846FBF74B
:1046A00041FD32460023CDE90201FBF73BFD2860C6
:1046B0002948D0F800C06868C117090441EA1041D0
:1046C0000704624600233846FBF72CFD32460023E0
:1046D000CDE90201FBF726FD68601F48D0F800C055
:1046E000A868C117090441EA104107046246002383
:1046F0003846FBF717FD32460023CDE90201FBF7F0
:1047000011FDA8601448D0F804C02168C81700043F
:1047100040EA11480F046246002338464146FBF741
:1047200001FD32460023CDE90201FBF7FBFC2060CE
:104730000948D0F804C06068C117090441EA104173
:104740000704624600233846FBF7ECFC32460023A0
:1047500004E000000400002048640008CDE90201E4
:10476000FBF7E0FC60601148D0F804C0A068C117F6
:10477000090441EA10410704624600233846FBF76A
:10478000D1FC32460023CDE90201FBF7CBFCA0604F
:10479000A068002804DDA068A0F58030A06003E0D8
:1047A000A06800F58030A0600020E2E548640008C1
:1047B0002DE9FC5F0746884600263F49496808788E
:1047C00001AB03220D21FCF707FF10B10720BDE864
:1047D000FC9F9DF8040000F01F008DF804009DF878
:1047E000050000F01F008DF805009DF8060000F0A0
:1047F0001F008DF80600002459E057F8240058F8EF
:104800002410A0EB010BBBF1000F01DB594601E0C6
:10481000CBF100010846FBF725FF4FF08F410090D8
:10482000FBF75AFD824601A8005D78B3234908686A
:10483000FBF721FF834659462148FBF74DFD814692
:1048400004E020494846FBF715FD814601A8005DBC
:10485000401EC0B201A908550028F2D14946504671
:10486000FBF73AFD83464FF07E51FBF7FDFC054612
:1048700000BF25F000408346104881695846FBF789
:104880007DFF13D20120A04006430FE0FFE70B4855
:1048900001695046FBF768FF05D308484169504657
:1048A000FBF76CFF02D20120A0400643641C032CDE
:1048B000A3DB30468BE700000400002048640008BA
:1048C00000B04C4554E3853F10B50446204600F047
:1048D0000FF80346E01C00F00BF843EAC00083B277
:1048E000A01D00F005F843EA801083B2184610BD01
:1048F000014691F90020002A01DD00201EE091F917
:104900000020002A01DA042018E091F90120002A91
:1049100001DD012012E091F90120002A01DA0520D1
:104920000CE091F90220002A01DD022006E091F955
:104930000220002A01DA062000E00720704700006C
:1049400008B5FCF725FC3448FDF7B2F933A2012184
:104950000846FDF768F933A201210220FDF763F94B
:1049600032A201210420FDF75EF953E0FDF710F9B2
:1049700001233048027819460320FDF7E6F80123A9
:104980002D48027803210846FDF7DFF801232B4864
:10499000027805210320FDF7D8F801232848027882
:1049A00007210320FDF7D1F8022000901A480423C4
:1049B0000921026C0320FDF76DF81E4800780128DC
:1049C00005D120A206210420FDF72DF922E01A4886
:1049D0000078012805D11DA206210420FDF723F946
:1049E00018E016480078012805D11AA206210420F3
:1049F000FDF719F90EE012480078012805D117A239
:104A000006210420FDF70FF904E016A20621042078
:104A1000FDF709F9AAE70000FC000020526F6C6C5A
:104A20003A2000004779726F3A0000004469723AF8
:104A300000000000580000205B000020590000200A
:104A40005A00002066617277617264004261636B94
:104A5000000000004C656674000000005269676841
:104A60007400000053746F70000000007047000075
:104A700070B50446002624F00104184890F824007C
:104A800008B1002070BD1548807A10B94FF0FF3092
:104A9000F8E71248057C807A2040104908740846DF
:104AA000007CA04202D04FF0FF3600E0002614B98F
:104AB0000A48007D18B1012001F04CF902E0002005
:104AC00001F048F93CB100F0ABFC20B1034805749B
:104AD0004FF0FF30D6E73046D4E700000400002056
:104AE0002DE9F04F99B004460D4616464FF07E571B
:104AF0004FF000084FF000094FF0000A12A813A968
:104B000018AB0EAACDE9001014A916A8FFF78EF86D
:104B100018B1012019B0BDE8F08FBDF84C0000F4C9
:104B2000807000287ED00E98FBF79CFD83464FF0E6
:104B30009D41FBF7D1FB07460F98FBF793FD83469A
:104B40004FF09D41FBF7C8FB80461098FBF78AFDAC
:104B500083464FF09D41FBF7BFFB81461198FBF761
:104B600081FD83464FF09D41FBF7B6FB82463946F7
:104B70004FF08040FBF77EFB49460590FBF77AFB40
:104B8000414607904FF04040FBF774FB51460590BB
:104B9000FBF770FB06900799FBF714FB8346FBF7C6
:104BA0009CFDCDE90801FEF783FB4FF06632544BC4
:104BB000CDE90A01FBF775FCCDE90C01FBF7B8FD67
:104BC000206049464FF08040FBF754FB4946029075
:104BD000FBF750FB414604904FF04040FBF74AFB87
:104BE00041460290FBF746FB03900499FBF73CFB20
:104BF00083464FF07E51FBF7E5FA0590FBF76DFD1C
:104C0000CDE9080139464FF08040FBF733FB4146C0
:104C10000390FBF72FFB494604904FF08040FBF7D1
:104C200029FB00E068E051460390FBF723FB834635
:104C30000499FBF7C7FA0590FBF74FFDCDE9060194
:104C4000DDE90823FEF77CFD4FF066322C4BCDE901
:104C50000A01FBF726FCCDE90C01FBF769FD286092
:104C600051465046FBF706FB494604904846FBF781
:104C700001FB414603904046FBF7FCFA39460190A0
:104C80003846FBF7F7FA00900199FBF79BFA029080
:104C90000399FBF7E9FA83460499FBF7E5FA0590D7
:104CA000FBF71BFDCDE9080151463846FBF7E2FA58
:104CB000494604904046FBF7DDFA03900499FBF760
:104CC00081FA4FF080410590FBF7D4FA8346FBF759
:104CD00004FDCDE90601DDE90823FEF731FD4FF0C3
:104CE0006632074BCDE90A01FBF7DBFBCDE90C018E
:104CF000FBF71EFD306001E002200BE7002009E712
:104D000066A64C4070B50024FCF7ECFA00F024F9DC
:104D1000002840D1782000F02FFFC4B20CB1012050
:104D200070BD7820FFF7A4FEC4B20CB10220F7E7F3
:104D3000642000F0D3FEC4B20CB10320F0E7FEF70C
:104D400067FFC4B20CB10420EAE71548FFF7BCFDC9
:104D50000546FFF789F8C4B20CB10520E0E740F240
:104D60007310FEF7FDFDC4B20CB10620D8E7642035
:104D7000FFF742F8C4B20CB10720D1E700F0A4FF5E
:104D800004460CB10820CBE7012000F0A3FDC4B21B
:104D90001CB10920C4E70A20C2E70020C0E70000D8
:104DA0003000002001461148407A30B1012807D078
:104DB000022808D003280CD108E0022008700BE07C
:104DC0000420087008E00820087005E01020087032
:104DD00002E04FF0FF30704700BF0448C07C18B1BC
:104DE00008784006000E08700020F4E70400002058
:104DF00001461348407A30B1012808D002280AD071
:104E0000032810D10BE04FF4804008800EE041F6FB
:104E10009C7008800AE04FF48050088006E04FF450
:104E20000060088002E04FF0FF30704700BF044888
:104E3000C07C10B10888401008800020F5E7000011
:104E40000400002001460248007C087000207047E2
:104E50000400002001460F48007A30B1012807D035
:104E6000022809D003280FD10AE0FA2008800EE0BA
:104E70004FF4FA7008800AE04FF47A70088006E078
:104E80004FF4FA60088002E00020088000BF00BFF5
:104E9000002070470400002001460E48007A30B11F
:104EA000012807D0022808D003280CD108E00A48BE
:104EB00008600BE00948086008E00948086005E060
:104EC0000848086002E04FF0FF30704700BF002044
:104ED000FBE70000040000200000034300008342C1
:104EE000333303423333834101461248C07A0828E2
:104EF00017D2DFE800F01704070A0D101318BC20C2
:104F0000088013E06220088010E02A2008800DE06D
:104F1000142008800AE00A20088007E005200880A5
:104F200004E000BF00BF0020088000BF00BF0020D9
:104F300070470000040000200146064890F8240055
:104F400010B14FF0FF3070470248C0890880002040
:104F5000F9E70000040000201CB580208DF8000057
:104F6000654A1268917C644A526810786B46012247
:104F7000FCF7D8FB10B14FF0FF301CBD6420FBF7ED
:104F8000E4FD00208DF800005B4A1268917C5A4ACB
:104F9000526810786B460122FCF7C4FB10B14FF049
:104FA000FF30EAE7544A1268917D534A52681078FC
:104FB0006B460622FCF710FB10B14FF0FF30DCE728
:104FC0009DF80500C007400F9DF8031001F0010196
:104FD00040EA41009DF8011001F0010140EA01049E
:104FE00094B1012C03D101214348C17431E0022C5A
:104FF00003D100214048C1742BE021463FA0FDF7BA
:1050000005FC4FF0FF30B8E73B4A1268D1783A4AC6
:10501000526810786B460122FCF7DEFA10B14FF0AF
:10502000FF30AAE79DF8000000F00F042CB93D48BE
:10503000FDF7ECFB4FF0FF309FE7042C06D13AA0C0
:10504000FDF7E4FB01212C48C17402E000212A484D
:10505000C174FF2128488172FF2027490872FF216F
:1050600025484172C1724FF6FF71C181FF21017461
:1050700081740121017380F82210002180F823102F
:10508000417501751630016041608160163880F805
:10509000241080F82510C1844FF4FA6000F062FCFF
:1050A00010B14FF0FF3068E7022000F02BFB10B189
:1050B0004FF0FF3061E72A2000F0CEFC10B14FF036
:1050C000FF305AE7322000F009FD10B14FF0FF30F9
:1050D00053E70020FFF7CCFC10B14FF0FF304CE756
:1050E000002000F051FB10B14FF0FF3045E70020E9
:1050F00000F042FD002040E704000020556E73756B
:1051000070706F7274656420736F66747761726516
:105110002070726F64756374207265762025642E2A
:105120000A0000005871000848616C662073656EC3
:105130007369746976697479207061727420666F1E
:10514000756E642E0A0000002DE9F04385B0054617
:105150000E4690469946294890F8250020B14FF018
:10516000FF3005B0BDE8F08316B94FF0FF30F8E727
:10517000002423E0281B102801DD102000E0281B5C
:1051800087B232193946204600F05EFD10B14FF06B
:10519000FF30E6E701AA3946204600F001F910B1D8
:1051A0004FF0FF30DDE730193A4601A9FAF7FDFF6D
:1051B00010B16FF00100D4E7E01984B2AC42D9DB42
:1051C0004FEA28208DF8000008F0FF008DF801005C
:1051D0000A4A1268917E094A526810786B46022288
:1051E000FCF7A0FA10B14FF0FF30BAE701210348F5
:1051F00080F82510A0F826900020B2E704000020D7
:1052000038B50446282C02DD4FF0FF3038BDDCB93C
:10521000002000F0EBFB00208DF8000007208DF847
:1052200001002E4A1268917C2C4A526810786B4615
:105230000222FCF777FA10B14FF0FF30E6E70021C9
:10524000264801750020E1E7012000F0CFFB202077
:105250008DF80000012C06D100208DF801000520FA
:1052600000F0FAFB17E0052C06DC01208DF80100A8
:10527000052000F0F1FB0EE0142C06DC02208DF876
:1052800001000A2000F0E8FB05E003208DF8010092
:10529000142000F0E1FB9DF80100072101EB8010D4
:1052A000C0B28DF801000D4A1268917C0B4A526819
:1052B00010786B460222FCF735FA10B14FF0FF3040
:1052C000A4E70821054881720021017301210175BD
:1052D0000020FFF7CDFB002098E70000040000202D
:1052E000F8B504460F4616462C4890F8240010B92D
:1052F0004FF0FF30F8BD2948807A10B94FF0FF30E9
:10530000F8E7264A1268917A244A526810786B4668
:105310000222FCF761F910B14FF0FF30EAE79DF887
:1053200001009DF8001040EA0125A54203DA0020A3
:105330003070401EDEE7194840684088B5EB600FCA
:1053400017DD164A1268517C144A526810786B4671
:105350000122FCF741F910B14FF0FF30CAE79DF888
:10536000000000F0100020B100F05AF86FF00100CA
:10537000C0E7E2B2094B1B68D97A084B5B68187822
:105380003B46FCF729F910B14FF0FF30B2E795FB2F
:10539000F4F0401E30700020ACE700000400002054
:1053A000F8B504460D46164616B94FF0FF30F8BD65
:1053B0001A48807A10B94FF0FF30F8E720128DF8C4
:1053C0000000E0B28DF801009DF801002844134967
:1053D00049684989884202DD4FF0FF30E7E70F4A0C
:1053E0001268117E0D4A526810786B460222FCF753
:1053F00099F910B14FF0FF30D9E7EAB2074B1B68BB
:10540000597D064B5B6818783346FCF7E5F810B118
:105410004FF0FF30CBE70020C9E700000400002078
:1054200008B57048807A10B94FF0FF3008BD0020F1
:1054300000906C4A1268D17B6A4A526810786B46B9
:105440000122FCF76FF910B14FF0FF30EEE7654A2B
:1054500012685179634A526810786B460122FCF752
:1054600061F910B14FF0FF30E0E75E4A1268117940
:105470005C4A526810786B460122FCF753F910B170
:105480004FF0FF30D2E7574890F82400002853D05F
:105490000C200090534A12681179524A52681078D1
:1054A0006B460122FCF73EF910B14FF0FF30BDE72B
:1054B0003220FBF74AFBC02000904A48807A00F077
:1054C000010020B19DF8000040F020000090454A06
:1054D00012681179434A526810786B460122FCF732
:1054E00021F910B14FF0FF30A0E73E48407C10B1E9
:1054F0000220009001E0002000903A4A1268D17B1F
:10550000384A526810786B460122FCF70BF910B14B
:105510004FF0FF308AE700200090324A126851793C
:10552000304A526810786B460122FCF7FBF80028DD
:1055300055D04FF0FF3079E704200090294A1268D7
:105540001179284A526810786B460122FCF7EAF874
:1055500010B14FF0FF3069E72248807C20B9214824
:10556000807A00F0010010B94020009001E0602036
:1055700000901C4A126811791A4A526810786B46DA
:105580000122FCF7CFF810B14FF0FF304EE7322088
:10559000FBF7DBFA1348407C10B10120009001E0DA
:1055A000002000900F4A1268D17B0E4A5268107892
:1055B0006B460122FCF7B6F810B14FF0FF3035E72B
:1055C000084A12685179074A52681078054B10331F
:1055D0000122FCF7A7F810B14FF0FF3026E70020BA
:1055E00024E70000040000202DE9F04F8DB0834631
:1055F0000F4602200C90424890F8240020B1002071
:1056000000F068F9012600E0002603A8FFF722FC5D
:1056100005A8FFF7C7FB01A8FFF766FC02A8FFF784
:105620008BFC374890F80AA004A8FFF70BFC002475
:1056300007E0002239465846FEF782FE00B902E034
:10564000641C022CF5DB00BF022C01D1002528E0F0
:10565000002407E0012206A909A8FEF771FE00B99F
:1056600002E0641C022CF5DB00BF022C01D10025F6
:1056700017E006A93846FDF7C5FD00F0FF0809A9A7
:105680005846FFF795F800F0FF090025B9F1000F23
:1056900001D145F00105B8F1000F01D145F0020537
:1056A00000BFFF2016490872FF2115484172C172E0
:1056B0004FF6FF71C181FF218172017401210173D5
:1056C000BDF80C0000F04EF99DF8140000F01AF837
:1056D000BDF8040000F0C0F9BDF8080000F0FEF9C4
:1056E000504600F049FA9DF81000FFF7C1F916B1D5
:1056F000012000F0EFF828460DB0BDE8F08F000063
:105700000400002038B504461E48807A10B94FF0D6
:10571000FF3038BD022C06D0042C07D0082C08D04E
:10572000102C0CD108E0002000900BE00820009025
:1057300008E01020009005E01820009002E04FF0F3
:10574000FF30E6E700BF0F48407A9DF80010B0EB4D
:10575000E10F01D10020DCE70A4A1268D179094A39
:10576000526810786B460122FBF7DCFF10B14FF056
:10577000FF30CEE79DF80000C110024841720020C2
:10578000C7E700000400002038B504465048807C7C
:10579000A04201D1002038BD002C46D04C4A1268EE
:1057A00011794B4A526810786B460122FBF714FFBF
:1057B00010B14FF0FF30EEE79DF8000020F0200020
:1057C0000090434A12681179414A526810786B463A
:1057D0000122FBF7A7FF10B14FF0FF30DBE70320FA
:1057E000FBF7B3F902200090394890F8220020B16D
:1057F0009DF8000040F080000090354890F82300AC
:1058000020B19DF8000040F030000090304A12684E
:10581000117D2F4A526810786B460122FBF782FFF8
:10582000002851D04FF0FF30B5E7294A12681179AE
:10583000274A526810786B460122FBF7CDFE10B163
:105840004FF0FF30A7E72248807A00F0010028B12E
:105850009DF8000040F02000009004E09DF800005A
:1058600020F0200000901A4A12681179184A5268F4
:1058700010786B460122FBF755FF10B14FF0FF3057
:1058800089E70320FBF761F9114890F8220010B175
:105890008020009001E0002000900D4890F8230047
:1058A00020B19DF8000040F030000090084A1268D6
:1058B000117D074A526810786B460122FBF732FFD0
:1058C00010B14FF0FF3066E701488474002062E7B2
:1058D0000400002038B50446214890F82400A04276
:1058E00001D1002038BD24B31D4890F8250010B91F
:1058F0004FF0FF30F6E7002000F02CFA0020FFF711
:1059000043FF1749C88C00F0E9F8002000901449C3
:10591000496808786B4601222321FBF703FF012128
:105920000F4880F82410012000F014FAFFF778FDEA
:1059300013E0002000F00EFA0948007C00900849AE
:10594000496808786B4601222321FBF7EBFE002112
:10595000034880F82410FFF763FD0020C2E7000031
:105960000400002038B504461F48807A10B94FF073
:10597000FF3038BDFA2C09D0B4F5FA7F09D0B4F560
:105980007A7F09D0B4F5FA6F0CD108E000200090BE
:105990000BE00820009008E01020009005E018209F
:1059A000009002E04FF0FF30E3E700BF0E48007ABE
:1059B0009DF80010B0EBE10F01D10020D9E70A4AB1
:1059C00012689179084A526810786B460122FBF7F9
:1059D000A9FE10B14FF0FF30CBE79DF80000C010DA
:1059E000014908720020C4E70400002038B50446CD
:1059F000184890F82300A04201D1002038BD14B10E
:105A00003020009001E0002000901248807C20B1FE
:105A10009DF8000040F0020000900E4890F822002F
:105A200020B19DF8000040F080000090094A126803
:105A3000117D084A526810786B460122FBF772FE0E
:105A400010B14FF0FF30D9E7024880F82340002022
:105A5000D4E700000400002038B504461E48807AD0
:105A600010B94FF0FF3038BDBC2C02DB0120009094
:105A700015E0622C02DB0220009010E02A2C02DBF1
:105A8000032000900BE0142C02DB0420009006E0C1
:105A90000A2C02DB0520009001E0062000900E4851
:105AA000C07A9DF80010884201D10020DBE70A4A45
:105AB00012689178084A526810786B460122FBF709
:105AC00031FE10B14FF0FF30CDE79DF800100248D5
:105AD000C1720020C7E700000400002038B504466A
