:020000040800F2
:100000005805002001010008511800080B120008D3
:100010004D180008610B0008FF2C000800000000CC
:10002000000000000000000000000000F91F0008B0
:10003000650B000800000000E11E0008F523000821
:100040001B0100081B0100081B0100081B01000820
:100050001B0100081B0100081B0100081B01000810
:100060001B0100081B0100081B0100081B01000800
:100070001B0100081B0100081B0100081B010008F0
:100080001B0100081B0100081B0100081B010008E0
:100090001B0100081B0100081B0100081B010008D0
:1000A0001B0100081B0100081B0100081B010008C0
:1000B0001B0100081B0100081B0100081B010008B0
:1000C0001B0100081B0100081B0100081B010008A0
:1000D0001B010008852A00081B0100081B010008FD
:1000E000AD0B00081B0100081B010008DFF80CD055
:1000F00000F088FC00480047B14E00085805002079
:100100000648804706480047FEE7FEE7FEE7FEE7B1
:10011000FEE7FEE7FEE7FEE7FEE7FEE7F92300085D
:10012000ED0000082DE9F0410024061B254671F181
:10013000000605DA01240027D0EB070067EB010178
:10014000161E73F1000605DA0027D2EB070201251F
:1001500067EB030300F040FB86460E4617469C46BD
:10016000AC4204D00025D0EB050E65EB010624B1AE
:100170000020D2EB000760EB030C704631463A4694
:100180006346BDE8F081D2B201E000F8012B491EC0
:10019000FBD270470022F6E710B513460A46044624
:1001A0001946FFF7F0FF204610BD10B5002200E011
:1001B000521C835C8C5CA34201D1002BF8D1D8B2D5
:1001C000E1B2401A10BD30B504460020034600E0FD
:1001D0005B1C934203D2E05CCD5C401BF8D030BD89
:1001E000F0B480EA0102D40F4200B2EB410F02D218
:1001F0000246084611464A0042D0C30DDDB2C1F3A3
:10020000C752AD1A202D35DAC1F3160141F40002B0
:1002100004B15242C5F1200602FA06F12A41104407
:10022000B3EBD05F23D0C4B1012DA0EBC35009DCE8
:10023000F0BC4FF0004202EAC352DBB200F500000E
:1002400000F025BB400000F1807000EBC350A0F12E
:10025000807040EAD170490009E0490841EAC07164
:10026000A0EBC35000F50000400800EBC350F0BC09
:1002700000F004BB6142012202EB4101001BF6E7E2
:10028000F0BC704781F00041AAE780F00040A7E78A
:1002900080EA010210B502F00043400022D04A007B
:1002A0001FD0010E01EB1261C0F35600C2F35602DB
:1002B00040F4000042F40002A0FB022000047F3959
:1002C000140400D0401C50EA124001D44000491EE2
:1002D000C2B20C0604EBD010401C4008802A02D0A9
:1002E00003E0002010BD20F00100002900DA00200A
:1002F000184310BD30B480EA010202F0004530F02E
:10030000004221F0004013D090B1C30DD40DC2F3D0
:100310001601C0F31600E41A41F4000140F4000293
:100320007D34914201D3641C00E04900002C02DAC4
:1003300030BC002070474FF400000023914201D3ED
:10034000891A034340084FEA4101F7D151B1914264
:1003500002D14FF0004105E002D24FF0010101E06F
:100360006FF0010103EBC450284430BC00F086BAA2
:100370002DE9FE4F804681EA0300C00F0C46009035
:1003800021F0004123F00045B8EB0200A94105D25D
:100390004046214690461C460B46024623F000404C
:1003A000104347D0270DC7F30A00C3F30A51029048
:1003B000401A019040286BDAC3F3130040F4801B0D
:1003C0000098924620B10023D2EB030A63EB0B0B9B
:1003D00001985946C0F14002504600F02EFA0646F8
:1003E0000D4650465946019A00F036FA10EB0800C7
:1003F0006141002487EA115284EAE7731A4340D02E
:10040000009A62B3019A012A4FEA075215DC001BD9
:1004100061EB02014FF0004202EA0752CDE90042CF
:10042000001C41F5801132462B4600F06DFA03B0F6
:10043000BDE8F08F40462146F9E7001B61EB020161
:10044000001C41F5801300185B412018A2F500172D
:1004500047EB030140EAD570B6196D4111E06D0814
:100460004FEA360645EAC0754FEA0752001B61EBBA
:100470000201001C41F5801149084FEA30000019C3
:10048000514132462B4603B0BDE8F04F00F02DBA83
:100490000098012240000023D0EB020263EBE073DE
:1004A000009821464FEAE074B8EB000061EB0401CC
:1004B000E9E783F000435BE781F0004158E72DE96D
:1004C000FE4F81EA030404F0004421F0004100944F
:1004D0004FF0000B23F0004350EA01045ED052EAD3
:1004E00003045BD0C3F30A54C1F30A552C44A4F2AD
:1004F000F3340194A0FB0254C1F3130141F48011C1
:10050000C3F3130343F4801301FB024400FB034EC7
:10051000840A970A44EA815447EA8357A4FB076890
:1005200002958D0A05FB07854FEA932C04FB0C54BA
:100530002705029D4FEA065847EA1637B5EB08052E
:100540006EEB070C870E920E47EA811742EA831280
:10055000A7FB0201B6EB0B0164EB00042B0D43EA91
:100560000C335E1844EB1C50DA465146E7FB02019F
:10057000C5F313044FEA0B3343EA14534FEA043232
:10058000019C43EA0603A4F10C040294009CCDE90B
:1005900000B400F0B9F903B0BDE8F08F00200146C7
:1005A000F9E72DE9F04D81EA030404F0004B21F056
:1005B000004514464FF0000A23F0004150EA0502BE
:1005C00020D054EA01021DD0C5F30A570246C5F3F4
:1005D0001303C1F31300C1F30A5640F4801543F42A
:1005E0008013A7EB0608101BD64608F2FD3873EB04
:1005F000050002D308F1010801E092185B41B8F14F
:10060000000F03DA00200146BDE8F08D00204FF412
:100610008011064684460EE0171B73EB050705D3D1
:10062000121B63EB050306434CEA010C49084FEA31
:10063000300092185B4150EA0107EDD152EA030005
:1006400012D082EA040083EA0501084305D0101B9A
:10065000AB4106D20122002306E000224FF0004306
:1006600002E06FF0010253101AEB06004CEB085148
:1006700010EB0A0041EB0B01BDE8F04D00F035B97D
:10068000C10F80EAE0700844CA079623002100F0F9
:10069000FEB896230022114600F0F9B800F000429F
:1006A00020F00040C10DC0F3160040F400007F2987
:1006B00001DA00207047962903DCC1F19601C84099
:1006C00001E096398840002AF4D04042704720F07B
:1006D0000040C10DC0F3160040F400007F2901DA8C
:1006E00000207047962903DCC1F19601C84070478D
:1006F00096398840704700F0004230F000400AD040
:10070000C10D01F56071C0F3160042EA0151C20843
:1007100040071143704700200146704730B5041E62
:1007200071F1000404DB4FF00044404264EB01012E
:10073000141E73F1000405DB1C464FF000435242C7
:1007400063EB0403994208BF904230BD01F00043BF
:1007500030B421F0004150EA010206D00A0DA2F5A2
:100760006072C1F31301002A02DC30BC0020704724
:10077000440F44EAC104C100E01830BC00EBC25091
:1007800000F07CB8002801DBC0F10040002901DB4B
:10079000C1F1004181427047002801DBC0F10040F7
:1007A000002901DBC1F100418842704730B50B469A
:1007B000014600202022012409E021FA02F59D4291
:1007C00005D303FA02F5491B04FA02F52844151E65
:1007D000A2F10102F1DC30BD2DE9F05F05460020F9
:1007E00092469B4688460646814640241BE02846A2
:1007F00041464746224600F017F953465A46C01A6A
:10080000914110D311461846224600F016F82D1AD1
:1008100067EB01084F4622460120002100F00DF849
:1008200017EB00094E41201EA4F10104DFDC48460D
:1008300031462A464346BDE8F09F202A04DB203A91
:1008400000FA02F1002070479140C2F1200320FA23
:1008500003F3194390407047202A06DBCB17203A58
:1008600041FA02F043EAE07306E041FA02F3D040B5
:10087000C2F1200291400843194670470029A8BFE1
:100880007047401C490008BF20F00100704710B4B9
:10089000B0FA80FC00FA0CF050EA010404BF10BC6E
:1008A000704749B1CCF1200421FA04F411FA0CF19B
:1008B00018BF012121430843A3EB0C01CB1D4FEAD4
:1008C00000614FEA102042BF002010BC704700EBCF
:1008D000C35010440029A4BF10BC7047401C4900FD
:1008E00008BF20F0010010BC704710B5141E73F152
:1008F000000408DA401C41F1000192185B411A43E0
:1009000001D120F0010010BD2DE9F04D92469B462B
:1009100011B1B1FA81F202E0B0FA80F220329046D1
:10092000FFF78BFF04460F4640EA0A0041EA0B013D
:1009300053465A46084313D0114653EA010019D0D2
:10094000C8F14002504600F06FF805460E4650468A
:1009500059464246FFF771FF084305D0012004E0E5
:1009600020463946BDE8F08D0020054346EAE07692
:100970002C4337430A986305E40AA0EB08000022E1
:10098000FD0A44EA47540A3002D500200146E9E74F
:10099000010510196941DDE9084500196941BDE803
:1009A000F04DA2E770B521F0004303430CD0C1F332
:1009B0000A550024D5EB040564EB0403D617AD1AE1
:1009C000B34102DB0020014670BD201841EB02510B
:1009D00070BDC1F30A52C1F3130140F2FF3341F479
:1009E00080119A4202DA00200146704740F23343F8
:1009F0009A42A2F2334202DC524200F015B8FFF7ED
:100A00001CBF0000064C074D06E0E06840F0010303
:100A100094E8070098471034AC42F6D3FFF76AFB1E
:100A200098770008B8770008202A04DB203A21FADA
:100A300002F00021704721FA02F3D040C2F12002F7
:100A400091400843194670472DE9F04D00231A469E
:100A50001B1A8A4103DB00200146BDE8F08DC1F37B
:100A60000A52C1F3130141F480154FF0000BD10776
:100A700002D100186D41521E0027044640F2FF11BA
:100A8000384601EB620A3E468046024600204FF49B
:100A90008011FFF7C9FFC2197141BB1846EB010075
:100AA000B4EB030C75EB000C04D3E41A65EB000502
:100AB00017460E46241908F101006D41804634287E
:100AC000E3DDF91946EB0600091BA84103D24FF0FC
:100AD000FF32134601E0002213461BEB070046EBF2
:100AE0000A51BDE8F04DFFF700BF00002DE9F041CD
:100AF0000446D4E90710FFF7C5FB164908601648FD
:100B0000B0F90000FFF7BCFD0746A168FFF7C0FB86
:100B10000546104920680968FFF7BAFB06462946D2
:100B2000FFF7B0FBA0610021A069FFF735FE04D8F4
:100B30000A49A069FFF754FBA0610021A069FFF7F3
:100B400021FE04D20549A069FFF79CFBA061BDE826
:100B5000F0810000880000204C00002000007A4551
:100B600000BFFEE7704700B5034603E04FF47A701C
:100B700000F005F8181EA3F10103F7D100BD00EB4A
:100B8000C001C9004FF0E0225161002191610521AF
:100B9000116100BF4FF0E021096901F480310029A3
:100BA000F8D004214FF0E022116170472DE9F041A7
:100BB0004FF4805000F068F901287AD1000300F06A
:100BC0005DF9904A9049914804F080FA8E48006897
:100BD0008F4908628F4A9049904800F093FB9048F3
:100BE00001F01CFF0446FFF74BFD8E4908608E485C
:100BF00001F014FF0446FFF743FD8C4908608C4860
:100C00000078012807D14FF07E518A480068FFF72D
:100C100039FB8849086088480078012807D14FF0DF
:100C20007E5184480068FFF7DBFA824908608048FB
:100C3000007828B98048007810B980487D4908605C
:100C40007F497C480068FFF7A7FD01D27C4809E096
:100C50007C4978480068FFF795FD01D2794801E0AA
:100C6000744800687349086077480078012807D104
:100C70004FF07E5175480068FFF704FB7349086028
:100C800073480078012807D14FF07E516F48006803
:100C9000FFF7A6FA6D4908606B48007850B96C48B8
:100CA000007838B90020694908606A486A490860D4
:100CB0000BE0A4E064480078012803D06448007881
:100CC000012802D100206449086064495F48006837
:100CD000FFF762FD01D2614809E061495B480068A5
:100CE000FFF750FD01D25E4801E0584800685749BF
:100CF000086050480068464988634C480268494883
:100D00000168434801F008FB4149486BFFF7F3FCD9
:100D10000646544A544BFFF7CCFB0446FFF716FD3A
:100D20003B49C8610846FFF7E1FE39488069384908
:100D30000864086C4D49FFF72FFD03D24B48344936
:100D4000086408E03249086C4949FFF71BFD02D2EC
:100D500047482F4908642C480068FFF7CCFC06463A
:100D6000404A414BFFF7A5FB04460022414BFFF7E9
:100D7000D5FC14D324480068FFF7BDFC0646394A69
:100D8000394BFFF799FB044600223A4BFFF7C6FCAC
:100D900005D300211C480068FFF7F4FC05D10020B2
:100DA0001B4908643449086029E000F0E9F9274844
:100DB0000068FFF773FC074601F03EFE0646144844
:100DC000016C3046FFF761FA0546FFF780FC84B2FC
:100DD000204601F075F81D480068FFF75FFC0746E4
:100DE00001F02AFE06460A48016C3046FFF7F8F982
:100DF0000546FFF76CFC84B2204601F069F8BDE8B7
:100E0000F08100005C000020580000205400002009
:100E100010010020500000204E0000204C00002057
:100E2000002C01406000002000040040640000200D
:100E300068000020700000206B0000200000A0402F
:100E400000007041000070C16900002074000020A3
:100E50006A000020CDCCCC3E800000200000204164
:100E6000000020C1CDCCCCCCCCCC004000C0DA45B9
:100E700000C0DAC500004440840000200149086039
:100E8000704700001404014001460020034A126824
:100E90000A400AB1012000E000207047140401401C
:100EA000002123498279002A3AD00A461268036851
:100EB0009A430B461A600A1D126803689A430B1D79
:100EC0001A60027911440A6803681A430A60184AD2
:100ED0000832126803689A43154B08331A601A1DCA
:100EE000126803689A43124B0C331A604279102A35
:100EF0000ED11A1F126803681A430D4B08331A608B
:100F00001A1D126803681A43094B0C331A600DE06E
:100F10000749427911440A6803681A430A6005E0E8
:100F2000027911440A6803689A430A607047000016
:100F30000004014000B587B00121C80200F0E2FFC3
:100F40000121022000F0CEFF0121042000F0DAFF91
:100F500048208DF81B004FF47070ADF81800032086
:100F60008DF81A0006A9274800F072F80020ADF8A5
:100F70001200ADF80E004FF6FF70ADF81000002023
:100F8000ADF80C008DF8140003A91F4801F0F4FC23
:100F900003A91E4801F0F0FC684601F003FC0020A4
:100FA000ADF800000F20ADF808006946164801F0C2
:100FB000A3FB6946154801F09FFB0420ADF8000033
:100FC0000F20ADF8080069460F4801F095FB69460F
:100FD0000E4801F091FB00231A4603210A4801F054
:100FE00067FB00231A460321084801F061FB012139
:100FF000054801F051FB0121044801F04DFB07B009
:1010000000BD000000080140002C01400004004029
:1010100030B500228B071C0F0F2303FA04F20B4B91
:101020008C1053F824309343084C8D1044F825302D
:1010300023468C1053F824308C07240F00FA04F454
:101040002343024C8D1044F8253030BD0800014088
:101050002DE9F0410246002500260020002300244F
:10106000002791F803C00CF00F0591F803C00CF0B5
:10107000100CBCF1000F03D091F802C04CEA05053A
:1010800091F800C0BCF1000F31D0146800202BE0B3
:101090004FF0010C0CFA00F3B1F800C00CEA0306A3
:1010A0009E4220D183004FF00F0C0CFA03F7BC4393
:1010B00005FA03FC4CEA040491F803C0BCF1280FC4
:1010C00006D14FF0010C0CFA00FCC2F814C00AE083
:1010D00091F803C0BCF1480F05D14FF0010C0CFA98
:1010E00000FCC2F810C0401C0828D1D31460B1F82D
:1010F00000C0BCF1FF0F34DD546800202EE000F189
:10110000080C4FF0010808FA0CF3B1F800C00CEA23
:1011100003069E4221D183004FF00F0C0CFA03F717
:10112000BC4305FA03FC4CEA040491F803C0BCF18B
:10113000280F05D100F1080C08FA0CF8C2F8148049
:1011400091F803C0BCF1480F07D100F1080C4FF033
:10115000010808FA0CF8C2F81080401C0828CED309
:101160005460BDE8F0810246002093680B400BB14B
:10117000012000E000207047416170470161704725
:1011800010B51D49086C0021FFF706FB16D200229E
:101190004FF48051194800F033F8012251031748E9
:1011A00000F02EF800224FF48041144800F028F897
:1011B0000122D103114800F023F81BE00E49086C0E
:1011C0000021FFF7DFFA15D2012211030B4800F0CE
:1011D00017F800224FF40051084800F011F80122DE
:1011E0009103064800F00CF800224FF40041034838
:1011F00000F006F810BD000010010020000C0140B6
:101200000AB1016100E04161704700BFFEE70000E4
:1012100008B50121082000F075FE10208DF80300AC
:101220004FF47040ADF8000003208DF802006946CD
:101230000648FFF70DFF4FF420410448FFF79EFFDB
:101240004FF4A0410148FFF797FF08BD000C014093
:1012500010B500F0D7FB00F0D9FDFFF76BFE084892
:1012600000F0A7FDFFF7D4FF00F076FF01F076FD58
:1012700000F0C0F904F03CF800F004F810BD0000E4
:10128000100100201FB50121042000F03BFE0121C8
:10129000084600F037FE4FF48050ADF800004820BB
:1012A0008DF8030003208DF8020069461448FFF70B
:1012B000CFFE0C210020FFF7ABFE4FF480500290D0
:1012C00000208DF80C000C208DF80D0001208DF809
:1012D0000E0002A8FFF7E4FD4FF4A06000F0F2FA60
:1012E00028208DF8040000208DF805008DF80600F8
:1012F00001208DF8070001A800F0ACFA1FBD000026
:10130000000801402DE9FC4104460D4616466B4697
:1013100006224321682000F0C3F90746BFB99DF8B3
:1013200001009DF8001040EA012000B220809DF8E5
:1013300003009DF8021040EA012000B228809DF8C9
:1013400005009DF8041040EA012000B230803846C4
:10135000BDE8FC8110B500200E4908600E48006809
:1013600020F470400C4908600846006840F4405082
:10137000086000200949C1F8AC0100F011F8012013
:101380000449086000F00CF800200449C1F8A801E5
:1013900010BD0000A8812142040C014000802142C0
:1013A00010B50220FFF7EBFB10BD000008B50121CE
:1013B000084600F0A7FD0121082000F0A3FD4FF42E
:1013C0004060ADF8000010208DF8030003208DF878
:1013D000020069460448FFF73BFE4FF440610248B3
:1013E000FFF7CCFE08BD0000000C014010B5002046
:1013F0000E4908600E48006820F470400C490860EF
:101400000846006840F44050086001200949C1F8CE
:10141000AC01FFF7C5FF012004490860FFF7C0FFDA
:1014200000200449C1F8A80110BD0000A881214294
:10143000040C01400080214270B505460024164886
:10144000006820F47040144908600846006840F4C1
:1014500000400860002614E0002010490860FFF7F3
:101460009FFF01200E49C1F8A8016006040E0B4839
:101470007C38006808B1601CC4B2FFF791FF701C93
:10148000C6B2082EE8DB15B9FFF7B0FF01E0FFF7A1
:1014900061FF204670BD0000040C0140A88121427C
:1014A0000080214270B504461248006820F4704064
:1014B000104908600846006840F440500860002069
:1014C0000D490860002512E0E0090B49091D08607C
:1014D0006006040E01200949C1F8A801FFF760FF6A
:1014E000002005490860FFF75BFF681CC5B2082DA6
:1014F000EADB70BD040C0140A8812142008021423A
:1015000010B50E48006820F470400C490860084689
:10151000006840F44050086001200949086009490A
:10152000C1F8A801FFF73CFF002005490860FFF75C
:1015300037FF00200349C1F8A80110BD040C014089
:10154000AC8121420080214210B50E48006820F491
:1015500070400C4908600846006840F4405008603C
:101560000020094908600949C1F8AC01FFF718FFDC
:101570000120054908600549C1F8AC01FFF710FFDB
:1015800010BD0000040C0140A881214200802142CE
:1015900010B500241448006820F470401249086017
:1015A0000846006840F40040086001200F490860C8
:1015B000FFF7F6FE01200E49C1F8A801FFF7F0FE83
:1015C00007E0601CC4B2FA2C03DDFFF7BDFF012069
:1015D00010BD0648803800680028F2D10349091F71
:1015E000086000BFF4E70000040C0140AC81214218
:1015F0000080214210B5FFF7D9FE80216B2000F05A
:10160000D3F86420FFF7AFFA00216B2000F0CCF88C
:10161000032000F087F8002000F07CF8642000F040
:10162000A6F80021382000F0BFF800216A2000F061
:10163000BBF80021232000F0B7F8752000F013F864
:101640000446682C0BD101216B2000F0ADF800217D
:101650006C2000F0A9F8322000F089F801E00120A8
:1016600010BD0020FCE770B50446FFF749FFD0200D
:10167000FFF718FFFFF78CFF2046FFF713FFFFF778
:1016800087FFFFF73DFFD120FFF70CFFFFF780FF3B
:101690000020FFF7D1FE0546FFF756FF284670BD34
:1016A0002DE9F04106460F4614461D46FFF728FF78
:1016B000002141EA4601C8B2FFF7F4FEFFF768FFD8
:1016C00020B1FFF741FF0120BDE8F0813846FFF768
:1016D000E9FEFFF75DFFFFF713FF012101EB460174
:1016E000C8B2FFF7DFFEFFF753FF0DE0012C04D176
:1016F0000020FFF7A1FE287003E00120FFF79CFE09
:101700002870601EC4B26D1C002CEFD1FFF71CFFC7
:101710000020D9E710B50446E006010E1C2000F0B9
:1017200043F810BD10B50446E006010E1B2000F082
:101730003BF810BD70B504460025BC2C01DB01252B
:1017400010E0622C01DB02250CE02A2C01DB0325D2
:1017500008E0142C01DB042504E00A2C01DB05253C
:1017600000E0062529461A2000F01EF870BD70B56D
:101770000446B4F57A7F01DD4FF47A74042C00DA64
:1017800004244FF47A7090FBF4F0401EC5B2294651
:10179000192000F009F80546264604EBD671C1F37E
:1017A0004F00FFF7C7FF70BD70B505460C46FFF749
:1017B000A7FED020FFF776FEFFF7EAFE18B1FFF78D
:1017C000C3FE012070BD2846FFF76CFEFFF7E0FE68
:1017D0002046FFF767FEFFF7DBFE18B1FFF7B4FE08
:1017E0000120EFE7FFF7B0FE0020EBE72DE9F04125
:1017F00005460E4617469846FFF782FE002141EA4D
:101800004501C8B2FFF74EFEFFF7C2FE20B1FFF759
:101810009BFE0120BDE8F0813046FFF743FEFFF755
:10182000B7FE00240CE018F80400FFF73BFEFFF7BA
:10183000AFFE18B1FFF788FE0120EBE7601CC4B2D1
:10184000BC42F0DBFFF780FE0020E3E700BFFEE7CD
:101850007047000070B5002100230F22C47804B344
:10186000154C246804F4E064C4F5E064210AC1F175
:101870000403CA40447804FA03F1847814402143F5
:1018800009010E4C0678A155047804F01F050124C7
:10189000AC4005786D11AD0005F1E025C5F80041BB
:1018A00009E0047804F01F050124AC40044D0678DB
:1018B000761145F8264070BD0CED00E000E400E034
:1018C00080E100E002490143024A116070470000D4
:1018D0000000FA050CED00E070B500240EE00021D8
:1018E000204600F0F0F8002504E0002000F051FA56
:1018F000681CC5B2802DF8DB601CC4B2082CEEDB7E
:1019000070BD000008B50121082000F0FBFA14208A
:101910008DF8030003208DF802004FF48070ADF8BD
:10192000000069460A48FFF793FB4FF40070ADF8DA
:10193000000069460648FFF78BFB012211020448AC
:10194000FFF75EFC012251020148FFF759FC08BD78
:10195000000C014070B50546002415E080202041B0
:1019600000EA05024FF400710E48FFF749FC01221E
:1019700011020C48FFF744FC00224FF48071094823
:10198000FFF73EFC601CC4B2082CE7DB0122110209
:101990000448FFF735FC00224FF480710148FFF73F
:1019A0002FFC70BD000C014010B5012251020A4805
:1019B000FFF726FC012211020748FFF721FC002255
:1019C0004FF400710448FFF71BFC00224FF48071B4
:1019D0000148FFF715FC10BD000C014010B50022B6
:1019E0004FF400710648FFF70BFC01221102044876
:1019F000FFF706FC012251020148FFF701FC10BD70
:101A0000000C014070B5002406E0002500E06D1CCC
:101A1000B5F57A7FFBD3641CB4F57A7FF5D3FFF775
:101A200071FFAE2000F0A5F9D52000F0A2F98020CA
:101A300000F09FF9A82000F09CF93F2000F099F9F0
:101A4000D32000F096F9002000F093F9402000F038
:101A500090F9A12000F08DF9C82000F08AF9DA2071
:101A600000F087F9122000F084F9812000F081F95C
:101A7000CF2000F07EF9D92000F07BF9F12000F0B2
:101A800078F9DB2000F075F9302000F072F9A4201D
:101A900000F06FF9A62000F06CF98D2000F069F9D4
:101AA000142000F066F9AF2000F063F9FFF714FF8F
:101AB00070BD10B50246012000E050430B1EA1F19D
:101AC0000101FAD110BD70B505460C4645F0B000D5
:101AD00000F04FF9102141EA141000F04AF904F027
:101AE0000F0000F046F970BD2DE9F04105460E46A5
:101AF0001746721ED206110E6A1E5206100EFFF70E
:101B0000E2FF002409E0A7F12001134A02EB0111D2
:101B1000085D00F03EF9601CC4B2082CF3DB721EB5
:101B2000D206110E6A1E012303EB4202D0B2FFF768
:101B3000CAFF00240BE0A7F12001074A02EB0112C3
:101B400004F10801505C00F024F9601CC4B2082CB8
:101B5000F1DBBDE8F08100001C6400082DE9FF4FB7
:101B600083B00C4615461E46DDF840902846FEF729
:101B700095FD07463846FEF783FD83462946FEF766
:101B800084FB804600212846FEF706FE0CD82B2257
:101B900021460398FFF7A8FF601CC1B233463A46BE
:101BA000039800F036F80CE07F422D22214603987E
:101BB000FFF79AFF601CC1B233463A46039800F023
:101BC00028F800214046FEF7DDFD01D288F00048EC
:101BD00049460A20FFF76DFF0190FEF75AFD414686
:101BE0000290FEF755FB8346FEF758FD8246A0198A
:101BF000401CC1B22E220398FFF776FFA019801C6B
:101C0000C1B24B465246039800F003F807B0BDE856
:101C1000F08F2DE9F04780460E4617461D460024FA
:101C200015E0281B411E0A20FFF743FFB7FBF0F029
:101C30000A21B0FBF1F201FB120000F1300930196A
:101C4000C1B24A464046FFF74FFF601CC4B2AC42E7
:101C5000E7DBBDE8F087000008B5022003460090EE
:101C60001948072102680120FFF778FF052317486C
:101C7000B0F900200721022000F034F801231448B5
:101C8000027819460320FFF7C4FF012311480278A8
:101C900003210846FFF7BDFF01230F480278052105
:101CA0000320FFF7B6FF01230C4802780721032029
:101CB000FFF7AFFF02200090094804230921826B3F
:101CC0000320FFF74BFF08BD580000204C00002008
:101CD000680000206B000020690000206A000020DE
:101CE000100100202DE9F0478146884615461E4622
:101CF000002D06DB2B2241464846FFF7F5FE2F4616
:101D000005E02D2241464846FFF7EEFE6F420024D3
:101D100017E0301B411E0A20FFF7CBFEB7FBF0F0A7
:101D20000A21B0FBF1F201FB120000F1300A08EBCE
:101D30000400401CC1B252464846FFF7D5FE601C65
:101D4000C4B2B442E5DBBDE8F0872DE9F0410746B7
:101D50000E461546002407E02A5D3019C1B2384608
:101D6000FFF7C2FE601CC4B2285D0028F4D1BDE8B4
:101D7000F08110B50446FFF717FE7820FFF7EAFD63
:101D80000020FFF7E7FD2046FFF7E4FDFFF726FE02
:101D900010BD10B50446FFF707FE7820FFF7DAFD07
:101DA0004020FFF7D7FD2046FFF7D4FDFFF716FED2
:101DB00010BD002101608160C16041618161C1612C
:101DC000016241628162C162016341638163C163F7
:101DD0000164704710B50446074820600748A060BA
:101DE000074860620749606AFEF784FAA062064805
:101DF0000068A06310BD0000000048C38FC2B53F5B
:101E0000E17A543F00005C437000002000B589B0C7
:101E10000121084600F066F80121042000F072F864
:101E200018208DF823000320ADF820008DF8220043
:101E300008A92248FFF70CF94FF0804000F0BBFCE6
:101E40000020ADF81A00ADF8160041F61F40ADF8BD
:101E500018000020ADF814008DF81C0005A94FF003
:101E6000804000F089FD01A800F04AFD6020ADF837
:101E700004000020ADF80C000120ADF806000020A1
:101E8000ADF80A0001A94FF0804000F09BFC6020F3
:101E9000ADF804000020ADF80C000120ADF80600FC
:101EA0000020ADF80A0001A94FF0804000F0D6FCF8
:101EB0000121880700F0F0FB09B000BD00080140D7
:101EC00010B5044621464FF0804000F023FD10BDC0
:101ED00010B5044621464FF0804000F01DFD10BDB6
:101EE0007047000029B1064AD2690243044BDA6107
:101EF00004E0034AD2698243014BDA617047000073
:101F00000010024029B1064A92690243044B9A61CB
:101F100004E0034A92698243014B9A6170470000D2
:101F20000010024030B500210022002400232D4D76
:101F30006D6805F00C0121B1042905D0082923D1D1
:101F400005E0294D056022E0274D05601FE0254D85
:101F50006D6805F47012234D6D6805F48034022518
:101F600005EB92421CB9214D554305600BE01D4D18
:101F70006D6805F400351DB11C4D5543056002E048
:101F8000194D5543056002E0174D056000BF00BFC5
:101F9000144D6D6805F0F0010909154D6B5C05687D
:101FA000DD4045600F4D6D6805F4E061090A104D94
:101FB0006B5C4568DD4085600A4D6D6805F46051D5
:101FC000C90A0B4D6B5C4568DD40C560054D6D6809
:101FD00005F44041890B074D6B5CC568B5FBF3F513
:101FE000056130BD0010024000127A0000093D007A
:101FF00000000020100000207047000010B532489B
:10200000007801285CD131A13148FEF7CEF868B9DB
:1020100001203049087000202F4908702F490870AE
:102020002F4908702FA000F0AFFE46E033A12848EA
:10203000FEF7BBF870B90020264908700120264938
:102040000870002025490870254908702CA000F070
:102050009BFE32E02FA11E48FEF7A7F870B90020C2
:102060001C4908701C49087001201C490870002098
:102070001B49087028A000F087FE1EE02CA1144820
:10208000FEF793F868B900201249087012490870E9
:102090001249087001201249087026A000F074FE51
:1020A0000BE000200B4908700B4908700B490870C1
:1020B0000B49087024A000F067FE00200249087058
:1020C0002448007810BD00006C000020770000005C
:1020D000AC00002068000020690000206A00002099
:1020E0006B000020436F6D6D616E645F476F20462B
:1020F0006F72776172640D0A0000000061000000D9
:10210000436F6D6D616E645F5475726E204C6566D1
:10211000740D0A0064000000436F6D6D616E645FB2
:102120005475726E2052696768740D0A00000000D1
:1021300073000000436F6D6D616E645F476F2042F6
:1021400061636B0D0A0000004E6F205369676E617A
:102150006C0D0A006D00002000B587B001218803D6
:10216000FFF7D0FE01210420FFF7CCFE18208DF8E8
:102170001B004FF40070ADF8180003208DF81A0012
:1021800006A92148FEF764FF48208DF81B004FF494
:102190008060ADF8180003208DF81A0006A91A48CF
:1021A000FEF756FF4FF4165002900020ADF81400D1
:1021B0000C20ADF812000020ADF81000ADF80E00B4
:1021C000ADF80C0002A9114800F024FD012240F2F4
:1021D00025510E4800F0F8FC4FF4A060FFF772FBA9
:1021E00025208DF8040001208DF807008DF80500EA
:1021F0008DF8060001A8FFF72DFB0121034800F030
:10220000A0FC07B000BD00000008014000380140FC
:1022100010B504462146054800F06DFD00BF802141
:10222000024800F09AFC0028F9D010BD00380140A7
:1022300010B500F001F810BD0CB500200190009021
:102240003348006840F480303149086000BF3048AE
:10225000006800F4003000900198401C0190009844
:1022600018B90198B0F5A06FF1D12948006800F4C1
:10227000003010B10120009001E000200090009893
:10228000012843D12348006840F01000214908602C
:102290000846006820F0030008600846006840F027
:1022A000020008601A4840681949486008464068BA
:1022B00048600846406840F48060486008464068CE
:1022C00020F47C1048600846406840F4E8104860FC
:1022D0000846006840F08070086000BF0C48006845
:1022E00000F000700028F9D00948406820F0030091
:1022F000074948600846406840F00200486000BF57
:102300000348406800F00C000828F9D10CBD00001B
:1023100000100240002002402DE9FF4704460D4610
:10232000164631462846FDF75BFF0746A16BFDF7D1
:10233000A9FFE06328480068FEF7DDF907464FF083
:102340006632264BFEF7BBF881468A46E06BFEF705
:10235000D2F907464FF03332214BFEF7B0F84A4628
:102360005346CDE90001FEF703F8CDE90201FEF77F
:10237000EDF91C49086008460068174908601948CB
:10238000016819480068FDF72BFF174908601749D5
:1023900015480068FEF700FA02D214481249086096
:1023A000134911480068FEF7EDF902D210480E49B2
:1023B00008600D48A16A0068FDF76AFF07460948F2
:1023C000616A0068FDF764FF80463946FDF708FF43
:1023D0006063BDE8FF870000900000206666E63F6E
:1023E0003333D33F8C000020840000200000FA45E6
:1023F0000000FAC57047000010B51348006840F0AF
:1024000001001149086008464068104908400E491B
:102410004860084600680E4908400B4908600846B5
:10242000006820F4802008600846406820F4FE0020
:1024300048604FF41F008860FFF7FAFE4FF000601D
:102440000449086010BD0000001002400000FFF8C1
:10245000FFFFF6FE08ED00E0F0B50C461546002241
:102460000021068C4FF6FE773E400684028B018CDD
:102470004FF60C7632407E1C06EA03162E4332439A
:10248000104EB0420ED0104EB0420BD0B0F1804F83
:1024900008D00E4EB04205D00D4EB04202D00D4EC7
:1024A000B04206D14FF6FD76314044F0010631438B
:1024B00005E04FF6F576314044F0010631430283E2
:1024C0000184F0BD002C01400034014000040040B4
:1024D00000080040000C0040F0B50C4615460022F4
:1024E00000210026078C4FF6EF7C07EA0C070784D3
:1024F000028B018C4FF6FF7707EA041640F6FF4780
:102500003A404FF6FF7707EA03373A434FF6FF7733
:1025100007EA05273A43114FB8420ED0104FB84290
:102520000BD0B0F1804F08D00E4FB84205D00E4FFF
:10253000B84202D00D4FB84206D14FF6DF7739408E
:1025400046F01007394305E04FF65F77394044F015
:102550001007394302830184F0BD0000002C0140C4
:10256000003401400004004000080040000C00401E
:10257000F0B50C461546002200210026078C4FF6C8
:10258000FF6C07EA0C070784828B018C4FF6FF77FC
:1025900007EA04264FF60C773A404FF6FF7707EA32
:1025A00003172F433A43114FB8420ED0104FB84291
:1025B0000BD0B0F1804F08D00E4FB84205D00E4F6F
:1025C000B84202D00D4FB84206D14FF6FF573940FE
:1025D00046F48077394305E04FF2FF57394044F421
:1025E0008077394382830184F0BD0000002C0140D4
:1025F000003401400004004000080040000C00408E
:10260000F0B50C461546002200210026078C4EF638
:10261000FF7C07EA0C070784828B018C4FF6FF775B
:1026200007EA043640F6FF473A404FF6FF7707EADD
:1026300005273A434FF6FF7707EA03373A43114F2E
:10264000B8420ED0104FB8420BD0B0F1804F08D036
:102650000E4FB84205D00E4FB84202D00D4FB842CF
:1026600006D14DF6FF77394046F48057394305E0EF
:1026700047F6FF57394044F4805739438283018439
:10268000F0BD0000002C0140003401400004004077
:1026900000080040000C004021B1028842F0010215
:1026A000028004E002884FF6FE731A4002807047F1
:1026B000F0B50C4615461E46002100220023018974
:1026C000028B038C4FF6F877394021434FF6FC47D5
:1026D0003A4040F201173A434FF6DD773B404FF660
:1026E000FF7707EA06172F433B43018102830384E8
:1026F000F0BD0146888C704770B505460C462448ED
:1027000085420ED0234885420BD0B5F1804F08D0CA
:102710002148854205D02148854202D02048854283
:1027200000D100E000BF208850B92389A2886188C9
:102730002846FFF791FEE188284600F0F1F825E0F1
:10274000208804280AD12389A28861882846FFF7B7
:10275000C3FEE188284600F0ECF817E0208808283E
:102760000AD12389A28861882846FFF701FFE18802
:10277000284600F0EBF809E02389A2886188284602
:10278000FFF73EFFE188284600F0E9F870BD000041
:10279000002C0140003401400004004000080040CB
:1027A000000C004000210180418001218180002136
:1027B000C1800181704701894FF6F8721140018193
:1027C0007047000070B5002400220023058C4FF6EE
:1027D000FE7635400584028C8388048B4FF68F7516
:1027E0002C40B51E2C400D882C43751E2A400D89A7
:1027F0002A434D882A43144DA8420BD0134DA842BA
:1028000008D0134DA84205D0124DA84202D0124D57
:10281000A84213D14FF6F7752A404D892A434FF647
:10282000FB752A408D882A434FF6FF652B404FF6F3
:10283000FF552B408D892B43CD892B438380048307
:10284000CD888586028470BD002C01400034014093
:1028500000400140004401400048014070B50024A0
:1028600000220023058C4FF6EF7635400584028C5C
:102870008388048B48F6FF752C404FF6FF452C40AB
:102880000D884FF6FF7606EA05252C434FF6DF75D7
:102890002A400D8906EA05152A434D8806EA0515E2
:1028A0002A43154DA84202D0144DA8421DD14FF61F
:1028B0007F752A404D894FF6FF7606EA05152A43B3
:1028C0004FF6BF752A408D8806EA05152A434FF654
:1028D000FF352B404FF2FF752B408D8906EA8505A9
:1028E0002B43CD8906EA85052B4383800483CD885D
:1028F0000587028470BD0000002C014000340140B7
:102900000021018041808180C180018141818181DC
:10291000C181704781867047018770478184704705
:10292000028B4FF6F3731A400283028B0A43028331
:102930007047028B4FF2FF331A400283028B4FF62F
:10294000FF7303EA01231A4302837047828B4FF619
:10295000F3731A408283828B0A4382837047828B8F
:102960004FF2FF331A408283828B4FF6FF7303EAE4
:1029700001231A4382837047002202881D4B98422C
:102980000ED01D4B98420BD0B0F1804F08D01B4B9E
:10299000984205D01A4B984202D01A4B984204D163
:1029A0004FF68F731A404B881A43174B984207D043
:1029B000164B984204D04FF6FF431A40CB881A4377
:1029C00002808B8883850B8803850A4B98420BD045
:1029D000094B984208D00E4B984205D00D4B9842B7
:1029E00002D00D4B984201D10B7A038601238382DA
:1029F00070470000002C01400034014000040040FA
:102A000000080040000C004000100040001400408E
:102A100000400140004401400048014070B50446B8
:102A200000252046FFF765FE05B200212046FFF78E
:102A300075FF284670BD00002DE9F0410446204690
:102A4000FDF71EFE80460C4801684046FDF720FC5D
:102A500006460A48B0F90000FDF712FE8046084815
:102A600001684046FDF714FC07463146FDF7B8FB08
:102A700005462846BDE8F0817C000020500000207B
:102A80008000002010B540F22551214800F072F876
:102A900001283CD11E4800F029F9C4B21D48007835
:102AA00058B9402C2DD11C48007850BB0120194941
:102AB000087000201949087023E0164800780128A2
:102AC0000FD10D2C03D102201249087019E01448CF
:102AD00012490978445411480078401C0F49087085
:102AE0000FE00C48007802280BD10A2C09D10020F5
:102AF000084908700A49094A127888540120064991
:102B0000087040F22551024800F00CF800BF10BDDB
:102B1000003801406E0000206C0000206F00002093
:102B2000AC00002010B50022002340F66A14A14238
:102B300000D100BF0A1201249440A3B2DC430480F8
:102B400010BD21B1828942F40052828104E0828961
:102B50004DF6FF731A408281704702460020B1F59E
:102B6000007F00D100BF13880B400BB1012000E0B3
:102B70000020704770B50246002400230025002085
:102B800040F66A16B14200D100BFC1F3421501F010
:102B90001F03012606FA03F3012D02D19689334063
:102BA00006E0022D02D1168A334001E0968A3340B6
:102BB0000C12012606FA04F41688344013B10CB145
:102BC000012000E0002070BDF0B50346002400267F
:102BD0000025002040F66A17B94200D100BF184610
:102BE000C1F3421401F01F06012707FA06F5012C74
:102BF00001D10C3004E0022C01D1103000E014307F
:102C00001AB107682F43076002E00768AF43076007
:102C1000F0BD00002DE9F04786B005460E460024C1
:102C2000A24600BFA1460027B08900B100BF2F46D1
:102C30002C8A4CF6FF700440F08804432C82AC8947
:102C40004EF6F3100440B088318908437189084377
:102C50000443AC81AC8A4FF6FF400440B089044382
:102C6000AC8201A8FFF75EF91F48874202D1DDF868
:102C700010A001E0DDF80CA0A88900F4004040B1EC
:102C80000AEBCA0000EB0A1031684900B0FBF1F80A
:102C900007E00AEBCA0000EB0A1031688900B0FBBC
:102CA000F1F86420B8FBF0F004012009642101FB75
:102CB0001089A88900F4004040B1322000EBC9001F
:102CC000B0FBF1F000F00700044308E0322000EB15
:102CD00009106421B0FBF1F000F00F0004432C81D7
:102CE00006B0BDE8F0870000003801400146888842
:102CF000C0F308007047C1F308028280704700BF2C
:102D0000FEE7000010B50F490F480068FDF73AFDD7
:102D100017D20E490C480068FDF73EFD11D24FF462
:102D200000510B48FEF71FFA012801D1094908702C
:102D30004FF480410648FEF716FA012801D10649F2
:102D4000087010BD00009041580000200000A0C194
:102D5000001001406A0000206900002008B5012130
:102D60001020FFF7CFF848208DF803004FF4C04043
:102D7000ADF8000003208DF8020069460148FEF717
:102D800067F908BD001001400FB4054B10B503A949
:102D9000044A029800F05CF910BC5DF814FB0000D6
:102DA000F547000894000020490050EAC12018BFF0
:102DB00004204A0D18BF40F0010040F2FF72B2EB50
:102DC000515F08BF40F00200012808BF052070478E
:102DD0002DE9F0414F1E00EBC7010446D1E9000187
:102DE00015461E4637F006020DD02A463346FDF73B
:102DF00066FB7F1E04EBC703D3E90023FDF7B8FA97
:102E000037F00602F1D1022F25D0042F13D0062F60
:102E100018BFBDE8F0812A463346FDF750FBD4E9E0
:102E20000A23FDF7A5FA2A463346FDF748FBD4E905
:102E30000823FDF79DFA2A463346FDF740FBD4E907
:102E40000623FDF795FA2A463346FDF738FBD4E909
:102E50000423FDF78DFA2A463346FDF730FBD4E90B
:102E60000223FDF785FA2A463346FDF728FBD4E90D
:102E70000023BDE8F041FDF77BBA0122FDF792BDCA
:102E8000FDF776BA0022134610461146FDF789BBBE
:102E9000024A00201107FDF785BD000001FDFFFF7C
:102EA00002E008C8121F08C1002AFAD17047704713
:102EB000002001E001C1121F002AFBD17047000071
:102EC0000149086070470000980000202DE9FF5F6D
:102ED00082B00021DDE90430020DDDF840B003438B
:102EE00018D044F61050A2F2FF3242431514119844
:102EF00001281FD0A5EB0B00401C5FEA000A4FF031
:102F000000064E4FDFF83891B046504615D5CAF14D
:102F1000000413E0119801244AA3012801D16FEAAB
:102F20000B010298119AC0E90031C0E9024206B0D3
:102F3000BDE8F09FCBF10000DFE704460021404AE6
:102F4000491842EB0450CDE9001012E0E00707D029
:102F500032463B4640464946FDF7B1FA804689462F
:102F600032463B4610461946FDF7A9FA06460F467B
:102F70006410002CEAD1DDE90401DDE90023BAF197
:102F8000000F06DAFDF79BFA42464B46FDF797FA2B
:102F900005E0FDF706FB42464B46FDF702FB044603
:102FA0000E460022284BFDF7B9FB03D84FF0FF3047
:102FB000014607E00022254B20463146FDF7D8F9AF
:102FC000FDF707FD102409E0002C0ADB0A2200238C
:102FD000FDF702FC039B30321A55641E50EA0102D1
:102FE000F2D1641C039AC4F111031444119A012A0A
:102FF00003D0012208430DD10AE0084304D0002089
:103000004FF0110B119072E7A3EB0B056D1E0DE055
:103010005B4504DD4FF0000205F1010504E003DA31
:103020004FF00002A5F10105002AECD00298119999
:10303000C0E90231C0E9004579E700000000144012
:103040000000F03F300000000000F0430000E03FCF
:103050002DE9FF4F95B09B468946064600250FE2B5
:10306000252877D100242746F84A0121059400E05D
:10307000044316F8013F203B01FA03F01042F7D158
:1030800030782A2811D06FF02F033078A0F1300269
:10309000092A16D8059A44F0020402EB820203EBD7
:1030A00042021044761C0590EFE759F8042B059274
:1030B000002A03DA504244F40054059044F002041C
:1030C000761C30782E2816D116F8010F44F004042F
:1030D0002A280DD06FF02F023078A0F13003092B91
:1030E00009D807EB870302EB4303C718761CF3E705
:1030F00059F8047B761C30786C280FD006DC4C28FD
:1031000017D068280DD06A2814D104E0742810D094
:103110007A280FD10DE044F400140AE044F480143E
:1031200001E044F440147278824202D104F5801424
:10313000761C761C307866280BD013DC582877D0A4
:1031400009DC002875D04528F6D04628F4D0472859
:103150001AD19DE118E0632835D0642879D065281C
:1031600012D195E1702873D008DC6728F1D0692866
:103170006FD06E280DD06F2806D1B5E073282CD003
:10318000752875D0782874D05A46179990476D1CC9
:1031900075E1C4F30250022809D003280DD0D9F8F4
:1031A000001004280DD00D6009F1040967E1D9F879
:1031B0000010EA17C1E90052F6E7D9F800100D80B7
:1031C000F2E70D70F0E719F8041B8DF800100020ED
:1031D0008DF80100EA46012003E059F804AB4FF0F6
:1031E000FF3061074FF0000102D40DE008F101014A
:1031F0008846B9420FDA8045F8DB1AF80810002932
:10320000F4D108E008F1010188468142FADB1AF89E
:1032100008100029F6D105985B46A0EB0807214667
:103220003846179A00F094FA284400EB080507E0A6
:103230004DE029E10DE01AF8010B5A461799904725
:10324000B8F10108F7D25B4621463846179A13E1D8
:1032500042E00A220092C4F302524FF0000A022A0E
:1032600008D059F804CB032A4FEAEC710AD00DE0DC
:1032700029E02AE009F1070121F00702F2E802C182
:10328000914609E00FFA8CFC4FEAEC71042A03D155
:103290004FFA8CFC4FEAEC71002907DA0A4600214C
:1032A000DCF1000C61EB02012D2202E0220504D5C5
:1032B0002B228DF80420012203E0E20701D0202216
:1032C000F7E7904659E00A2102E010220DE01021B4
:1032D0004FF0000A00910BE010224FF0000A44F07A
:1032E00004040827009203E008224FF0000A00922D
:1032F000C4F30252022A05D059F804CB0021032A54
:1033000008D009E009F1070121F00702F2E802C143
:10331000914605E01FFA8CFC042A01D10CF0FF0C49
:103320004FF00008220728D5702806D0009B83F0B4
:10333000100353EA0A0305D00EE040228DF8042062
:10334000012208E05CEA010206D030228DF8042058
:103350008DF8050002229046009B83F0080353EA93
:103360000A030AD15CEA010201D1620705D53022C5
:103370008DF804204FF001087F1E582804D034A097
:1033800003900EA802900DE036A0F9E75346604680
:10339000009AFDF721FA84460398825C0298401E49
:1033A000029002705CEA0100F0D1029806A9081AA6
:1033B00000F1200A600702D524F4803400E00127E0
:1033C000574502DDA7EB0A0000E0002000EB0A01F0
:1033D000009005984144401A0590E00306D45B46EE
:1033E0002146179A059800F0B3F90544002706E036
:1033F00001A85A46C05D179990476D1C7F1C474530
:10340000F6DBE0030CD55B462146179A059800F0E1
:103410009FF9054404E030205A46179990476D1CE7
:103420000099481E00900029F5DC08E002980299F6
:103430005A460078491C0291179990476D1CBAF1C1
:103440000001AAF1010AF1DC65E100000928010090
:10345000303132333435363738396162636465660A
:1034600000000000303132333435363738394142CC
:10347000434445460000000000F058F90544761C1E
:10348000307800287FF4ECAD19B02846BDE8F08F05
:10349000620700D4062709F1070222F0070CFCE8B6
:1034A0000223E14603F000485FEA080C02D00FF265
:1034B000702C0DE05FEA045C02D50FF2682C07E087
:1034C0005FEAC47C02D00FF2602C01E0AFF2700C16
:1034D0004FF0FF3823F00043CDF850C065280CD0E2
:1034E00006DC452809D046281DD047283DD13DE0BF
:1034F000662818D067287ED138E00021112F01DB23
:10350000112000E0781CCDE9000106A90EA8FFF704
:10351000DDFCDDE90F010E9A03910021009207F115
:10352000010A04914DE04FF000400097CDE90110F1
:1035300006A90EA8FFF7CAFCDDE90F0203920E9B55
:1035400011990022DDF80CA00093049211B9791CA6
:1035500000EB010AB7EB0A0004D4C0F1FF3007F119
:10356000010A0490AAEB0700019044E0012F00DA61
:1035700001270021112F01DD112000E03846CDE99F
:10358000000106A90EA8FFF7A1FCDDE90F010E9AC4
:103590000391002104910092BA4621070CD40399AB
:1035A000514500DA8A46BAF1010F05DD009AAAF109
:1035B0000101515C302908D0B84202DA10F1040F41
:1035C00006DA0121CDE9011015E0AAF10101E9E7D0
:1035D000002805DC049901440491AAEB000102E0F3
:1035E000411C514500DD8A460499401A401C019057
:1035F0004FF000400290200704D40198504501DBB1
:10360000CDF8048000208DF84F0002980DF14F078F
:10361000B0F1004F25D02B200E9002984FF00208F9
:1036200000280CDA404202902D200E9007E00A217B
:103630000298FDF7BBF83031029007F8011DB8F190
:103640000001A8F10108F2DC02980028EFD1791EF0
:103650000E980870307800F0200040F0450007F820
:10366000020D12A8C01B00F107081498007800B1E1
:10367000012000EB0A01019801EBE071059841443B
:10368000401A401E0590E00306D45B462146179A77
:10369000059800F05DF805441498007818B15A4672
:1036A000179990476D1CE00324D55B462146179A75
:1036B000059800F04DF805441CE00498002807DB4D
:1036C000DDE90301884203DD0098405C179901E0C1
:1036D000179930205A469047049805F10105401C7F
:1036E00004900198401E019004D12E205A4617994B
:1036F00090476D1CBAF10001AAF1010ADDDC05E07A
:1037000017F8010B5A46179990476D1CB8F1000144
:10371000A8F10108F4DC5B462146179A0598ABE650
:103720002D0000002B000000200000002DE9F041DA
:10373000044600251E461746880404D405E0394691
:103740002020B0476D1C641EF9D52846BDE8F081E5
:103750002DE9F041044600251E469046C80301D5D8
:10376000302700E02027880404D505E0414638468C
:10377000B0476D1C641EF9D52846BDE8F0810000F5
:103780002DE9FE4F06460F460025684601F03AF83F
:10379000002442E056F8240057F82410A0EB010A58
:1037A000BAF1000F01DB514601E0CAF10001084601
:1037B000FCF766FF83464FF08F41FCF79BFD804688
:1037C0005DF824000021FCF7DDFF16D05DF8241021
:1037D0004046FCF78FFD82464FF07E51FCF752FDCC
:1037E000814629F0004A0F48416A5046FCF7D4FF51
:1037F00012D20120A04005430EE00A48C1694046AC
:10380000FCF7C0FF05D30748016A4046FCF7C4FF38
:1038100002D20120A0400543641C032CBADB2846D9
:10382000BDE8FE8F346A00082DE9F04D8D4F21F080
:10383000004A86B005460C46BA452ADBAAEB0700CB
:1038400028430AD08848824501DC1AD1CDB106B0A0
:103850002846BDE8F04DFFF710BB844A844B28464C
:10386000FCF72DFE07460E46824A834B284621462A
:10387000FCF725FE06B03A463346BDE8F04DFCF7AE
:1038800077BD0120FFF71CFB06B0BDE8F04DFFF748
:10389000F9BA7A48824542DABAF1795F0BDA2846FA
:1038A000FFF782FA042808BFFFF7F2FA284606B0AD
:1038B0002146BDE8F08D2A460B461046FCF7FFFD79
:1038C000834602466E480E460B4606217844FFF7B3
:1038D0007FFA5A463346FCF7F2FD804669488A462D
:1038E0005A46334604217844FFF772FA5A46334663
:1038F000FCF7E5FD00223B46FCF73AFD02460B468D
:1039000040465146FCF74DFE2A462346FCF7D7FDBC
:1039100006B02A462346BDE8F04DFCF729BD2846EF
:1039200024F0004100223D463B46FCF7C5FD4FF028
:10393000FF32FDF737F80646024653480F460B465E
:1039400006217844FFF744FA32463B46FCF7B7FDC0
:10395000CDE900014D4832463B4604217844FFF74B
:1039600037FA32463B46FCF7AAFD00222B46FCF70D
:10397000FFFC834602913046394602F029FD80461D
:1039800043480D46504517DCDDE900015A46029BCD
:10399000FCF707FE42462B46FCF791FD42462B46BC
:1039A000FCF7E6FC0122FCF7FDFF304A304BFCF748
:1039B00080FD304A304B4CE04FF0000A52460B4637
:1039C0004046FCF7D5FCCDE9031052462B46104685
:1039D0001946FCF774FD32463B46FCF76DFDDDE908
:1039E0000332FCF7DEFD06460F46DDE900015A46CC
:1039F000029BFCF7D6FD83460091012230463946F2
:103A0000FCF7D0FF194A1A4BFCF756FD06460F4645
:103A1000012240462946FCF7C5FF5A46009BFCF7A9
:103A20004EFD32463B46FCF744FD06460F4601225A
:103A300050462946FCF7B6FF0E4DDFF858802A465F
:103A40004346FCF739FD32463B46FCF735FD2A4636
:103A50004346FCF731FD002CD8BF81F0004106B091
:103A6000BDE8F08D0000F03F0000F07F075C1433EC
:103A700026A6913C182D4454FB21F93F0000E03F5D
:103A8000883D00009E3D0000123D0000283D0000E2
:103A90003333EF3FFB21E93F2DE9F84F04460D4654
:103AA00021F0004000917349814211DC7249884243
:103AB00001DC06D12CB120462946BDE8F84FFFF7BE
:103AC000DCB96E48002DCCBF6D496E49BDE8F88F5A
:103AD0006D49814211DD6D498142D8BF4FF0FF36FB
:103AE0006DDD20462946FFF75FF9042808BFFFF780
:103AF000CFF920462946BDE8F88F6549654F25F086
:103B00000045814233DD6449814219DD0026324699
:103B10004FF0804320462946FCF72AFC80468A461F
:103B2000012220462946FCF73DFF00223B46FCF7D8
:103B3000C0FC42465346FCF734FD04460D463EE0C9
:103B400001260022BA463B4620462946FCF710FCD7
:103B500080460F460022534620462946FCF7A9FC22
:103B600042463B46FCF71DFD04460D4627E04B4907
:103B700081421BDDDFF828A10226002253462046A1
:103B80002946FCF79CFC00223B46FCF7F1FB8046F3
:103B90000F460022534620462946FCF78AFC42463F
:103BA0003B46FCF7FEFC04460D4608E00326224691
:103BB0002B4600203B49FCF7F4FC04460D46224608
:103BC0002B4610461946FCF77AFC8B468246024685
:103BD0000B46FCF774FC07460246334888460B4602
:103BE00006217844FFF7F4F852465B46FCF767FC81
:103BF00082462E488B463A46434605217844FFF7D5
:103C0000E7F83A464346FCF75AFC02460B46002EBC
:103C1000504659460CDAFCF7ABFB22462B46FCF724
:103C20004EFC01B022462B46BDE8F04FFCF744BCE9
:103C3000FCF79EFB22462B46FCF741FC1C4A7A44CB
:103C400002EBC603D3E90023FCF733FC22462B46E4
:103C5000FCF72FFC174A7A4402EBC603D3E9002392
:103C6000FCF72AFC009A002AB8BF81F00041BDE8A9
:103C7000F88F0000000010440000F07F182D44541D
:103C8000FB21F93FFB21F9BF0000DC3F0000203E93
:103C90000000F33F0000F03F0000E63F00800340DB
:103CA0000000F83F0000F0BF2A3B0000E83A0000A7
:103CB000863A00004E3A00002DE9F04D9446CCF1D2
:103CC000000423F000464CEA0404524F46EAD47440
:103CD0009A46884621F00042BC4206D8454240EA56
:103CE000050442EAD474BC4204D9BDE8F04D6246F2
:103CF000FFF7C6B8AAF14055A5F17F6555EA0C0457
:103D00000BD0022404EAAA74434DDFF810E144EA20
:103D1000D87452EA000B04D00CE0BDE8F04DFFF778
:103D2000BBBE002C14BF012CBDE8F08D022C30D09E
:103D3000032C32D056EA0C0B0AD0BE4220D1BA4234
:103D400009D126F0804622F080423346114617E022
:103D500000291ADB25E0DFF8C8B0FB44002C04BFC3
:103D6000DBE90001BDE8F08D012C02BFDBE90001B9
:103D700081F00041BDE8F08D022C0AD0032C0CD05C
:103D8000BA4212D1B8F1000F0BDA23482549BDE839
:103D9000F08D28462449BDE8F08D28467146BDE8DF
:103DA000F08D1D482149BDE8F08D921B12153C2A6B
:103DB000C4BF19481D490EDCBAF1000FBEBF12F195
:103DC0003C0F0020014606DB6246FCF7EAFB21F0CF
:103DD0000041FFF761FE002C08BFBDE8F08D012C0B
:103DE00004BF81F00041BDE8F08D114A114B022C57
:103DF00007D0FCF75EFB2A46BDE8F04D0A4BFCF706
:103E000058BBFCF756FB2A46BDE8F04D064BFCF7C5
:103E100053BB00000000F07F182D4454FB2109C063
:103E2000E2390000FB21F9BFFB210940FB21F93FEA
:103E3000075C143326A6A13C2DE9F0410446E07846
:103E400000F0C006E07800F03F05607800F0010067
:103E500098B1EF102846E91705EB5171C910A5EB91
:103E6000C101491C01F0FF080B48006820B10A4855
:103E7000414602683846904700BF607800F008006D
:103E800030B10548406818B1B011034A51688847FD
:103E90000020BDE8F08100009C00002038B50446F9
:103EA00064B120208DF8000028208DF8010030201A
:103EB0008DF8020038208DF8030004E0A3220421CD
:103EC0006846FCF760F96A46042140F69E2002F03D
:103ED000B1F901F09BFD38BD3EB5044602208DF8D6
:103EE0000000CA208DF80100E3208DF802000920AF
:103EF0008DF803006A460421682002F09BF9A32094
:103F00008DF8000004F0400048B1C0208DF8010099
:103F1000C8208DF80200C2208DF8030006E0A3201F
:103F20008DF801008DF802008DF8030004F4C070D4
:103F300048B1C4208DF80400CC208DF80500C620BF
:103F40008DF8060006E0A3208DF804008DF805002A
:103F50008DF80600A3208DF807008DF808008DF875
:103F600009006A460A2140F6A72002F063F904F02E
:103F7000030018B120208DF8000002E0D8208DF851
:103F800000006A46012140F6B62002F053F904F021
:103F9000200018B1012000F0ADF802E0002000F090
:103FA000A9F804F4C07008B304F4807060B1B220C2
:103FB0008DF800008B208DF80100B6208DF80200EE
:103FC0009B208DF803000BE0B0208DF800008020CE
:103FD0008DF80100B4208DF8020090208DF80300C8
:103FE0006A46042140F6A22002F024F904F0010000
:103FF00020B3F8208DF800006A4601214FF40B60D1
:1040000002F018F9FA21072000F0FEFA072000F06C
:10401000C5FA012000F0E5FA642000F0C5FB4FF47A
:10402000FA7000F0D4FBC821304800F075FA28205F
:1040300000F08EFA0A2000F09EFA08E0D8208DF8F1
:1040400000006A4601214FF40B6002F0F3F804F01F
:10405000020018B1D9208DF8000002E0D8208DF8B8
:1040600000006A46012140F23D7002F0E3F804F0DE
:10407000040018B1012000F069F802E0002000F00F
:1040800065F804F0100018B10120FFF707FF02E007
:104090000020FFF703FF44F008001549488101F0B4
:1040A000B5FC00201249887304F0400018B108469E
:1040B000807B801D887304F4C07020B10C48807B25
:1040C000801D0B49887304F0140020B10848807BE0
:1040D00010300749887304F0030020B10448807B46
:1040E000001D0349887300203EBD000009E3CA0299
:1040F0009C0000203EB504466CB10EA1D1E9002021
:104100008968CDE9002002916A4609214FF4976041
:1041100002F090F83EBD0AA2D2E900109268CDE903
:10412000010200916A4609214FF4976002F082F87B
:10413000F0E70000B8AAB38DB4980D355D0000001B
:10414000B8AAAAAAB088C3C5C700000038B50446FB
:1041500064B1C0208DF80000C2208DF80100C42099
:104160008DF80200C6208DF8030004E08B220421A4
:104170006846FCF708F86A46042140F6982002F0E9
:1041800059F801F043FC38BD10B5C8234FF48062E4
:10419000034940F6F63001F0CDFA0446204610BD42
:1041A0005C6A00082DE9F04F8DB007468846154639
:1041B0009946DDE9166B0024002030806B49887B2E
:1041C0005A4605A901F082FB18B1601E0DB0BDE88A
:1041D000F08F6648807A00F01400002867D09DF8C0
:1041E000140000069DF8151040EA01409DF81610D5
:1041F00040EA01209DF81710084328609DF8180038
:1042000000069DF8191040EA01409DF81A1040EA96
:1042100001209DF81B10084368609DF81C000006F3
:104220009DF81D1040EA01409DF81E1040EA012053
:104230009DF81F100843A8609DF8200000069DF817
:10424000211040EA01409DF8221040EA01209DF82B
:1042500023100843E86004F11000C4B22868001479
:104260000190686800140290A86800140390E86840
:104270000014049001984043029901FB0100039946
:1042800001FB0100049901FB010ABAF1706F02DB26
:10429000BAF1885F05DD01F0B9FB00203080401ED7
:1042A00094E7B6F9000040F48070308000BF2F48DA
:1042B000807A00F0400020B305A9601C085C095D0D
:1042C00040EA012000B2A8F8000005A9E01C095C42
:1042D00005AAA01C105C41EA002000B2A8F8020068
:1042E00005A9601D095C201D105C41EA002000B298
:1042F000A8F80400A01DC4B2B6F9000040F0080000
:1043000030801A48408900F4C07008B305A9601CC9
:10431000085C095D40EA012000B2388005A9E01C74
:10432000095C05AAA01C105C41EA002000B278805C
:1043300005A9601D095C201D105C41EA002000B247
:10434000B880A01DC4B2B6F9000040F07000308003
:104350000648807A00F0030018B105A90819FFF794
:104360006BFD484600F078FE00202FE79C000020FF
:1043700030B585B0044616A207CA02AB07C3C82CE5
:1043800003DD4FF0FF3005B030BDC82090FBF4F0E6
:10439000401E85B2280A8DF80000E8B28DF80100B1
:1043A0006A46022140F2162001F044FF10B14FF09E
:1043B000FF30E8E702AA0C2140F6C12001F03AFFE5
:1043C00010B14FF0FF30DEE7044884810020DAE7C7
:1043D000FEF2ABC4AAF1DFDFBBAFDFDF9C00002041
:1043E00010B586B0044647A00068039046A0006858
:1043F000029046A00068019045A00068009004F07B
:10440000030003A9085C8DF8140003A8C4F3C101DC
:10441000405C8DF8150003A8C4F38111405C8DF851
:10442000160004F0030002A9085C8DF8100002A831
:10443000C4F3C101405C8DF8110002A8C4F38111DE
:10444000405C8DF8120005AA032140F2264001F0DD
:10445000F1FE18B14FF0FF3006B010BD04AA0321E1
:1044600040F22A4001F0E6FE10B14FF0FF30F3E7D2
:10447000019805900098049004F0040058B19DF84C
:10448000140040F001008DF814009DF8100040F079
:1044900001008DF8100004F0200058B19DF81500BF
:1044A00040F001008DF815009DF8110040F001006A
:1044B0008DF8110004F4807058B19DF8160040F09A
:1044C00001008DF816009DF8120040F001008DF8F3
:1044D000120005AA03214FF4886001F0ABFE10B171
:1044E0004FF0FF30B8E704AA032140F2314001F059
:1044F000A1FE10B14FF0FF30AEE706480481002066
:10450000AAE700004CCD6C000CC92C003656760092
:10451000264666009C000020F8B505460E464FF47E
:104520007A7095FBF0F000FB06F4200E8DF8000089
:10453000200C8DF80100200A8DF80200E0B28DF801
:1045400003006A4604214FF4AE7001F073FEF8BD1B
:1045500038B50446052094FBF0F084B220128DF8A3
:104560000000E0B28DF801006A4602214FF4AD7000
:1045700001F060FE38BD38B50446052094FBF0F02C
:1045800084B220128DF80000E0B28DF801006A4676
:1045900002214FF4AC7001F04DFE38BD38B5044631
:1045A0000020009004F0010020B19DF8000040F0D0
:1045B0003000009004F0020020B19DF8000040F0AF
:1045C0000C00009004F0040020B19DF8000040F0C1
:1045D000030000906A4601214FF4A47001F02AFE06
:1045E00038BD38B50446012C01DA012402E0042C60
:1045F00000DD0424601EC0B200906A46012140F232
:104600004F1001F017FE38BD2DE9FC4706460F4656
:1046100006F0070010B1B7F5C86F03DD4FF0FF30AB
:10462000BDE8FC873846FCF734F881465949FBF76A
:1046300061FE8046684600F0ABFE9DF8000002284F
:1046400006D0042816D0082826D0102848D135E0F6
:104650004FF08D414046FBF71BFE8146FCF737F8D3
:1046600084B24D494046FBF713FE8146FCF72FF814
:1046700085B238E04FF08C414046FBF709FE814699
:10468000FCF725F884B245494046FBF701FE814618
:10469000FCF71DF885B226E04FF08B414046FBF752
:1046A000F7FD8146FCF713F884B23D494046FBF71D
:1046B000EFFD8146FCF70BF885B214E04FF08A411C
:1046C0004046FBF7E5FD8146FCF701F884B2354929
:1046D0004046FBF7DDFD8146FBF7F9FF85B202E0BE
:1046E0004FF0FF309CE700BF20128DF80400E0B2CD
:1046F0008DF8050028128DF80600E8B28DF8070045
:1047000006F00100A0B101AA02214FF4EA7001F005
:1047100091FD10B14FF0FF3082E70DF1060202214A
:104720004FF4927001F086FD10B14FF0FF3077E743
:1047300006F00200A0B101AA02214FF4EC7001F0D2
:1047400079FD10B14FF0FF306AE70DF1060202214A
:104750004FF4947001F06EFD10B14FF0FF305FE741
:1047600006F00400A0B101AA02214FF4EE7001F09E
:1047700061FD10B14FF0FF3052E70DF1060202214A
:104780004FF4967001F056FD10B14FF0FF3047E73F
:10479000002045E700004843000040460000C045B7
:1047A000000040450000C04438B50446052094FB95
:1047B000F0F085B228128DF80000E8B28DF8010003
:1047C0006A4602214FF4EF7001F034FD38BD38B570
:1047D0000446052094FBF0F085B228128DF8000005
:1047E000E8B28DF801006A4602214FF4ED7001F045
:1047F00021FD38BD70B504460D46E0B2FDF708FD59
:10480000204670BD7CB5054628494968087801AB4B
:1048100004220D21FCF744FF08B107207CBD9DF860
:104820000700C0F301109DF8041001F0E00140EA18
:10483000E1008DF800009DF80700C0F381009DF8AD
:10484000051001F0E00140EAE1008DF801009DF85B
:10485000070000F003009DF8061001F0E00140EAB7
:10486000E1008DF8020000241CE01DF8040018B9D6
:10487000002045F8240013E00D4845F8240006E028
:1048800055F824000B49FBF703FD45F824001DF8FB
:104890000400401EC0B20DF804000028F0D100BF93
:1048A000601CC4B2032CE0DB0020B7E7140000203A
:1048B0007B14AE3E1D5A843F2DE9F04F87B005466C
:1048C0000C46914601208DF8100000208DF8110053
:1048D000FE4A1268917CFD4A5268107804AB0222AD
:1048E000FCF784FF20B14FF0FF3007B0BDE8F08F38
:1048F000C820FCF738F900208DF81000F34A126840
:10490000D17BF24A5268107804AB0122FCF76EFFAB
:1049100010B14FF0FF30E8E7EC4A12685179EB4AEA
:104920005268107804AB0122FCF760FF10B14FF021
:10493000FF30DAE7E54A1268917CE44A5268107861
:1049400004AB0122FCF752FF10B14FF0FF30CCE76F
:10495000DE4A1268D17DDD4A5268107804AB01222C
:10496000FCF744FF10B14FF0FF30BEE7D74A1268A2
:104970001179D64A5268107804AB0122FCF736FF51
:1049800010B14FF0FF30B0E70C208DF81000CF4A87
:1049900012681179CD4A5268107804AB0122FCF7F5
:1049A00025FF10B14FF0FF309FE70F20FCF7DBF839
:1049B000C648806A407A8DF81000C44A126891781F
:1049C000C24A5268107804AB0122FCF70FFF10B105
:1049D0004FF0FF3089E7BD48806A007A8DF81000FB
:1049E000BA4A12685178B94A5268107804AB012269
:1049F000FCF7FCFE10B14FF0FF3076E7B9F1000F85
:104A000007D0B248806A807A40F0E0008DF810004C
:104A100004E0AE48806A807A8DF81000AB4A1268D4
:104A20009179AA4A5268107804AB0122FCF7DEFEA5
:104A300010B14FF0FF3058E7B9F1000F07D0A3488D
:104A4000806AC07A40F0E0008DF8100003E0A048D2
:104A5000C07A8DF810009D4A1268D1799B4A52683D
:104A6000107804AB0122FCF7C1FE10B14FF0FF300B
:104A70003BE7B9F1000F02D0C820FCF774F84020E2
:104A80008DF81000914A12681179904A5268107896
:104A900004AB0122FCF7AAFE10B14FF0FF3024E76F
:104AA00078208DF81000894A12685179874A526837
:104AB000107804AB0122FCF799FE10B14FF0FF30E3
:104AC00013E783498889FCF74EF800208DF8100021
:104AD0007E4A126851797D4A5268107804AB0122EF
:104AE000FCF784FE10B14FF0FF30FEE6774A126803
:104AF000917A764A5268107804AB0222FCF7D0FD16
:104B000010B14FF0FF30F0E69DF811009DF8101045
:104B100040EA012B0C209BFBF0F0C6B20020A860FD
:104B200068602860A06060602060824665E0674A37
:104B30001268D17A654A5268107804AB0C22FCF7EF
:104B4000AFFD10B14FF0FF30CFE69DF811009DF89A
:104B5000101040EA012000B2ADF808009DF81300E3
:104B60009DF8121040EA012000B2ADF80A009DF84D
:104B700015009DF8141040EA012000B2ADF80C00B9
:104B8000BDF90810206808442060BDF90A1060686B
:104B900008446060BDF90C10A0680844A0609DF84E
:104BA00017009DF8161040EA012000B2ADF8000091
:104BB0009DF819009DF8181040EA012000B2ADF8E8
:104BC00002009DF81B009DF81A1040EA012000B277
:104BD000ADF80400BDF90010286808442860BDF94C
:104BE0000210686808446860BDF90410A8680844A9
:104BF000A8600AF1010000F0FF0AB24597DB3448D3
:104C0000D0F800C02868C117090441EA1041070420
:104C1000624600233846FBF785FA32460023CDE989
:104C20000201FBF77FFA28602948D0F800C06868C5
:104C3000C117090441EA10410704624600233846BF
:104C4000FBF770FA32460023CDE90201FBF76AFA5E
:104C500068601F48D0F800C0A868C117090441EA7D
:104C600010410704624600233846FBF75BFA3246E0
:104C70000023CDE90201FBF755FAA8601448D0F8EB
:104C800004C02168C817000440EA11480F046246B6
:104C9000002338464146FBF745FA32460023CDE96A
:104CA0000201FBF73FFA20600948D0F804C06068B1
:104CB000C117090441EA104107046246002338463F
:104CC000FBF730FA3246002304E000001400002015
:104CD000346A0008CDE90201FBF724FA606011484C
:104CE000D0F804C0A068C117090441EA10410704C4
:104CF000624600233846FBF715FA32460023CDE919
:104D00000201FBF70FFAA060A068002804DDA0688C
:104D1000A0F58030A06003E0A06800F58030A060BE
:104D20000020E2E5346A00082DE9FC5F06460F46E4
:104D300000253D494968087801AB03220D21FCF7A5
:104D4000AFFC10B10720BDE8FC9F9DF8040000F007
:104D50001F008DF804009DF8050000F01F008DF87D
:104D600005009DF8060000F01F008DF806000024E5
:104D700056E056F8240057F82410A0EB010BBBF1C5
:104D8000000F01DB594601E0CBF100010846FBF7BB
:104D900077FC4FF08F410090FBF7ACFA814601A8F9
:104DA000005D68B321490868FBF773FC83465946E8
:104DB0001F48FBF79FFA804604E01E494046FBF778
:104DC00067FA804601A8005D401EC0B201A90855DF
:104DD0000028F2D141464846FBF78CFA83464FF053
:104DE0007E51FBF74FFA82462AF0004B0F4881694B
:104DF0005846FBF7D1FC12D20120A04005430EE03B
:104E00000A4801694846FBF7BDFC05D307484169DC
:104E10004846FBF7C1FC02D20120A0400543641CB8
:104E2000032CA6DB28468EE714000020346A000815
:104E300000B04C4554E3853F10B50446204600F0D1
:104E40000FF80346E01C00F00BF843EAC00083B201
:104E5000A01D00F005F843EA801083B2184610BD8B
:104E6000014691F90020002A01DD00201EE091F9A1
:104E70000020002A01DA042018E091F90120002A1C
:104E800001DD012012E091F90120002A01DA05205C
:104E90000CE091F90220002A01DD022006E091F9E0
:104EA0000220002A01DA062000E0072070470000F7
:104EB000FCF7CEF94248FCF78DFF42A201210846DB
:104EC000FCF743FF41A201210220FCF73EFF41A273
:104ED00001210420FCF739FF70E001203F49086000
:104EE000FDF78CF8FDF70EFFFCF7B6FE3C480078A6
:104EF00001280DD13BA206210420FCF726FF3748EC
:104F00000068401C3549086038A0FDF73DFF3FE0D0
:104F10003A48007801280DD139A206210420FCF777
:104F200014FF2E480068401C2C49086036A0FDF78D
:104F30002BFF2DE03748007801280DD136A206213D
:104F40000420FCF702FF25480068401C2349086044
:104F500033A0FDF719FF1BE03448007801280DD17C
:104F600033A206210420FCF7F0FE1C480068401C18
:104F70001A49086030A0FDF707FF09E032A20621B8
:104F80000420FCF7E2FE15480068401C1349086045
:104F900010E02F482F490860002011490870174978
:104FA00008701C490870214908700C480068401EB0
:104FB0000A490860094800680028EAD18DE7000026
:104FC00010010020526F6C6C3A2000004779726F1C
:104FD0003A0000004469723A0000000078000020A6
:104FE000680000206661727761726400476F204636
:104FF0006F72776172640D0A000000006B00002080
:105000004261636B00000000476F204261636B0DDB
:105010000A000000690000204C6566740000000072
:105020005475726E204C6566740D0A006A0000208B
:1050300052696768740000005475726E2052696787
:1050400068740D0A0000000053746F7000000000C7
:1050500000004041700000207047000070B5044619
:10506000002624F00104184890F8240008B100201C
:1050700070BD1548807A10B94FF0FF30F8E712483C
:10508000057C807A2040104908740846007CA042C4
:1050900002D04FF0FF3600E0002614B90A48007D28
:1050A00018B1012001F04CF902E0002001F048F9AC
:1050B0003CB100F0ABFC20B1034805744FF0FF3069
:1050C000D6E73046D4E70000140000202DE9F04F69
:1050D00099B004460D4616464FF07E574FF0000833
:1050E0004FF000094FF0000A12A813A918AB0EAA3E
:1050F000CDE9001014A916A8FFF754F818B1012043
:1051000019B0BDE8F08FBDF84C0000F480700028A5
:105110007ED00E98FBF7B4FA83464FF09D41FBF723
:10512000E9F807460F98FBF7ABFA83464FF09D412D
:10513000FBF7E0F880461098FBF7A2FA83464FF0A1
:105140009D41FBF7D7F881461198FBF799FA834602
:105150004FF09D41FBF7CEF8824639464FF0804034
:10516000FBF796F849460590FBF792F84146079001
:105170004FF04040FBF78CF851460590FBF788F85C
:1051800006900799FBF72CF88346FBF7B4FACDE9B4
:105190000801FEF749FB4FF06632544BCDE90A0196
:1051A000FBF78DF9CDE90C01FBF7D0FA20604946F9
:1051B0004FF08040FBF76CF849460290FBF768F827
:1051C000414604904FF04040FBF762F841460290A0
:1051D000FBF75EF803900499FBF754F883464FF011
:1051E0007E51FAF7FDFF0590FBF785FACDE908013E
:1051F00039464FF08040FBF74BF841460390FBF7F0
:1052000047F8494604904FF08040FBF741F800E032
:1052100068E051460390FBF73BF883460499FAF7A0
:10522000DFFF0590FBF767FACDE90601DDE908230A
:10523000FEF742FD4FF066322C4BCDE90A01FBF739
:105240003EF9CDE90C01FBF781FA28605146504642
:10525000FBF71EF8494604904846FBF719F841460B
:1052600003904046FBF714F8394601903846FBF7A7
:105270000FF800900199FAF7B3FF02900399FBF73A
:1052800001F883460499FAF7FDFF0590FBF733FA1E
:10529000CDE9080151463846FAF7FAFF494604902D
:1052A0004046FAF7F5FF03900499FAF799FF4FF09B
:1052B00080410590FAF7ECFF8346FBF71CFACDE935
:1052C0000601DDE90823FEF7F7FC4FF06632074BD5
:1052D000CDE90A01FBF7F3F8CDE90C01FBF736FA4B
:1052E000306001E002200BE7002009E766A64C4091
:1052F00070B50024FCF75AF800F024F9002840D1DA
:10530000782000F02FFFC4B20CB1012070BD7820CE
:10531000FFF7A4FEC4B20CB10220F7E7642000F04E
:10532000D3FEC4B20CB10320F0E7FEF72DFFC4B2E8
:105330000CB10420EAE71548FFF77EFD0546FFF7AC
:105340004FF8C4B20CB10520E0E740F27310FEF74D
:10535000C3FDC4B20CB10620D8E76420FFF708F8FB
:10536000C4B20CB10720D1E700F0A4FF04460CB191
:105370000820CBE7012000F0A3FDC4B21CB1092036
:10538000C4E70A20C2E70020C0E700004000002078
:1053900001461148407A30B1012807D0022808D0D0
:1053A00003280CD108E0022008700BE004200870EC
:1053B00008E00820087005E01020087002E04FF0B7
:1053C000FF30704700BF0448C07C18B10878400621
:1053D000000E08700020F4E7140000200146134876
:1053E000407A30B1012808D002280AD0032810D111
:1053F0000BE04FF4804008800EE041F69C7008807E
:105400000AE04FF48050088006E04FF40060088006
:1054100002E04FF0FF30704700BF0448C07C10B17D
:105420000888401008800020F5E7000014000020E4
:1054300001460248007C08700020704714000020DC
:1054400001460F48007A30B1012807D0022809D060
:1054500003280FD10AE0FA2008800EE04FF4FA701A
:1054600008800AE04FF47A70088006E04FF4FA6092
:10547000088002E00020088000BF00BF00207047C5
:105480001400002001460E48007A30B1012807D0F0
:10549000022808D003280CD108E00A4808600BE075
:1054A0000948086008E00948086005E00848086005
:1054B00002E04FF0FF30704700BF0020FBE7000024
:1054C00014000020000003430000834233330342F2
:1054D0003333834101461248C07A082817D2DFE8E7
:1054E00000F01704070A0D101318BC20088013E001
:1054F0006220088010E02A2008800DE01420088037
:105500000AE00A20088007E00520088004E000BFC8
:1055100000BF0020088000BF00BF002070470000CF
:10552000140000200146064890F8240010B14FF006
:10553000FF3070470248C08908800020F9E700006A
:10554000140000201CB580208DF80000654A126808
:10555000917C644A526810786B460122FCF746F948
:1055600010B14FF0FF301CBD6420FBF7FCFA0020A7
:105570008DF800005B4A1268917C5A4A5268107894
:105580006B460122FCF732F910B14FF0FF30EAE729
:10559000544A1268917D534A526810786B4606222D
:1055A000FCF77EF810B14FF0FF30DCE79DF8050006
:1055B000C007400F9DF8031001F0010140EA4100CF
:1055C0009DF8011001F0010140EA010494B1012CA1
:1055D00003D101214348C17431E0022C03D10021E1
:1055E0004048C1742BE021463FA0FDF7CDFB4FF0B2
:1055F000FF30B8E73B4A1268D1783A4A52681078CF
:105600006B460122FCF74CF810B14FF0FF30AAE7CF
:105610009DF8000000F00F042CB93D48FDF7B4FBE5
:105620004FF0FF309FE7042C06D13AA0FDF7ACFB0A
:1056300001212C48C17402E000212A48C174FF21D5
:1056400028488172FF2027490872FF2125484172AE
:10565000C1724FF6FF71C181FF2101748174012174
:10566000017380F82210002180F823104175017524
:105670001630016041608160163880F8241080F88F
:105680002510C1844FF4FA6000F062FC10B14FF0B5
:10569000FF3068E7022000F02BFB10B14FF0FF3025
:1056A00061E72A2000F0CEFC10B14FF0FF305AE73E
:1056B000322000F009FD10B14FF0FF3053E7002019
:1056C000FFF7CCFC10B14FF0FF304CE7002000F0AA
:1056D00051FB10B14FF0FF3045E7002000F042FDD4
:1056E000002040E714000020556E737570706F72D3
:1056F00074656420736F6674776172652070726F71
:1057000064756374207265762025642E0A0000009B
:105710004877000848616C662073656E7369746928
:1057200076697479207061727420666F756E642E6C
:105730000A0000002DE9F04385B005460E4690466C
:105740009946294890F8250020B14FF0FF3005B068
:10575000BDE8F08316B94FF0FF30F8E7002423E0EE
:10576000281B102801DD102000E0281B87B2321909
:105770003946204600F05EFD10B14FF0FF30E6E7FD
:1057800001AA3946204600F001F910B14FF0FF3070
:10579000DDE730193A4601A9FAF715FD10B16FF0AF
:1057A0000100D4E7E01984B2AC42D9DB4FEA2820EB
:1057B0008DF8000008F0FF008DF801000A4A126819
:1057C000917E094A526810786B460222FCF70EF867
:1057D00010B14FF0FF30BAE70121034880F82510DF
:1057E000A0F826900020B2E71400002038B5044647
:1057F000282C02DD4FF0FF3038BDDCB9002000F06E
:10580000EBFB00208DF8000007208DF801002E4AE8
:105810001268917C2C4A526810786B460222FBF782
:10582000E5FF10B14FF0FF30E6E700212648017593
:105830000020E1E7012000F0CFFB20208DF80000E0
:10584000012C06D100208DF80100052000F0FAFBA4
:1058500017E0052C06DC01208DF80100052000F082
:10586000F1FB0EE0142C06DC02208DF801000A206A
:1058700000F0E8FB05E003208DF80100142000F0A3
:10588000E1FB9DF80100072101EB8010C0B28DF80B
:1058900001000D4A1268917C0B4A526810786B46E1
:1058A0000222FBF7A3FF10B14FF0FF30A4E708215D
:1058B0000548817200210173012101750020FFF765
:1058C000CDFB002098E7000014000020F8B5044646
:1058D0000F4616462C4890F8240010B94FF0FF30C0
:1058E000F8BD2948807A10B94FF0FF30F8E7264A12
:1058F0001268917A244A526810786B460222FBF7AC
:10590000CFFE10B14FF0FF30EAE79DF801009DF89F
:10591000001040EA0125A54203DA00203070401E45
:10592000DEE7194840684088B5EB600F17DD164A7E
:105930001268517C144A526810786B460122FBF7BA
:10594000AFFE10B14FF0FF30CAE79DF8000000F045
:10595000100020B100F05AF86FF00100C0E7E2B289
:10596000094B1B68D97A084B5B6818783B46FBF7F4
:1059700097FE10B14FF0FF30B2E795FBF4F0401EF8
:1059800030700020ACE7000014000020F8B5044699
:105990000D46164616B94FF0FF30F8BD1A48807A0A
:1059A00010B94FF0FF30F8E720128DF80000E0B298
:1059B0008DF801009DF80100284413494968498980
:1059C000884202DD4FF0FF30E7E70F4A1268117E90
:1059D0000D4A526810786B460222FBF707FF10B1A0
:1059E0004FF0FF30D9E7EAB2074B1B68597D064BF1
:1059F0005B6818783346FBF753FE10B14FF0FF3069
:105A0000CBE70020C9E700001400002008B570486B
:105A1000807A10B94FF0FF3008BD002000906C4A2A
:105A20001268D17B6A4A526810786B460122FBF7F4
:105A3000DDFE10B14FF0FF30EEE7654A1268517994
:105A4000634A526810786B460122FBF7CFFE10B113
:105A50004FF0FF30E0E75E4A126811795C4A526805
:105A600010786B460122FBF7C1FE10B14FF0FF30FA
:105A7000D2E7574890F82400002853D00C2000901B
:105A8000534A12681179524A526810786B460122C3
:105A9000FBF7ACFE10B14FF0FF30BDE73220FBF753
:105AA00062F8C02000904A48807A00F0010020B1DE
:105AB0009DF8000040F020000090454A12681179DE
:105AC000434A526810786B460122FBF78FFE10B1F3
:105AD0004FF0FF30A0E73E48407C10B1022000901C
