:020000040800F2
:10000000E0040020010100089D150008630F0008AE
:1000100099150008E90A0008AF2500080000000053
:10002000000000000000000000000000111C00089B
:10003000ED0A000800000000CD1B0008F91D0008B3
:100040001B0100081B0100081B0100081B01000820
:100050001B0100081B0100081B010008550B0008CC
:10006000810B00081B0100081B0100081B01000890
:100070001B0100081B0100081B0100081B010008F0
:100080001B0100081B0100081B0100081B010008E0
:100090001B0100081B0100081B0100081B010008D0
:1000A0001B0100081B0100081B0100081B010008C0
:1000B0009D2000081B0100081B0100081B0100080F
:1000C0001B0100081B0100081B0100081B010008A0
:1000D0001B010008312500081B0100081B01000856
:1000E000350B00081B0100081B010008DFF80CD0CD
:1000F00000F04CFC0048004799420008E004002052
:100100000648804706480047FEE7FEE7FEE7FEE7B1
:10011000FEE7FEE7FEE7FEE7FEE7FEE7FD1D00085F
:10012000ED0000082DE9F0410024061B254671F181
:10013000000605DA01240027D0EB070067EB010178
:10014000161E73F1000605DA0027D2EB070201251F
:1001500067EB030300F01CFB86460E4617469C46E1
:10016000AC4204D00025D0EB050E65EB010624B1AE
:100170000020D2EB000760EB030C704631463A4694
:100180006346BDE8F081D2B201E000F8012B491EC0
:10019000FBD270470022F6E710B513460A46044624
:1001A0001946FFF7F0FF204610BD30B50446002089
:1001B000034600E05B1C934203D2E05CCD5C401B35
:1001C000F8D030BDF0B480EA0102D40F4200B2EBA7
:1001D000410F02D20246084611464A0042D0C30DE2
:1001E000DDB2C1F3C752AD1A202D35DAC1F31601C5
:1001F00041F4000204B15242C5F1200602FA06F1B0
:100200002A411044B3EBD05F23D0C4B1012DA0EB41
:10021000C35009DCF0BC4FF0004202EAC352DBB22B
:1002200000F5000000F00FBB400000F1807000EB13
:10023000C350A0F1807040EAD170490009E049083C
:1002400041EAC071A0EBC35000F50000400800EB8C
:10025000C350F0BC00F0EEBA6142012202EB410152
:10026000001BF6E7F0BC704781F00041AAE780F080
:100270000040A7E780EA010210B502F00043400009
:1002800022D04A001FD0010E01EB1261C0F35600CC
:10029000C2F3560240F4000042F40002A0FB022028
:1002A00000047F39140400D0401C50EA124001D4ED
:1002B0004000491EC2B20C0604EBD010401C40089E
:1002C000802A02D003E0002010BD20F001000029A8
:1002D00000DA0020184310BD30B480EA010202F0B9
:1002E000004530F0004221F0004013D090B1C30D22
:1002F000D40DC2F31601C0F31600E41A41F4000154
:1003000040F400027D34914201D3641C00E04900B6
:10031000002C02DA30BC002070474FF400000023AC
:10032000914201D3891A034340084FEA4101F7D1B2
:1003300051B1914202D14FF0004105E002D24FF09D
:10034000010101E06FF0010103EBC450284430BC0F
:1003500000F070BA2DE9FE4F804681EA0300C00F1D
:100360000C46009021F0004123F00045B8EB02005C
:10037000A94105D24046214690461C460B460246FE
:1003800023F00040104347D0270DC7F30A00C3F302
:100390000A510290401A019040286BDAC3F313000F
:1003A00040F4801B0098924620B10023D2EB030A50
:1003B00063EB0B0B01985946C0F14002504600F028
:1003C00018FA06460D4650465946019A00F020FAA2
:1003D00010EB08006141002487EA115284EAE773B8
:1003E0001A4340D0009A62B3019A012A4FEA075299
:1003F00015DC001B61EB02014FF0004202EA0752DC
:10040000CDE90042001C41F5801132462B4600F038
:1004100057FA03B0BDE8F08F40462146F9E7001BCC
:1004200061EB0201001C41F5801300185B412018AC
:10043000A2F5001747EB030140EAD570B6196D41EC
:1004400011E06D084FEA360645EAC0754FEA0752DB
:10045000001B61EB0201001C41F5801149084FEAC5
:1004600030000019514132462B4603B0BDE8F04F31
:1004700000F017BA0098012240000023D0EB0202DE
:1004800063EBE073009821464FEAE074B8EB00009C
:1004900061EB0401E9E783F000435BE781F0004191
:1004A00058E72DE9FE4F81EA030404F0004421F0EF
:1004B000004100944FF0000B23F0004350EA010488
:1004C0005ED052EA03045BD0C3F30A54C1F30A5569
:1004D0002C44A4F2F3340194A0FB0254C1F31301A1
:1004E00041F48011C3F3130343F4801301FB02446E
:1004F00000FB034E840A970A44EA815447EA835773
:10050000A4FB076802958D0A05FB07854FEA932C2B
:1005100004FB0C542705029D4FEA065847EA16379C
:10052000B5EB08056EEB070C870E920E47EA8117B4
:1005300042EA8312A7FB0201B6EB0B0164EB000455
:100540002B0D43EA0C335E1844EB1C50DA4651463F
:10055000E7FB0201C5F313044FEA0B3343EA1453DC
:100560004FEA0432019C43EA0603A4F10C0402940E
:10057000009CCDE900B400F0A3F903B0BDE8F08F12
:1005800000200146F9E72DE9F04D81EA030404F06B
:10059000004B21F0004514464FF0000A23F00041C3
:1005A00050EA050220D054EA01021DD0C5F30A57D3
:1005B0000246C5F31303C1F31300C1F30A5640F416
:1005C000801543F48013A7EB0608101BD64608F2EB
:1005D000FD3873EB050002D308F1010801E0921821
:1005E0005B41B8F1000F03DA00200146BDE8F08D51
:1005F00000204FF48011064684460EE0171B73EB73
:10060000050705D3121B63EB050306434CEA010CF7
:1006100049084FEA300092185B4150EA0107EDD1DA
:1006200052EA030012D082EA040083EA050108437B
:1006300005D0101BAB4106D20122002306E00022A8
:100640004FF0004302E06FF0010253101AEB060076
:100650004CEB085110EB0A0041EB0B01BDE8F04DEB
:1006600000F01FB9C10F80EAE0700844CA07962362
:10067000002100F0E8B896230022114600F0E3B80C
:1006800000F0004220F00040C10DC0F3160040F41D
:1006900000007F2901DA00207047962903DCC1F1B0
:1006A0009601C84001E096398840002AF4D04042C3
:1006B000704720F00040C10DC0F3160040F4000068
:1006C0007F2901DA00207047962903DCC1F19601E9
:1006D000C840704796398840704700F0004230F0BB
:1006E00000400AD0C10D01F56071C0F3160042EA66
:1006F0000151C2084007114370470020014670476E
:1007000030B5041E71F1000404DB4FF00044404298
:1007100064EB0101141E73F1000405DB1C464FF06D
:100720000043524263EB04038B4208BF824230BD58
:1007300001F0004330B421F0004150EA010206D03C
:100740000A0DA2F56072C1F31301002A02DC30BC6D
:1007500000207047440F44EAC104C100E01830BCD7
:1007600000EBC25000F066B8002801DBC0F1004089
:10077000002901DBC1F1004181427047002801DB03
:10078000C0F10040002901DBC1F1004188427047FF
:100790002DE9F05F0546002092469B4688460646B6
:1007A000814640241BE0284641464746224600F049
:1007B000FFF853465A46C01A914110D311461846C5
:1007C000224600F016F82D1A67EB01084F46224624
:1007D0000120002100F00DF817EB00094E41201E0A
:1007E000A4F10104DFDC484631462A464346BDE811
:1007F000F09F202A04DB203A00FA02F10020704723
:100800009140C2F1200320FA03F31943904070474E
:10081000202A06DBCB17203A41FA02F043EAE073C4
:1008200006E041FA02F3D040C2F1200291400843B1
:10083000194670470029A8BF7047401C490008BFEF
:1008400020F00100704710B4B0FA80FC00FA0CF000
:1008500050EA010404BF10BC704749B1CCF1200438
:1008600021FA04F411FA0CF118BF012121430843C5
:10087000A3EB0C01CB1D4FEA00614FEA102042BFF1
:10088000002010BC704700EBC35010440029A4BFE7
:1008900010BC7047401C490008BF20F0010010BC8C
:1008A000704710B5141E73F1000408DA401C41F1C2
:1008B000000192185B411A4301D120F0010010BDE4
:1008C0002DE9F04D92469B4611B1B1FA81F202E05A
:1008D000B0FA80F220329046FFF78BFF04460F46B5
:1008E00040EA0A0041EA0B0153465A46084313D036
:1008F000114653EA010019D0C8F14002504600F0F9
:1009000057F805460E46504659464246FFF771FFD6
:10091000084305D0012004E020463946BDE8F08DAB
:100920000020054346EAE0762C4337430A986305E6
:10093000E40AA0EB08000022FD0A44EA47540A300A
:1009400002D500200146E9E7010510196941DDE9FA
:10095000084500196941BDE8F04DA2E770B521F0E6
:10096000004303430CD0C1F30A550024D5EB040522
:1009700064EB0403D617AD1AB34102DB0020014635
:1009800070BD201841EB025170BD0000064C074DB0
:1009900006E0E06840F0010394E80700984710344F
:1009A000AC42F6D3FFF7A6FBD06C0008F06C000851
:1009B000202A04DB203A21FA02F00021704721FAB4
:1009C00002F3D040C2F1200291400843194670471B
:1009D0002DE9F04D00231A461B1A8A4103DB002043
:1009E0000146BDE8F08DC1F30A52C1F3130141F491
:1009F00080154FF0000BD10702D100186D41521E37
:100A00000027044640F2FF11384601EB620A3E46D9
:100A10008046024600204FF48011FFF7C9FFC2193B
:100A20007141BB1846EB0100B4EB030C75EB000CF5
:100A300004D3E41A65EB000517460E46241908F1A5
:100A400001006D4180463428E3DDF91946EB0600CC
:100A5000091BA84103D24FF0FF32134601E00022E8
:100A600013461BEB070046EB0A51BDE8F04DFFF7BC
:100A700018BF00002DE9F0410446D4E90710FFF744
:100A8000F3FB164908601648B0F90000FFF7EAFDCD
:100A90000746A168FFF7EEFB054610492068096884
:100AA000FFF7E8FB06462946FFF7DEFBA0610021C1
:100AB000A069FFF763FE04D80A49A069FFF782FB2B
:100AC000A0610021A069FFF74FFE04D20549A0698B
:100AD000FFF7CAFBA061BDE8F081000068000020BC
:100AE0003C00002000007A4500BFFEE7704700B5DB
:100AF000034603E04FF47A7000F005F8181EA3F1E6
:100B00000103F7D100BD00EBC001C9004FF0E022A6
:100B10005161002191610521116100BF4FF0E02179
:100B2000096901F480310029F8D004214FF0E02256
:100B30001161704710B54FF4805000F03DF8012866
:100B400005D1000300F032F801200149087010BD02
:100B50005C00002010B5022000F03AF801280AD10C
:100B60000221054800F0ABF910B9012003490870D3
:100B7000022000F01BF810BD00080140000000201A
:100B800010B5042000F024F801280AD104210548FA
:100B900000F095F910B9022003490870042000F014
:100BA00005F810BD00080140000000200149086060
:100BB000704700001404014001460020034A1268F7
:100BC0000A400AB1012000E00020704714040140EF
:100BD000014600200022074B1B6803EA0102054B77
:100BE00014331B680B4013B10AB1012000E0002050
:100BF0007047000000040140002123498279002A47
:100C00003AD00A46126803689A430B461A600A1DD6
:100C1000126803689A430B1D1A60027911440A682E
:100C200003681A430A60184A0832126803689A4334
:100C3000154B08331A601A1D126803689A43124B49
:100C40000C331A604279102A0ED11A1F12680368F9
:100C50001A430D4B08331A601A1D126803681A43B1
:100C6000094B0C331A600DE00749427911440A68B8
:100C700003681A430A6005E0027911440A680368B0
:100C80009A430A60704700000004014000B587B035
:100C90000121C80200F0ACFF0121022000F098FF02
:100CA0000121042000F0A4FF48208DF81B004FF420
:100CB0007070ADF8180003208DF81A0006A92748B7
:100CC00000F072F80020ADF81200ADF80E004FF6FB
:100CD000FF70ADF810000020ADF80C008DF8140086
:100CE00003A91F4801F07AFB03A91E4801F076FB17
:100CF000684601F081FA0020ADF800000F20ADF841
:100D000008006946164801F021FA6946154801F0C5
:100D10001DFA0420ADF800000F20ADF80800694668
:100D20000F4801F013FA69460E4801F00FFA00234C
:100D30001A4603210A4801F0D3F900231A46032179
:100D4000084801F0CDF90121054801F0BDF9012164
:100D5000044801F0B9F907B000BD000000080140E7
:100D6000002C01400004004030B500228B071C0F0E
:100D70000F2303FA04F20B4B8C1053F824309343E7
:100D8000084C8D1044F8253023468C1053F824303D
:100D90008C07240F00FA04F42343024C8D1044F80E
:100DA000253030BD080001402DE9F0410246002504
:100DB0000026002000230024002791F803C00CF037
:100DC0000F0591F803C00CF0100CBCF1000F03D01C
:100DD00091F802C04CEA050591F800C0BCF1000F83
:100DE00031D0146800202BE04FF0010C0CFA00F316
:100DF000B1F800C00CEA03069E4220D183004FF0F8
:100E00000F0C0CFA03F7BC4305FA03FC4CEA04048C
:100E100091F803C0BCF1280F06D14FF0010C0CFA79
:100E200000FCC2F814C00AE091F803C0BCF1480FFE
:100E300005D14FF0010C0CFA00FCC2F810C0401CA8
:100E40000828D1D31460B1F800C0BCF1FF0F34DD25
:100E5000546800202EE000F1080C4FF0010808FA59
:100E60000CF3B1F800C00CEA03069E4221D18300C6
:100E70004FF00F0C0CFA03F7BC4305FA03FC4CEAE5
:100E8000040491F803C0BCF1280F05D100F1080C4F
:100E900008FA0CF8C2F8148091F803C0BCF1480FAE
:100EA00007D100F1080C4FF0010808FA0CF8C2F85D
:100EB0001080401C0828CED35460BDE8F081024663
:100EC000002093680B400BB1012000E00020704728
:100ED000416170470161704710B51D49886C002160
:100EE000FFF74CFC16D200224FF48051194800F055
:100EF00033F801225103174800F02EF800224FF476
:100F00008041144800F028F80122D103114800F074
:100F100023F81BE00E49886C0021FFF725FC15D251
:100F2000012211030B4800F017F800224FF4005182
:100F3000084800F011F801229103064800F00CF86F
:100F400000224FF40041034800F006F810BD0000F5
:100F500090000020000C01400AB1016100E04161F5
:100F6000704700BFFEE7000008B50121082000F02F
:100F70003FFE10208DF803004FF47040ADF80000E4
:100F800003208DF8020069460648FFF70DFF4FF475
:100F900020410448FFF79EFF4FF4A0410148FFF7AE
:100FA00097FF08BD000C014010B500F0D1FB01F027
:100FB00074FA00F08DFDFFF769FE064800F058FD59
:100FC000FFF7D2FF00F0BCF903F0DEFB00F004F8FD
:100FD00010BD0000900000201FB50121042000F08A
:100FE00007FE0121084600F003FE4FF48050ADF8E3
:100FF000000048208DF8030003208DF802006946A8
:101000001248FFF7D1FE0C210020FFF7ADFE4FF490
:101010008050029000208DF80C000C208DF80D00FF
:1010200001208DF80E0002A8FFF7E6FD28208DF8BC
:10103000040000208DF805008DF8060001208DF8D1
:10104000070001A800F0ACFA1FBD00000008014035
:101050002DE9FC4104460D4616466B460622432107
:10106000682000F0C3F90746BFB99DF801009DF85C
:10107000001040EA012000B220809DF803009DF896
:10108000021040EA012000B228809DF805009DF87A
:10109000041040EA012000B230803846BDE8FC81EF
:1010A00010B500200E4908600E48006820F470401A
:1010B0000C4908600846006840F440500860002071
:1010C0000949C1F8AC0100F011F801200449086099
:1010D00000F00CF800200449C1F8A80110BD000080
:1010E000A8812142040C01400080214210B5022059
:1010F000FFF709FD10BD000008B50121084600F00A
:1011000077FD0121082000F073FD4FF44060ADF839
:10111000000010208DF8030003208DF802006946BE
:101120000448FFF741FE4FF440610248FFF7D2FE4A
:1011300008BD0000000C014010B500200E490860F9
:101140000E48006820F470400C49086008460068AA
:1011500040F44050086001200949C1F8AC01FFF794
:10116000C5FF012004490860FFF7C0FF00200449C3
:10117000C1F8A80110BD0000A8812142040C014063
:101180000080214270B5054600241648006820F40E
:101190007040144908600846006840F40040086048
:1011A000002614E0002010490860FFF79FFF01208F
:1011B0000E49C1F8A8016006040E0B487C3800688F
:1011C00008B1601CC4B2FFF791FF701CC6B2082EB4
:1011D000E8DB15B9FFF7B0FF01E0FFF761FF20463C
:1011E00070BD0000040C0140A88121420080214212
:1011F00070B504461248006820F470401049086039
:101200000846006840F44050086000200D4908601E
:10121000002512E0E0090B49091D08606006040E74
:1012200001200949C1F8A801FFF760FF0020054926
:101230000860FFF75BFF681CC5B2082DEADB70BDD4
:10124000040C0140A88121420080214210B50E48C3
:10125000006820F470400C4908600846006840F4BB
:10126000405008600120094908600949C1F8A801F7
:10127000FFF73CFF002005490860FFF737FF00201B
:101280000349C1F8A80110BD040C0140AC81214202
:101290000080214210B50E48006820F470400C49CF
:1012A00008600846006840F4405008600020094982
:1012B00008600949C1F8AC01FFF718FF0120054992
:1012C00008600549C1F8AC01FFF710FF10BD000030
:1012D000040C0140A88121420080214210B5002465
:1012E0001448006820F470401249086008460068FD
:1012F00040F40040086001200F490860FFF7F6FE47
:1013000001200E49C1F8A801FFF7F0FE07E0601CBC
:10131000C4B2FA2C03DDFFF7BDFF012010BD064863
:10132000803800680028F2D10349091F086000BF17
:10133000F4E70000040C0140AC812142008021420E
:1013400010B5FFF7D9FE80216B2000F0D3F86420A0
:10135000FFF7CDFB00216B2000F0CCF8032000F05C
:1013600087F8002000F07CF8642000F0A6F8002147
:10137000382000F0BFF800216A2000F0BBF80021FF
:10138000232000F0B7F8752000F013F80446682C0D
:101390000BD101216B2000F0ADF800216C2000F092
:1013A000A9F8322000F089F801E0012010BD0020EA
:1013B000FCE770B50446FFF749FFD020FFF718FFA0
:1013C000FFF78CFF2046FFF713FFFFF787FFFFF7BC
:1013D0003DFFD120FFF70CFFFFF780FF0020FFF754
:1013E000D1FE0546FFF756FF284670BD2DE9F041B6
:1013F00006460F4614461D46FFF728FF002141EA26
:101400004601C8B2FFF7F4FEFFF768FF20B1FFF70F
:1014100041FF0120BDE8F0813846FFF7E9FEFFF704
:101420005DFFFFF713FF012101EB4601C8B2FFF793
:10143000DFFEFFF753FF0DE0012C04D10020FFF782
:10144000A1FE287003E00120FFF79CFE2870601EBB
:10145000C4B26D1C002CEFD1FFF71CFF0020D9E7B0
:1014600010B50446E006010E1C2000F043F810BD44
:1014700010B50446E006010E1B2000F03BF810BD3D
:1014800070B504460025BC2C01DB012510E0622C60
:1014900001DB02250CE02A2C01DB032508E0142CDB
:1014A00001DB042504E00A2C01DB052500E006250C
:1014B00029461A2000F01EF870BD70B50446B4F538
:1014C0007A7F01DD4FF47A74042C00DA04244FF49F
:1014D0007A7090FBF4F0401EC5B22946192000F046
:1014E00009F80546264604EBD671C1F34F00FFF715
:1014F000C7FF70BD70B505460C46FFF7A7FED020AC
:10150000FFF776FEFFF7EAFE18B1FFF7C3FE0120F2
:1015100070BD2846FFF76CFEFFF7E0FE2046FFF7A0
:1015200067FEFFF7DBFE18B1FFF7B4FE0120EFE71F
:10153000FFF7B0FE0020EBE72DE9F04105460E462F
:1015400017469846FFF782FE002141EA4501C8B2DE
:10155000FFF74EFEFFF7C2FE20B1FFF79BFE012012
:10156000BDE8F0813046FFF743FEFFF7B7FE0024E9
:101570000CE018F80400FFF73BFEFFF7AFFE18B1D0
:10158000FFF788FE0120EBE7601CC4B2BC42F0DB31
:10159000FFF780FE0020E3E700BFFEE77047000092
:1015A00070B5002100230F22C47804B3154C2468C1
:1015B00004F4E064C4F5E064210AC1F10403CA4004
:1015C000447804FA03F184781440214309010E4C55
:1015D0000678A155047804F01F050124AC40057875
:1015E0006D11AD0005F1E025C5F8004109E0047872
:1015F00004F01F050124AC40044D0678761145F82F
:10160000264070BD0CED00E000E400E080E100E069
:1016100002490143024A1160704700000000FA05C8
:101620000CED00E070B500240EE00021204600F033
:10163000F0F8002504E0002000F00AFA681CC5B2AA
:10164000802DF8DB601CC4B2082CEEDB70BD0000FE
:1016500008B50121082000F0CBFA14208DF8030012
:1016600003208DF802004FF48070ADF80000694649
:101670000A48FFF799FB4FF40070ADF80000694687
:101680000648FFF791FB012211020448FFF764FCB2
:10169000012251020148FFF75FFC08BD000C014028
:1016A00070B50546002415E08020204100EA0502BF
:1016B0004FF400710E48FFF74FFC012211020C4855
:1016C000FFF74AFC00224FF480710948FFF744FC01
:1016D000601CC4B2082CE7DB012211020448FFF7AA
:1016E0003BFC00224FF480710148FFF735FC70BDD0
:1016F000000C014010B5012251020A48FFF72CFCF2
:10170000012211020748FFF727FC00224FF4007165
:101710000448FFF721FC00224FF480710148FFF7D5
:101720001BFC10BD000C014010B500224FF40071ED
:101730000648FFF711FC012211020448FFF70CFCD8
:10174000012251020148FFF707FC10BD000C0140C7
:1017500070B5002406E0002500E06D1CB5F57A7F29
:10176000FBD3641CB4F57A7FF5D3FFF771FFAE208D
:1017700000F05EF9D52000F05BF9802000F058F908
:10178000A82000F055F93F2000F052F9D32000F0D6
:101790004FF9002000F04CF9402000F049F9A12059
:1017A00000F046F9C82000F043F9DA2000F040F9D3
:1017B000122000F03DF9812000F03AF9CF2000F02E
:1017C00037F9D92000F034F9F12000F031F9DB20AD
:1017D00000F02EF9302000F02BF9A42000F028F9B9
:1017E000A62000F025F98D2000F022F9142000F049
:1017F0001FF9AF2000F01CF9FFF714FF70BD10B502
:101800000246012000E050430B1EA1F10101FAD174
:1018100010BD70B505460C4645F0B00000F008F963
:10182000102141EA141000F003F904F00F0000F059
:10183000FFF870BD2DE9F04105460E461746721EB1
:10184000D206110E6A1E5206100EFFF7E2FF0024A8
:1018500009E0A7F12001134A02EB0111085D00F035
:10186000F7F8601CC4B2082CF3DB721ED206110E0E
:101870006A1E012303EB4202D0B2FFF7CAFF002425
:101880000BE0A7F12001074A02EB011204F1080165
:10189000505C00F0DDF8601CC4B2082CF1DBBDE840
:1018A000F0810000545900082DE9FF4F83B00C4629
:1018B00015461E46DDF840902846FEF7E1FE074635
:1018C0003846FEF7CFFE83462946FEF7D0FC804619
:1018D00000212846FEF752FF0CD82B222146039800
:1018E000FFF7A8FF601CC1B233463A46039800F0E8
:1018F00036F80CE07F422D2221460398FFF79AFF2D
:10190000601CC1B233463A46039800F028F8002123
:101910004046FEF729FF01D288F0004849460A20D8
:10192000FFF76DFF0190FEF7A6FE41460290FEF71D
:10193000A1FC8346FEF7A4FE8246A019401CC1B25A
:101940002E220398FFF776FFA019801CC1B24B46E8
:101950005246039800F003F807B0BDE8F08F2DE978
:10196000F04780460E4617461D46002415E0281B0A
:10197000411E0A20FFF743FFB7FBF0F00A21B0FB3E
:10198000F1F201FB120000F130093019C1B24A46F0
:101990004046FFF74FFF601CC4B2AC42E7DBBDE836
:1019A000F0872DE9F0478146884615461E46002DF2
:1019B00006DB2B2241464846FFF73CFF2F4605E059
:1019C0002D2241464846FFF735FF6F42002417E0BD
:1019D000301B411E0A20FFF712FFB7FBF0F00A216F
:1019E000B0FBF1F201FB120000F1300A08EB040039
:1019F000401CC1B252464846FFF71CFF601CC4B2EF
:101A0000B442E5DBBDE8F0872DE9F04107460E461C
:101A10001546002407E02A5D3019C1B23846FFF7A9
:101A200009FF601CC4B2285D0028F4D1BDE8F08134
:101A300010B50446FFF75EFE7820FFF731FE002068
:101A4000FFF72EFE2046FFF72BFEFFF76DFE10BDC1
:101A500010B50446FFF74EFE7820FFF721FE402028
:101A6000FFF71EFE2046FFF71BFEFFF75DFE10BDD1
:101A7000002101608160C16041618161C1610162D9
:101A800041628162C162016341638163C163016438
:101A9000416481647047000010B504460948206025
:101AA0004FF07F50A060084860620849606AFEF706
:101AB00013FCA0624FF07E50A0634FF08040606442
:101AC00010BD0000000048C36666663F0000484342
:101AD00000B589B00121042000F07AF80121082026
:101AE00000F086F818208DF823004020ADF8200083
:101AF00003208DF8220008A92848FFF755F918207F
:101B00008DF823008020ADF8200003208DF82200FE
:101B100008A92248FFF748F9214800F07FFB002080
:101B2000ADF81A00ADF8160041F61F40ADF81800E8
:101B30000020ADF814008DF81C0005A9184800F02D
:101B40004DFC01A800F00EFC6020ADF80400002060
:101B5000ADF80C000120ADF806000020ADF80A0039
:101B600001A90F4800F060FB01A800F0FBFB60201A
:101B7000ADF804000020ADF80C000120ADF806001F
:101B80000020ADF80A0001A9054800F099FB0121E9
:101B9000034800F099FA09B000BD0000000C0140B4
:101BA0000008004010B504462146024800F0E4FB5E
:101BB00010BD00000008004010B504462146024850
:101BC00000F0DCFB10BD0000000800407047000082
:101BD00029B1064AD2690243044BDA6104E0034AA0
:101BE000D2698243014BDA61704700000010024065
:101BF00029B1064A92690243044B9A6104E0034A00
:101C000092698243014B9A617047000000100240C4
:101C10007047000010B504462146054800F0C3FC9B
:101C200000BF8021024800F0ACFC0028F9D010BDB4
:101C30000038014010B500F001F810BD0CB50020CF
:101C4000019000903348006840F4803031490860CA
:101C500000BF3048006800F4003000900198401C3C
:101C60000190009818B90198B0F5A06FF1D12948FA
:101C7000006800F4003010B10120009001E0002065
:101C800000900098012843D12348006840F01000DC
:101C9000214908600846006820F0030008600846F3
:101CA000006840F0020008601A484068194948601E
:101CB0000846406848600846406840F480604860D4
:101CC0000846406820F47C1048600846406840F4AC
:101CD000E81048600846006840F08070086000BF67
:101CE0000C48006800F000700028F9D009484068EE
:101CF00020F00300074948600846406840F00200B1
:101D0000486000BF0348406800F00C000828F9D183
:101D10000CBD000000100240002002402DE9FF47EA
:101D200004460D46164631462846FEF74BFA07464E
:101D3000A16BFEF799FAE06328480068FEF7CDFC36
:101D400007464FF06632264BFEF7ABFB81468A46CC
:101D5000E06BFEF7C2FC07464FF03332214BFEF733
:101D6000A0FB4A465346CDE90001FEF7F3FACDE960
:101D70000201FEF7DDFC1C490860084600681749AF
:101D800008601948016819480068FEF71BFA1749EE
:101D90000860174915480068FEF7F0FC02D21448A5
:101DA00012490860134911480068FEF7DDFC02D2B1
:101DB00010480E4908600D48A16A0068FEF75AFAFB
:101DC00007460948616A0068FEF754FA80463946BA
:101DD000FEF7F8F96063BDE8FF870000700000209F
:101DE0006666E63F3333D33F6C000020740000206A
:101DF00000401C4600401CC67047000010B5134848
:101E0000006840F001001149086008464068104928
:101E100008400E494860084600680E4908400B49D2
:101E200008600846006820F4802008600846406882
:101E300020F4FE0048604FF41F008860FFF7FAFEB0
:101E40004FF000600449086010BD0000001002401F
:101E50000000FFF8FFFFF6FE08ED00E0F0B50C46CD
:101E6000154600220021068C4FF6FE773E40068480
:101E7000028B018C4FF60C7632407E1C06EA03166C
:101E80002E433243104EB0420ED0104EB0420BD013
:101E9000B0F1804F08D00E4EB04205D00D4EB0428A
:101EA00002D00D4EB04206D14FF6FD76314044F0DF
:101EB0000106314305E04FF6F576314044F0010666
:101EC000314302830184F0BD002C01400034014005
:101ED0000004004000080040000C0040F0B50C4633
:101EE0001546002200210026078C4FF6EF7C07EAFA
:101EF0000C070784028B018C4FF6FF7707EA041664
:101F000040F6FF473A404FF6FF7707EA03373A4378
:101F10004FF6FF7707EA05273A43114FB8420ED034
:101F2000104FB8420BD0B0F1804F08D00E4FB842DE
:101F300005D00E4FB84202D00D4FB84206D14FF631
:101F4000DF77394046F01007394305E04FF65F77F9
:101F5000394044F01007394302830184F0BD00008A
:101F6000002C014000340140000400400008004003
:101F7000000C0040F0B50C4615460022002100265A
:101F8000078C4FF6FF6C07EA0C070784828B018CE5
:101F90004FF6FF7707EA04264FF60C773A404FF6E4
:101FA000FF7707EA03172F433A43114FB8420ED089
:101FB000104FB8420BD0B0F1804F08D00E4FB8424E
:101FC00005D00E4FB84202D00D4FB84206D14FF6A1
:101FD000FF57394046F48077394305E04FF2FF5709
:101FE000394044F48077394382830184F0BD000096
:101FF000002C014000340140000400400008004073
:10200000000C0040F0B50C461546002200210026C9
:10201000078C4EF6FF7C07EA0C070784828B018C45
:102020004FF6FF7707EA043640F6FF473A404FF68F
:10203000FF7707EA05273A434FF6FF7707EA0337AA
:102040003A43114FB8420ED0104FB8420BD0B0F106
:10205000804F08D00E4FB84205D00E4FB84202D084
:102060000D4FB84206D14DF6FF77394046F4805700
:10207000394305E047F6FF57394044F48057394368
:1020800082830184F0BD0000002C01400034014037
:102090000004004000080040000C004010B5012181
:1020A000880700F041F8012805D103490870012193
:1020B000800700F006F810BD64000020CA430282C9
:1020C0007047CA430282704721B1028842F0010280
:1020D000028004E002884FF6FE731A4002807047C7
:1020E000F0B50C4615461E4600210022002301894A
:1020F000028B038C4FF6F877394021434FF6FC47AB
:102100003A4040F201173A434FF6DD773B404FF635
:10211000FF7707EA06172F433B43018102830384BD
:10212000F0BD0146888C704730B502460020002380
:102130000024158A05EA0103958905EA010413B113
:102140000CB1012000E0002030BD000070B5054654
:102150000C46244885420ED0234885420BD0B5F169
:10216000804F08D02148854205D02148854202D0C1
:102170002048854200D100E000BF208850B9238963
:10218000A28861882846FFF769FEE188284600F0AA
:10219000F9F825E0208804280AD12389A2886188DB
:1021A0002846FFF79BFEE188284600F0F4F817E088
:1021B000208808280AD12389A28861882846FFF749
:1021C000D9FEE188284600F0F3F809E02389A288C7
:1021D00061882846FFF716FFE188284600F0F1F8ED
:1021E00070BD0000002C014000340140000400409C
:1021F00000080040000C00400021018041800121C6
:1022000081800021C180018170471AB183890B430D
:10221000838102E083898B438381704701894FF674
:10222000F87211400181704770B50024002200232C
:10223000058C4FF6FE7635400584028C8388048B2E
:102240004FF68F752C40B51E2C400D882C43751E03
:102250002A400D892A434D882A43144DA8420BD0A9
:10226000134DA84208D0134DA84205D0124DA842E4
:1022700002D0124DA84213D14FF6F7752A404D896E
:102280002A434FF6FB752A408D882A434FF6FF6597
:102290002B404FF6FF552B408D892B43CD892B4387
:1022A00083800483CD888586028470BD002C014024
:1022B000003401400040014000440140004801401A
:1022C00070B5002400220023058C4FF6EF763540D0
:1022D0000584028C8388048B48F6FF752C404FF6EA
:1022E000FF452C400D884FF6FF7606EA05252C4366
:1022F0004FF6DF752A400D8906EA05152A434D88F9
:1023000006EA05152A43154DA84202D0144DA842ED
:102310001DD14FF67F752A404D894FF6FF7606EAAC
:1023200005152A434FF6BF752A408D8806EA051524
:102330002A434FF6FF352B404FF2FF752B408D8916
:1023400006EA85052B43CD8906EA85052B43838064
:102350000483CD880587028470BD0000002C0140F5
:10236000003401400021018041808180C1800181D1
:1023700041818181C18170478186704701877047A3
:1023800081847047028B4FF6F3731A400283028BED
:102390000A4302837047028B4FF2FF331A400283D5
:1023A000028B4FF6FF7303EA01231A43028370473F
:1023B000828B4FF6F3731A408283828B0A438283A7
:1023C0007047828B4FF2FF331A408283828B4FF625
:1023D000FF7303EA01231A438283704700220288B5
:1023E0001D4B98420ED01D4B98420BD0B0F1804F40
:1023F00008D01B4B984205D01A4B984202D01A4B7A
:10240000984204D14FF68F731A404B881A43174BEA
:10241000984207D0164B984204D04FF6FF431A401B
:10242000CB881A4302808B8883850B8803850A4BEF
:1024300098420BD0094B984208D00E4B984205D0D9
:102440000D4B984202D00D4B984201D10B7A038676
:102450000123838270470000002C014000340140BA
:102460000004004000080040000C00400010004044
:102470000014004000400140004401400048014079
:1024800070B5044600252046FFF74BFE05B200213B
:102490002046FFF775FF284670BD1FB5012108468D
:1024A000FFF796FB4FF08040FFF7B8FE0020ADF835
:1024B0000A00ADF8060040F2E730ADF8080041F63A
:1024C0001F40ADF8040000208DF80C0001A94FF06A
:1024D0008040FFF783FF01218807FFF7EFFD01220E
:1024E00011469007FFF791FE1C208DF80000012097
:1024F0008DF8030002208DF801008DF80200684677
:10250000FFF74EF801218807FFF7DEFD1FBD000031
:1025100070B504460548B0F90000FEF7A3F805467B
:10252000616CFDF7A7FE206470BD00004000002034
:1025300010B52021084800F024F860B1064800F0EA
:102540002DF80649087001200549087040F2255110
:10255000014800F007F810BD003801405800002085
:102560005900002010B50022002340F66A14A14251
:1025700000D100BF0A1201249440A3B2DC430480BE
:1025800010BD02460020B1F5007F00D100BF1388C6
:102590000B400BB1012000E0002070470146888805
:1025A000C0F308007047C1F308028280704700BF83
:1025B000FEE700000FB4054B10B503A9044A0298CA
:1025C00000F09AF810BC5DF814FB0000D53B000841
:1025D00078000020490050EAC12018BF04204A0DAD
:1025E00018BF40F0010040F2FF72B2EB515F08BF2C
:1025F00040F00200012808BF052070472DE9F04196
:102600004F1E00EBC7010446D1E9000115461E46E6
:1026100037F006020DD02A463346FDF742FF7F1EF3
:1026200004EBC703D3E90023FDF794FE37F006025D
:10263000F1D1022F25D0042F13D0062F18BFBDE8EB
:10264000F0812A463346FDF72CFFD4E90A23FDF733
:1026500081FE2A463346FDF724FFD4E90823FDF71F
:1026600079FE2A463346FDF71CFFD4E90623FDF721
:1026700071FE2A463346FDF714FFD4E90423FDF723
:1026800069FE2A463346FDF70CFFD4E90223FDF725
:1026900061FE2A463346FDF704FFD4E90023BDE876
:1026A000F041FDF757BE0122FEF758B9FDF752BEC3
:1026B0000022134610461146FDF765BF024A00206E
:1026C0001107FEF74BB9000001FDFFFF02E008C84B
:1026D000121F08C1002AFAD170477047002001E09C
:1026E00001C1121F002AFBD1704700000149086098
:1026F000704700007C0000202DE9FF4F8DB00F4691
:102700000546002606E025280BD0DDE90F1290478C
:102710006D1C761C28780028F5D111B03046BDE834
:10272000F08F0024A246A1460122EC4900E00443B8
:1027300015F8013F203B02FA03F00842F7D1287850
:102740002A2810D06FF02F022878A0F13001092933
:1027500014D80AEB8A0102EB410144F0020400EBB9
:10276000010A6D1CF0E701CF5FEA000A03D544F4CB
:102770000054CAF1000A44F002046D1C28782E2887
:1027800017D115F8010F44F004042A280ED06FF079
:102790002F022878A0F1300109290AD809EB890114
:1027A00002EB410100EB01096D1CF2E757F8049BB5
:1027B0006D1C28786C280FD006DC4C2817D06828B0
:1027C0000DD06A2814D104E0742810D07A280FD1D3
:1027D0000DE044F400140AE044F4801401E044F4F1
:1027E00040146978814202D104F580146D1C6D1C7F
:1027F0002A786E2A1FD00CDC632A31D004DC002A30
:102800008BD0582A11D1A3E0642A68D0692A0CD150
:1028100065E0732A2ED004DC6F2A73D0702A04D1AD
:102820009BE0752A6FD0782A6ED01046DDE90F1232
:102830009047761C50E1C4F30250022806D00328CA
:1028400009D0042801CF09D0066045E101CFF11776
:10285000C0E9006140E101CF06803DE106703BE147
:1028600017F8040B8DF8000000208DF80100EB46EE
:10287000012003E057F804BB4FF0FF3061074FF031
:10288000000102D40DE008F10101884649450FDA44
:102890008045F8DB1BF808100029F4D108E008F1A6
:1028A000010188468142FADB1BF808100029F6D1A5
:1028B000DDE90F23AAEB08008146214600F036F936
:1028C000304400EB080604E0DDE90F121BF8010BB1
:1028D0009047B8F10108F7D221464846F7E00A21AF
:1028E000C4F302534FF0000B0891022B04D001CF28
:1028F000C117032B09D00AE0FF1D27F00707F7E8EF
:10290000020108E032E01FE020E000B2C117042B12
:1029100001D140B2C117031E71F1000307DA4FF075
:10292000000CD0EB0C006CEB01012D2302E0230521
:1029300004D52B238DF82430012303E0E30701D0D5
:102940002023F7E7984658E00A2110E010210EE016
:1029500010204FF0000B08900CE010214FF0000BFE
:1029600044F004044FF00809089103E008214FF0F7
:10297000000B0891C4F30253022B04D001CF0021B5
:10298000032B06D006E0FF1D27F00707F7E802013A
:1029900003E080B2042B00D1C0B24FF0000823073F
:1029A0002BD5702A07D0DDF820C08CF0100C5CEA23
:1029B0000B0C05D00EE040238DF82430012308E0F5
:1029C00050EA010306D030238DF824308DF82520FD
:1029D00002239846DDF820C08CF0080C5CEA0B0C52
:1029E0000BD150EA010301D1630706D530238DF8DE
:1029F00024304FF00108A9F10109582A04D038A267
:102A00000B9208AA0A920BE03AA2F9E75B46089AF1
:102A1000FDF7BEFE0B9B9B5C0A9A521E0A92137036
:102A200050EA0102F2D10A98ADEB000000F1200B50
:102A3000600702D524F4803401E04FF00109D94544
:102A400002DDA9EB0B0000E0002000EB0B0141448C
:102A50000890AAEB010AE00306D4DDE90F23214622
:102A6000504600F063F806444FF0000908E009A959
:102A700011F80900DDE90F12904709F10109761CF0
:102A8000C145F4DBE0030CD5DDE90F2321465046B8
:102A900000F04CF8064404E0DDE90F1230209047C6
:102AA000761C0899481E08900029F5DC08E00A9871
:102AB0000A990078491C0A91DDE90F129047761CAB
:102AC000BBF10001ABF1010BF1DC21465046DDE921
:102AD0000F2300F019F806446D1C1BE609280100BD
:102AE0003031323334353637383961626364656684
:102AF0000000000030313233343536373839414246
:102B000043444546000000002DE9F04104460025FD
:102B10001E461746880404D405E039462020B047F5
:102B20006D1C641EF9D52846BDE8F0812DE9F04101
:102B3000044600251E469046C80301D5302700E014
:102B40002027880404D505E041463846B0476D1C6F
:102B5000641EF9D52846BDE8F08100002DE9FE4F3E
:102B6000074688460026684601F03CF8002444E009
:102B700057F8240058F82410A0EB010ABAF1000F0E
:102B800001DB514601E0CAF100010846FDF76AFD8C
:102B900083464FF08F41FDF79FFB81465DF824008F
:102BA0000021FDF7E1FD18D05DF824104846FDF73F
:102BB00093FB82464FF07E51FDF756FB054600BF62
:102BC00025F0004082460F48416A5046FDF7D6FD89
:102BD00012D20120A04006430EE00A48C1694846CF
:102BE000FDF7C2FD05D30748016A4846FDF7C6FD5B
:102BF00002D20120A0400643641C032CB8DB3046FF
:102C0000BDE8FE8F6C5F00082DE9F04D8D4F21F07F
:102C1000004A86B005460C46BA452ADBAAEB0700F7
:102C200028430AD08848824501DC1AD1CDB106B0CC
:102C30002846BDE8F04DFFF736BD844A844B284650
:102C4000FDF72FFC07460E46824A834B2846214655
:102C5000FDF727FC06B03A463346BDE8F04DFDF7D8
:102C600079BB0120FFF742FD06B0BDE8F04DFFF74C
:102C70001FBD7A48824542DABAF1795F0BDA2846FD
:102C8000FFF7A8FC042808BFFFF718FD284606B088
:102C90002146BDE8F08D2A460B461046FDF701FCA3
:102CA000834602466E480E460B4606217844FFF7DF
:102CB000A5FC5A463346FDF7F4FB804669488A4630
:102CC0005A46334604217844FFF798FC5A46334667
:102CD000FDF7E7FB00223B46FDF73CFB02460B46B7
:102CE00040465146FDF74FFC2A462346FDF7D9FBE7
:102CF00006B02A462346BDE8F04DFDF72BBB28461B
:102D000024F0004100223D463B46FDF7C7FB4FF053
:102D1000FF32FDF723FE0646024653480F460B4698
:102D200006217844FFF76AFC32463B46FDF7B9FBC3
:102D3000CDE900014D4832463B4604217844FFF777
:102D40005DFC32463B46FDF7ACFB00222B46FDF70F
:102D500001FB834602913046394602F0D5FD80469C
:102D600043480D46504517DCDDE900015A46029BF9
:102D7000FDF709FC42462B46FDF793FB42462B46E6
:102D8000FDF7E8FA0122FDF7E9FD304A304BFDF787
:102D900082FB304A304B4CE04FF0000A52460B4663
:102DA0004046FDF7D7FACDE9031052462B461046B0
:102DB0001946FDF776FB32463B46FDF76FFBDDE932
:102DC0000332FDF7E0FB06460F46DDE900015A46F7
:102DD000029BFDF7D8FB834600910122304639461D
:102DE000FDF7BCFD194A1A4BFDF758FB06460F4686
:102DF000012240462946FDF7B1FD5A46009BFDF7EA
:102E000050FB32463B46FDF746FB06460F46012285
:102E100050462946FDF7A2FD0E4DDFF858802A46A0
:102E20004346FDF73BFB32463B46FDF737FB2A4660
:102E30004346FDF733FB002CD8BF81F0004106B0BC
:102E4000BDE8F08D0000F03F0000F07F075C143318
:102E500026A6913C182D4454FB21F93F0000E03F89
:102E6000E03E0000F63E00006A3E0000803E0000AA
:102E70003333EF3FFB21E93F2DE9F84F04460D4680
:102E800021F0004000917349814211DC724988426F
:102E900001DC06D12CB120462946BDE8F84FFFF7EA
:102EA00002BC6E48002DCCBF6D496E49BDE8F88F5D
:102EB0006D49814211DD6D498142D8BF4FF0FF3627
:102EC0006DDD20462946FFF785FB042808BFFFF784
:102ED000F5FB20462946BDE8F88F6549654F25F08A
:102EE0000045814233DD6449814219DD00263246C6
:102EF0004FF0804320462946FDF72CFA80468A464B
:102F0000012220462946FDF729FD00223B46FDF718
:102F1000C2FA42465346FDF736FB04460D463EE0F4
:102F200001260022BA463B4620462946FDF712FA02
:102F300080460F460022534620462946FDF7ABFA4D
:102F400042463B46FDF71FFB04460D4627E04B4932
:102F500081421BDDDFF828A10226002253462046CD
:102F60002946FDF79EFA00223B46FDF7F3F980461D
:102F70000F460022534620462946FDF78CFA42466A
:102F80003B46FDF700FB04460D4608E003262246BB
:102F90002B4600203B49FDF7F6FA04460D46224633
:102FA0002B4610461946FDF77CFA8B4682460246B0
:102FB0000B46FDF776FA07460246334888460B462D
:102FC00006217844FFF71AFB52465B46FDF769FA83
:102FD00082462E488B463A46434605217844FFF701
:102FE0000DFB3A464346FDF75CFA02460B46002EBF
:102FF000504659460CDAFDF7ADF922462B46FDF74F
:1030000050FA01B022462B46BDE8F04FFDF746BA14
:10301000FDF7A0F922462B46FDF743FA1C4A7A44F5
:1030200002EBC603D3E90023FDF735FA22462B460F
:10303000FDF731FA174A7A4402EBC603D3E90023BD
:10304000FDF72CFA009A002AB8BF81F00041BDE8D4
:10305000F88F0000000010440000F07F182D445449
:10306000FB21F93FFB21F9BF0000DC3F0000203EBF
:103070000000F33F0000F03F0000E63F0080034007
:103080000000F83F0000F0BF823C0000403C000020
:10309000DE3B0000A63B00002DE9F04D9446CCF14C
:1030A000000423F000464CEA0404524F46EAD4746C
:1030B0009A46884621F00042BC4206D8454240EA82
:1030C000050442EAD474BC4204D9BDE8F04D62461E
:1030D000FFF7ECBAAAF14055A5F17F6555EA0C045B
:1030E0000BD0022404EAAA74434DDFF810E144EA4D
:1030F000D87452EA000B04D00CE0BDE8F04DFFF7A5
:10310000BBBE002C14BF012CBDE8F08D022C30D0CA
:10311000032C32D056EA0C0B0AD0BE4220D1BA4260
:1031200009D126F0804622F080423346114617E04E
:1031300000291ADB25E0DFF8C8B0FB44002C04BFEF
:10314000DBE90001BDE8F08D012C02BFDBE90001E5
:1031500081F00041BDE8F08D022C0AD0032C0CD088
:10316000BA4212D1B8F1000F0BDA23482549BDE865
:10317000F08D28462449BDE8F08D28467146BDE80B
:10318000F08D1D482149BDE8F08D921B12153C2A97
:10319000C4BF19481D490EDCBAF1000FBEBF12F1C1
:1031A0003C0F0020014606DB6246FDF7ECF921F0FA
:1031B0000041FFF761FE002C08BFBDE8F08D012C37
:1031C00004BF81F00041BDE8F08D114A114B022C83
:1031D00007D0FDF760F92A46BDE8F04D0A4BFDF730
:1031E0005AB9FDF758F92A46BDE8F04D064BFDF7F0
:1031F00055B900000000F07F182D4454FB2109C090
:103200003A3B0000FB21F9BFFB210940FB21F93FBC
:10321000075C143326A6A13C2DE9F0410446E07872
:1032200000F0C006E07800F03F05607800F0010093
:1032300098B1EF102846E91705EB5171C910A5EBBD
:10324000C101491C01F0FF080B48006820B10A4881
:10325000414602683846904700BF607800F0080099
:1032600030B10548406818B1B011034A5168884729
:103270000020BDE8F08100008000002038B5044641
:1032800064B120208DF8000028208DF80100302046
:103290008DF8020038208DF8030004E0A3220421F9
:1032A0006846FCF770FF6A46042140F69E2002F053
:1032B0000DFA01F0F7FD38BD3EB5044602208DF849
:1032C0000000CA208DF80100E3208DF802000920DB
:1032D0008DF803006A460421682002F0F7F9A32064
:1032E0008DF8000004F0400048B1C0208DF80100C6
:1032F000C8208DF80200C2208DF8030006E0A3204C
:103300008DF801008DF802008DF8030004F4C07000
:1033100048B1C4208DF80400CC208DF80500C620EB
:103320008DF8060006E0A3208DF804008DF8050056
:103330008DF80600A3208DF807008DF808008DF8A1
:1033400009006A460A2140F6A72002F0BFF904F0FE
:10335000030018B120208DF8000002E0D8208DF87D
:1033600000006A46012140F6B62002F0AFF904F0F1
:10337000200018B1012000F0ADF802E0002000F0BC
:10338000A9F804F4C07008B304F4807060B1B220EE
:103390008DF800008B208DF80100B6208DF802001A
:1033A0009B208DF803000BE0B0208DF800008020FA
:1033B0008DF80100B4208DF8020090208DF80300F4
:1033C0006A46042140F6A22002F080F904F00100D0
:1033D00020B3F8208DF800006A4601214FF40B60FD
:1033E00002F074F9FA21072000F0FEFA072000F03D
:1033F000C5FA012000F0E5FA642000F0C5FB4FF4A7
:10340000FA7000F0D4FBC821304800F075FA28208B
:1034100000F08EFA0A2000F09EFA08E0D8208DF81D
:1034200000006A4601214FF40B6002F04FF904F0EE
:10343000020018B1D9208DF8000002E0D8208DF8E4
:1034400000006A46012140F23D7002F03FF904F0AD
:10345000040018B1012000F069F802E0002000F03B
:1034600065F804F0100018B10120FFF707FF02E033
:103470000020FFF703FF44F008001549488101F0E0
:1034800011FD00201249887304F0400018B108466D
:10349000807B801D887304F4C07020B10C48807B51
:1034A000801D0B49887304F0140020B10848807B0C
:1034B00010300749887304F0030020B10448807B72
:1034C000001D0349887300203EBD000009E3CA02C5
:1034D000800000203EB504466CB10EA1D1E9002069
:1034E0008968CDE9002002916A4609214FF497606E
:1034F00002F0ECF83EBD0AA2D2E900109268CDE9D4
:10350000010200916A4609214FF4976002F0DEF84B
:10351000F0E70000B8AAB38DB4980D355D00000047
:10352000B8AAAAAAB088C3C5C700000038B5044627
:1035300064B1C0208DF80000C2208DF80100C420C5
:103540008DF80200C6208DF8030004E08B220421D0
:103550006846FCF718FE6A46042140F6982002F0FF
:10356000B5F801F09FFC38BD10B5C8234FF4806258
:10357000034940F6F63001F029FB0446204610BD11
:10358000945F00082DE9F04F8DB007468846154638
:103590009946DDE9166B0024002030806B49887B5A
:1035A0005A4605A901F0DEFB18B1601E0DB0BDE85A
:1035B000F08F6648807A00F01400002867D09DF8EC
:1035C000140000069DF8151040EA01409DF8161001
:1035D00040EA01209DF81710084328609DF8180064
:1035E00000069DF8191040EA01409DF81A1040EAC3
:1035F00001209DF81B10084368609DF81C00000620
:103600009DF81D1040EA01409DF81E1040EA01207F
:103610009DF81F100843A8609DF8200000069DF843
:10362000211040EA01409DF8221040EA01209DF857
:1036300023100843E86004F11000C4B228680014A5
:103640000190686800140290A86800140390E8686C
:103650000014049001984043029901FB0100039972
:1036600001FB0100049901FB010ABAF1706F02DB52
:10367000BAF1885F05DD01F015FC00203080401EA6
:1036800094E7B6F9000040F48070308000BF2F4806
:10369000807A00F0400020B305A9601C085C095D39
:1036A00040EA012000B2A8F8000005A9E01C095C6E
:1036B00005AAA01C105C41EA002000B2A8F8020094
:1036C00005A9601D095C201D105C41EA002000B2C4
:1036D000A8F80400A01DC4B2B6F9000040F008002C
:1036E00030801A48408900F4C07008B305A9601CF6
:1036F000085C095D40EA012000B2388005A9E01CA1
:10370000095C05AAA01C105C41EA002000B2788088
:1037100005A9601D095C201D105C41EA002000B273
:10372000B880A01DC4B2B6F9000040F0700030802F
:103730000648807A00F0030018B105A90819FFF7C0
:103740006BFD484600F0D4FE00202FE780000020EB
:1037500030B585B0044616A207CA02AB07C3C82C11
:1037600003DD4FF0FF3005B030BDC82090FBF4F012
:10377000401E85B2280A8DF80000E8B28DF80100DD
:103780006A46022140F2162001F0A0FF10B14FF06E
:10379000FF30E8E702AA0C2140F6C12001F096FFB5
:1037A00010B14FF0FF30DEE7044884810020DAE7F3
:1037B000FEF2ABC4AAF1DFDFBBAFDFDF8000002089
:1037C00010B586B0044647A00068039046A0006884
:1037D000029046A00068019045A00068009004F0A7
:1037E000030003A9085C8DF8140003A8C4F3C10109
:1037F000405C8DF8150003A8C4F38111405C8DF87E
:10380000160004F0030002A9085C8DF8100002A85D
:10381000C4F3C101405C8DF8110002A8C4F381110A
:10382000405C8DF8120005AA032140F2264001F009
:103830004DFF18B14FF0FF3006B010BD04AA0321B0
:1038400040F22A4001F042FF10B14FF0FF30F3E7A1
:10385000019805900098049004F0040058B19DF878
:10386000140040F001008DF814009DF8100040F0A5
:1038700001008DF8100004F0200058B19DF81500EB
:1038800040F001008DF815009DF8110040F0010096
:103890008DF8110004F4807058B19DF8160040F0C6
:1038A00001008DF816009DF8120040F001008DF81F
:1038B000120005AA03214FF4886001F007FF10B140
:1038C0004FF0FF30B8E704AA032140F2314001F085
:1038D000FDFE10B14FF0FF30AEE706480481002036
:1038E000AAE700004CCD6C000CC92C0036567600BF
:1038F0002646660080000020F8B505460E464FF4C7
:103900007A7095FBF0F000FB06F4200E8DF80000B5
:10391000200C8DF80100200A8DF80200E0B28DF82D
:1039200003006A4604214FF4AE7001F0CFFEF8BDEB
:1039300038B50446052094FBF0F084B220128DF8CF
:103940000000E0B28DF801006A4602214FF4AD702C
:1039500001F0BCFE38BD38B50446052094FBF0F0FC
:1039600084B220128DF80000E0B28DF801006A46A2
:1039700002214FF4AC7001F0A9FE38BD38B5044601
:103980000020009004F0010020B19DF8000040F0FC
:103990003000009004F0020020B19DF8000040F0DB
:1039A0000C00009004F0040020B19DF8000040F0ED
:1039B000030000906A4601214FF4A47001F086FED6
:1039C00038BD38B50446012C01DA012402E0042C8C
:1039D00000DD0424601EC0B200906A46012140F25E
:1039E0004F1001F073FE38BD2DE9FC4706460F4627
:1039F00006F0070010B1B7F5C86F03DD4FF0FF30D8
:103A0000BDE8FC873846FCF736FE81465949FCF78D
:103A100063FC8046684600F007FF9DF8000002281E
:103A200006D0042816D0082826D0102848D135E022
:103A30004FF08D414046FCF71DFC8146FCF739FEF6
:103A400084B24D494046FCF715FC8146FCF731FE37
:103A500085B238E04FF08C414046FCF70BFC8146C4
:103A6000FCF727FE84B245494046FCF703FC81463B
:103A7000FCF71FFE85B226E04FF08B414046FCF775
:103A8000F9FB8146FCF715FE84B23D494046FCF740
:103A9000F1FB8146FCF70DFE85B214E04FF08A4140
:103AA0004046FCF7E7FB8146FCF703FE84B235494C
:103AB0004046FCF7DFFB8146FCF7FBFD85B202E0E8
:103AC0004FF0FF309CE700BF20128DF80400E0B2F9
:103AD0008DF8050028128DF80600E8B28DF8070071
:103AE00006F00100A0B101AA02214FF4EA7001F032
:103AF000EDFD10B14FF0FF3082E70DF1060202211B
:103B00004FF4927001F0E2FD10B14FF0FF3077E713
:103B100006F00200A0B101AA02214FF4EC7001F0FE
:103B2000D5FD10B14FF0FF306AE70DF1060202211A
:103B30004FF4947001F0CAFD10B14FF0FF305FE711
:103B400006F00400A0B101AA02214FF4EE7001F0CA
:103B5000BDFD10B14FF0FF3052E70DF1060202211A
:103B60004FF4967001F0B2FD10B14FF0FF3047E70F
:103B7000002045E700004843000040460000C045E3
:103B8000000040450000C04438B50446052094FBC1
:103B9000F0F085B228128DF80000E8B28DF801002F
:103BA0006A4602214FF4EF7001F090FD38BD38B540
:103BB0000446052094FBF0F085B228128DF8000031
:103BC000E8B28DF801006A4602214FF4ED7001F071
:103BD0007DFD38BD70B504460D46E0B2FEF71AF81B
:103BE000204670BD7CB5054628494968087801AB78
:103BF00004220D21FDF7FAFB08B107207CBD9DF8DA
:103C00000700C0F301109DF8041001F0E00140EA44
:103C1000E1008DF800009DF80700C0F381009DF8D9
:103C2000051001F0E00140EAE1008DF801009DF887
:103C3000070000F003009DF8061001F0E00140EAE3
:103C4000E1008DF8020000241CE01DF8040018B902
:103C5000002045F8240013E00D4845F8240006E054
:103C600055F824000B49FCF705FB45F824001DF826
:103C70000400401EC0B20DF804000028F0D100BFBF
:103C8000601CC4B2032CE0DB0020B7E70400002076
:103C90007B14AE3E1D5A843F2DE9F04F87B0054698
:103CA0000C46914601208DF8100000208DF811007F
:103CB000FE4A1268917CFD4A5268107804AB0222D9
:103CC000FDF73AFC20B14FF0FF3007B0BDE8F08FB0
:103CD000C820FCF70CFF00208DF81000F34A126892
:103CE000D17BF24A5268107804AB0122FDF724FC24
:103CF00010B14FF0FF30E8E7EC4A12685179EB4A17
:103D00005268107804AB0122FDF716FC10B14FF099
:103D1000FF30DAE7E54A1268917CE44A526810788D
:103D200004AB0122FDF708FC10B14FF0FF30CCE7E7
:103D3000DE4A1268D17DDD4A5268107804AB012258
:103D4000FDF7FAFB10B14FF0FF30BEE7D74A12681B
:103D50001179D64A5268107804AB0122FDF7ECFBCA
:103D600010B14FF0FF30B0E70C208DF81000CF4AB3
:103D700012681179CD4A5268107804AB0122FDF720
:103D8000DBFB10B14FF0FF309FE70F20FCF7AFFED9
:103D9000C648806A407A8DF81000C44A126891784B
:103DA000C24A5268107804AB0122FDF7C5FB10B17E
:103DB0004FF0FF3089E7BD48806A007A8DF8100027
:103DC000BA4A12685178B94A5268107804AB012295
:103DD000FDF7B2FB10B14FF0FF3076E7B9F1000FFD
:103DE00007D0B248806A807A40F0E0008DF8100079
:103DF00004E0AE48806A807A8DF81000AB4A126801
:103E00009179AA4A5268107804AB0122FDF794FB1D
:103E100010B14FF0FF3058E7B9F1000F07D0A348B9
:103E2000806AC07A40F0E0008DF8100003E0A048FE
:103E3000C07A8DF810009D4A1268D1799B4A526869
:103E4000107804AB0122FDF777FB10B14FF0FF3083
:103E50003BE7B9F1000F02D0C820FCF748FE402034
:103E60008DF81000914A12681179904A52681078C2
:103E700004AB0122FDF760FB10B14FF0FF3024E7E7
:103E800078208DF81000894A12685179874A526863
:103E9000107804AB0122FDF74FFB10B14FF0FF305B
:103EA00013E783498889FCF722FE00208DF8100073
:103EB0007E4A126851797D4A5268107804AB01221B
:103EC000FDF73AFB10B14FF0FF30FEE6774A12687B
:103ED000917A764A5268107804AB0222FDF786FA8E
:103EE00010B14FF0FF30F0E69DF811009DF8101072
:103EF00040EA012B0C209BFBF0F0C6B20020A8602A
:103F000068602860A06060602060824665E0674A63
:103F10001268D17A654A5268107804AB0C22FDF71A
:103F200065FA10B14FF0FF30CFE69DF811009DF813
:103F3000101040EA012000B2ADF808009DF813000F
:103F40009DF8121040EA012000B2ADF80A009DF879
:103F500015009DF8141040EA012000B2ADF80C00E5
:103F6000BDF90810206808442060BDF90A10606897
:103F700008446060BDF90C10A0680844A0609DF87A
:103F800017009DF8161040EA012000B2ADF80000BD
:103F90009DF819009DF8181040EA012000B2ADF814
:103FA00002009DF81B009DF81A1040EA012000B2A3
:103FB000ADF80400BDF90010286808442860BDF978
:103FC0000210686808446860BDF90410A8680844D5
:103FD000A8600AF1010000F0FF0AB24597DB3448FF
:103FE000D0F800C02868C117090441EA104107044D
:103FF000624600233846FCF795F832460023CDE9A7
:104000000201FCF78FF828602948D0F800C06868E2
:10401000C117090441EA10410704624600233846EB
:10402000FCF780F832460023CDE90201FCF77AF86C
:1040300068601F48D0F800C0A868C117090441EAA9
:1040400010410704624600233846FCF76BF83246FD
:104050000023CDE90201FCF765F8A8601448D0F808
:1040600004C02168C817000440EA11480F046246E2
:10407000002338464146FCF755F832460023CDE987
:104080000201FCF74FF820600948D0F804C06068CE
:10409000C117090441EA104107046246002338466B
:1040A000FCF740F83246002304E000000400002042
:1040B0006C5F0008CDE90201FCF734F8606011483C
:1040C000D0F804C0A068C117090441EA10410704F0
:1040D000624600233846FCF725F832460023CDE936
:1040E0000201FCF71FF8A060A068002804DDA068AA
:1040F000A0F58030A06003E0A06800F58030A060EB
:104100000020E2E56C5F00082DE9FC5F0746884669
:1041100000263F494968087801AB03220D21FDF7CD
:1041200065F910B10720BDE8FC9F9DF8040000F080
:104130001F008DF804009DF8050000F01F008DF8A9
:1041400005009DF8060000F01F008DF80600002411
:1041500059E057F8240058F82410A0EB010BBBF1EC
:10416000000F01DB594601E0CBF100010846FCF7E6
:1041700079FA4FF08F410090FCF7AEF8824601A823
:10418000005D78B323490868FCF775FA8346594601
:104190002148FCF7A1F8814604E020494846FCF795
:1041A00069F8814601A8005D401EC0B201A908550A
:1041B0000028F2D149465046FCF78EF883464FF06E
:1041C0007E51FCF751F8054600BF25F000408346BC
:1041D000104881695846FCF7D1FA13D20120A0405B
:1041E00006430FE0FFE70B4801695046FCF7BCFAB5
:1041F00005D3084841695046FCF7C0FA02D20120B5
:10420000A0400643641C032CA3DB30468BE7000070
:10421000040000206C5F000800B04C4554E3853F6B
:1042200010B50446204600F00FF80346E01C00F0ED
:104230000BF843EAC00083B2A01D00F005F843EA82
:10424000801083B2184610BD014691F90020002A63
:1042500001DD00201EE091F90020002A01DA04208F
:1042600018E091F90120002A01DD012012E091F906
:104270000120002A01DA05200CE091F90220002A31
:1042800001DD022006E091F90220002A01DA062071
:1042900000E007207047000008B5FCF785FE4FF4EA
:1042A000A060FDF7B5F97848FDF7F6FB77A201218C
:1042B0000846FDF7A9FB77A201210220FDF7A4FB28
:1042C00076A201210420FDF79FFB02200346009007
:1042D0007548072102680120FDF7E6FA05237348B7
:1042E000B0F9002007210220FDF75BFB6649486C0E
:1042F000FCF7C6F90446032322460D210220FDF7F0
:1043000050FB61490868FCF7D4F9044604232246AF
:1043100001210320FDF723FB022000905A480123CE
:10432000062182680320FDF7BFFA0220009056485C
:1043300002230B21426A0320FDF7B6FAA3E05C4892
:10434000007801287ED15B4A57495B4800F00AF9A2
:10435000554800684C490862584A59495348FCF787
:1043600077FE5848FEF78CF80446FCF77BF956496F
:1043700008605648FEF784F80446FCF773F9544980
:1043800008604148FEF7C4F83F49486BFCF7A5F9BF
:1043900006464FF066324F4BFCF77DF80446FCF7BB
:1043A000C7F93949C8610846FCF764FB4848026808
:1043B000454801683448FDF7B1FC3348806932490B
:1043C0008864886C4449FCF7D9F903D242482E49E5
:1043D000886408E02C49886C4049FCF7C5F902D292
:1043E0003E48294988643E492F480068FCF7C6F9D1
:1043F0000FD33C492C480068FCF7B6F909D32A488A
:104400000068FCF76AF9044600221346FCF778F9C5
:1044100006D10020FDF7C6FB0020FDF7CDFB1BE019
:10442000FCF75AFD184A116C906CFBF7CBFE054661
:10443000FCF73FF984B22046FDF7B4FB124A116C39
:10444000906C00E00BE0FBF70FFF0546FCF731F93D
:1044500084B22046FDF7B0FB0020154908702248C1
:10446000007801280FD101F0FFF9204908600220EF
:104470000323009008460A2102680420FDF714FA7D
:104480000020194908705AE790000020526F6C6CA8
:104490003A2000004779726F3A0000004469737453
:1044A000616E63653A000000480000203C00002077
:1044B0005C0000204C000020440000204000002050
:1044C0003E000020002C014050000020000400406D
:1044D000540000206666024000C0DA4500C0DAC51C
:1044E00000004842000048C2640000206000002034
:1044F0007047000070B50446002624F001041848F7
:1045000090F8240008B1002070BD1548807A10B9D9
:104510004FF0FF30F8E71248057C807A20401049C0
:1045200008740846007CA04202D04FF0FF3600E03D
:10453000002614B90A48007D18B1012001F04CF999
:1045400002E0002001F048F93CB100F0ABFC20B1E2
:10455000034805744FF0FF30D6E73046D4E700003B
:10456000040000202DE9F04F99B004460D46164690
:104570004FF07E574FF000084FF000094FF0000A4F
:1045800012A813A918AB0EAACDE9001014A916A8F9
:10459000FEF7F8FF18B1012019B0BDE8F08FBDF8A3
:1045A0004C0000F4807000287ED00E98FCF75AF87A
:1045B00083464FF09D41FBF78FFE07460F98FCF7AF
:1045C00051F883464FF09D41FBF786FE80461098D8
:1045D000FCF748F883464FF09D41FBF77DFE81468E
:1045E0001198FCF73FF883464FF09D41FBF774FEAE
:1045F000824639464FF08040FBF73CFE4946059025
:10460000FBF738FE414607904FF04040FBF732FE83
:1046100051460590FBF72EFE06900799FBF7D2FD59
:104620008346FCF75AF8CDE90801FEF7EDFA4FF0A2
:104630006632544BCDE90A01FBF733FFCDE90C019B
:10464000FCF776F8206049464FF08040FBF712FEF9
:1046500049460290FBF70EFE414604904FF0404061
:10466000FBF708FE41460290FBF704FE0390049915
:10467000FBF7FAFD83464FF07E51FBF7A3FD059053
:10468000FCF72BF8CDE9080139464FF08040FBF7E5
:10469000F1FD41460390FBF7EDFD494604904FF0D4
:1046A0008040FBF7E7FD00E068E051460390FBF730
:1046B000E1FD83460499FBF785FD0590FCF70DF8B5
:1046C000CDE90601DDE90823FEF7E6FC4FF066328E
:1046D0002C4BCDE90A01FBF7E4FECDE90C01FCF718
:1046E00027F8286051465046FBF7C4FD4946049020
:1046F0004846FBF7BFFD414603904046FBF7BAFD35
:10470000394601903846FBF7B5FD00900199FBF75B
:1047100059FD02900399FBF7A7FD83460499FBF727
:10472000A3FD0590FBF7D9FFCDE9080151463846B6
:10473000FBF7A0FD494604904046FBF79BFD039024
:104740000499FBF73FFD4FF080410590FBF792FD88
:104750008346FBF7C2FFCDE90601DDE90823FEF73A
:104760009BFC4FF06632074BCDE90A01FBF799FE3F
:10477000CDE90C01FBF7DCFF306001E002200BE724
:10478000002009E766A64C4070B50024FCF7B4FC95
:1047900000F024F9002840D1782000F02FFFC4B2A7
:1047A0000CB1012070BD7820FFF7A4FEC4B20CB19B
:1047B0000220F7E7642000F0D3FEC4B20CB103205E
:1047C000F0E7FEF7D1FEC4B20CB10420EAE71548C9
:1047D000FFF726FD0546FEF7F3FFC4B20CB1052036
:1047E000E0E740F27310FEF767FDC4B20CB106209B
:1047F000D8E76420FEF7ACFFC4B20CB10720D1E7C4
:1048000000F0A4FF04460CB10820CBE7012000F023
:10481000A3FDC4B21CB10920C4E70A20C2E70020EE
:10482000C0E700003000002001461148407A30B156
:10483000012807D0022808D003280CD108E0022064
:1048400008700BE00420087008E00820087005E0FC
:104850001020087002E04FF0FF30704700BF04489E
:10486000C07C18B108784006000E08700020F4E7FC
:104870000400002001461348407A30B1012808D0D6
:1048800002280AD0032810D10BE04FF480400880A2
:104890000EE041F69C7008800AE04FF480500880DA
:1048A00006E04FF40060088002E04FF0FF307047F0
:1048B00000BF0448C07C10B1088840100880002068
:1048C000F5E700000400002001460248007C087063
:1048D000002070470400002001460F48007A30B1E4
:1048E000012807D0022809D003280FD10AE0FA20B6
:1048F00008800EE04FF4FA7008800AE04FF47A70F6
:10490000088006E04FF4FA60088002E0002008808A
:1049100000BF00BF002070470400002001460E4881
:10492000007A30B1012807D0022808D003280CD122
:1049300008E00A4808600BE00948086008E00948F8
:10494000086005E00848086002E04FF0FF3070475B
:1049500000BF0020FBE7000004000020000003432C
:10496000000083423333034233338341014612480C
:10497000C07A082817D2DFE800F01704070A0D10E4
:104980001318BC20088013E06220088010E02A2061
:1049900008800DE0142008800AE00A20088007E063
:1049A0000520088004E000BF00BF0020088000BF91
:1049B00000BF0020704700000400002001460648A8
:1049C00090F8240010B14FF0FF3070470248C089C2
:1049D00008800020F9E70000040000201CB58020BA
:1049E0008DF80000654A1268917C644A526810781C
:1049F0006B460122FCF7A0FD10B14FF0FF301CBD4B
:104A00006420FCF774F800208DF800005B4A1268FF
:104A1000917C5A4A526810786B460122FCF78CFD53
:104A200010B14FF0FF30EAE7544A1268917D534AC3
:104A3000526810786B460622FCF7D8FC10B14FF094
:104A4000FF30DCE79DF80500C007400F9DF803101C
:104A500001F0010140EA41009DF8011001F001015F
:104A600040EA010494B1012C03D101214348C174EF
:104A700031E0022C03D100214048C1742BE02146D3
:104A80003FA0FDF797FD4FF0FF30B8E73B4A1268B3
:104A9000D1783A4A526810786B460122FCF7A6FC9E
:104AA00010B14FF0FF30AAE79DF8000000F00F04AE
:104AB0002CB93D48FDF77EFD4FF0FF309FE7042CF9
:104AC00006D13AA0FDF776FD01212C48C17402E021
:104AD00000212A48C174FF2128488172FF202749FC
:104AE0000872FF2125484172C1724FF6FF71C181E2
:104AF000FF21017481740121017380F822100021CB
:104B000080F82310417501751630016041608160A5
:104B1000163880F8241080F82510C1844FF4FA600C
:104B200000F062FC10B14FF0FF3068E7022000F0A7
:104B30002BFB10B14FF0FF3061E72A2000F0CEFCD4
:104B400010B14FF0FF305AE7322000F009FD10B1EC
:104B50004FF0FF3053E70020FFF7CCFC10B14FF0CF
:104B6000FF304CE7002000F051FB10B14FF0FF3058
:104B700045E7002000F042FD002040E7040000204F
:104B8000556E737570706F7274656420736F6674A0
:104B9000776172652070726F6475637420726576D8
:104BA0002025642E0A000000806C000848616C66B5
:104BB0002073656E736974697669747920706172A7
:104BC0007420666F756E642E0A0000002DE9F043B4
:104BD00085B005460E4690469946294890F825002E
:104BE00020B14FF0FF3005B0BDE8F08316B94FF0AB
:104BF000FF30F8E7002423E0281B102801DD1020F7
:104C000000E0281B87B232193946204600F05EFDCD
:104C100010B14FF0FF30E6E701AA3946204600F018
:104C200001F910B14FF0FF30DDE730193A4601A924
:104C3000FBF7BBFA10B16FF00100D4E7E01984B2C2
:104C4000AC42D9DB4FEA28208DF8000008F0FF00C5
:104C50008DF801000A4A1268917E094A526810785C
:104C60006B460222FCF768FC10B14FF0FF30BAE748
:104C70000121034880F82510A0F826900020B2E713
:104C80000400002038B50446282C02DD4FF0FF3028
:104C900038BDDCB9002000F0EBFB00208DF80000EF
:104CA00007208DF801002E4A1268917C2C4A526828
:104CB00010786B460222FCF73FFC10B14FF0FF303A
:104CC000E6E70021264801750020E1E7012000F019
:104CD000CFFB20208DF80000012C06D100208DF89C
:104CE0000100052000F0FAFB17E0052C06DC01208E
:104CF0008DF80100052000F0F1FB0EE0142C06DC1D
:104D000002208DF801000A2000F0E8FB05E00320F6
:104D10008DF80100142000F0E1FB9DF8010007214F
:104D200001EB8010C0B28DF801000D4A1268917C31
:104D30000B4A526810786B460222FCF7FDFB10B15B
:104D40004FF0FF30A4E7082105488172002101736C
:104D5000012101750020FFF7CDFB002098E700003E
:104D600004000020F8B504460F4616462C4890F87B
:104D7000240010B94FF0FF30F8BD2948807A10B9EF
:104D80004FF0FF30F8E7264A1268917A244A5268B9
:104D900010786B460222FCF729FB10B14FF0FF3070
:104DA000EAE79DF801009DF8001040EA0125A542C0
:104DB00003DA00203070401EDEE719484068408862
:104DC000B5EB600F17DD164A1268517C144A526821
:104DD00010786B460122FCF709FB10B14FF0FF3051
:104DE000CAE79DF8000000F0100020B100F05AF86A
:104DF0006FF00100C0E7E2B2094B1B68D97A084B9B
:104E00005B6818783B46FCF7F1FA10B14FF0FF30C1
:104E1000B2E795FBF4F0401E30700020ACE70000D4
:104E200004000020F8B504460D46164616B94FF0AA
:104E3000FF30F8BD1A48807A10B94FF0FF30F8E71C
:104E400020128DF80000E0B28DF801009DF80100FD
:104E50002844134949684989884202DD4FF0FF30F0
:104E6000E7E70F4A1268117E0D4A526810786B46C8
:104E70000222FCF761FB10B14FF0FF30D9E7EAB234
:104E8000074B1B68597D064B5B6818783346FCF767
:104E9000ADFA10B14FF0FF30CBE70020C9E70000BA
:104EA0000400002008B57048807A10B94FF0FF3038
:104EB00008BD002000906C4A1268D17B6A4A526893
:104EC00010786B460122FCF737FB10B14FF0FF3032
:104ED000EEE7654A12685179634A526810786B466A
:104EE0000122FCF729FB10B14FF0FF30E0E75E4AEA
:104EF000126811795C4A526810786B460122FCF7FF
:104F00001BFB10B14FF0FF30D2E7574890F8240058
:104F1000002853D00C200090534A12681179524A4D
:104F2000526810786B460122FCF706FB10B14FF077
:104F3000FF30BDE73220FBF7DAFDC02000904A4881
:104F4000807A00F0010020B19DF8000040F02000C0
:104F50000090454A12681179434A526810786B46AE
:104F60000122FCF7E9FA10B14FF0FF30A0E73E480C
:104F7000407C10B10220009001E0002000903A4AED
:104F80001268D17B384A526810786B460122FCF7D0
:104F9000D3FA10B14FF0FF308AE700200090324A78
:104FA00012685179304A526810786B460122FCF73A
:104FB000C3FA002855D04FF0FF3079E70420009065
:104FC000294A12681179284A526810786B460122E2
:104FD000FCF7B2FA10B14FF0FF3069E72248807C4D
:104FE00020B92148807A00F0010010B940200090DB
:104FF00001E0602000901C4A126811791A4A526838
:1050000010786B460122FCF797FA10B14FF0FF3091
:105010004EE73220FBF76BFD1348407C10B10120B6
:10502000009001E0002000900F4A1268D17B0E4AE8
:10503000526810786B460122FCF77EFA10B14FF0EF
:10504000FF3035E7084A12685179074A52681078EC
:10505000054B10330122FCF76FFA10B14FF0FF300F
:1050600026E7002024E70000040000202DE9F04F8F
:105070008DB083460F4602200C90424890F82400E1
:1050800020B1002000F068F9012600E0002603A806
:10509000FFF722FC05A8FFF7C7FB01A8FFF766FC96
:1050A00002A8FFF78BFC374890F80AA004A8FFF786
:1050B0000BFC002407E0002239465846FEF7ECFDC1
:1050C00000B902E0641C022CF5DB00BF022C01D108
:1050D000002528E0002407E0012206A909A8FEF720
:1050E000DBFD00B902E0641C022CF5DB00BF022CE2
:1050F00001D1002517E006A93846FDF72FFD00F085
:10510000FF0809A95846FEF7FFFF00F0FF09002538
:10511000B9F1000F01D145F00105B8F1000F01D13F
:1051200045F0020500BFFF2016490872FF2115480F
:105130004172C1724FF6FF71C181FF21817201740A
:1051400001210173BDF80C0000F04EF99DF8140028
:1051500000F01AF8BDF8040000F0C0F9BDF808002E
:1051600000F0FEF9504600F049FA9DF81000FFF7F4
:10517000C1F916B1012000F0EFF828460DB0BDE8E6
:10518000F08F00000400002038B504461E48807AE5
:1051900010B94FF0FF3038BD022C06D0042C07D0D8
:1051A000082C08D0102C0CD108E0002000900BE057
:1051B0000820009008E01020009005E018200090E2
:1051C00002E04FF0FF30E6E700BF0F48407A9DF85D
:1051D0000010B0EBE10F01D10020DCE70A4A1268B1
:1051E000D179094A526810786B460122FCF7A4F97C
:1051F00010B14FF0FF30CEE79DF80000C11002481B
:1052000041720020C7E700000400002038B50446C2
:105210005048807CA04201D1002038BD002C46D0EF
:105220004C4A126811794B4A526810786B46012239
:10523000FCF7DCF810B14FF0FF30EEE79DF800000E
:1052400020F020000090434A12681179414A5268C8
:1052500010786B460122FCF76FF910B14FF0FF3068
:10526000DBE70320FBF743FC02200090394890F86D
:10527000220020B19DF8000040F0800000903548E9
:1052800090F8230020B19DF8000040F0300000901D
:10529000304A1268117D2F4A526810786B460122FD
:1052A000FCF74AF9002851D04FF0FF30B5E7294A02
:1052B00012681179274A526810786B460122FCF770
:1052C00095F810B14FF0FF30A7E72248807A00F040
:1052D000010028B19DF8000040F02000009004E09B
:1052E0009DF8000020F0200000901A4A1268117901
:1052F000184A526810786B460122FCF71DF910B16C
:105300004FF0FF3089E70320FBF7F1FB114890F8DD
:10531000220010B18020009001E0002000900D4894
:1053200090F8230020B19DF8000040F0300000907C
:10533000084A1268117D074A526810786B460122AC
:10534000FCF7FAF810B14FF0FF3066E701488474BB
:10535000002062E70400002038B50446214890F898
:105360002400A04201D1002038BD24B31D4890F88C
:10537000250010B94FF0FF30F6E7002000F02CFABE
:105380000020FFF743FF1749C88C00F0E9F8002020
:1053900000901449496808786B4601222321FCF7E4
:1053A000CBF801210F4880F82410012000F014FAF6
:1053B000FFF778FD13E0002000F00EFA0948007CAA
:1053C00000900849496808786B4601222321FCF7C0
:1053D000B3F80021034880F82410FFF763FD002094
:1053E000C2E700000400002038B504461F48807A58
:1053F00010B94FF0FF3038BDFA2C09D0B4F5FA7F60
:1054000009D0B4F57A7F09D0B4F5FA6F0CD108E071
:10541000002000900BE00820009008E01020009091
:1054200005E01820009002E04FF0FF30E3E700BFF6
:105430000E48007A9DF80010B0EBE10F01D100207A
:10544000D9E70A4A12689179084A526810786B467F
:105450000122FCF771F810B14FF0FF30CBE79DF857
:105460000000C010014908720020C4E704000020B9
:1054700038B50446184890F82300A04201D1002016
:1054800038BD14B13020009001E000200090124897
:10549000807C20B19DF8000040F0020000900E4892
:1054A00090F8220020B19DF8000040F080000090AC
:1054B000094A1268117D084A526810786B46012229
:1054C000FCF73AF810B14FF0FF30D9E7024880F806
:1054D00023400020D4E700000400002038B5044633
:1054E0001E48807A10B94FF0FF3038BDBC2C02DB6B
:1054F0000120009015E0622C02DB0220009010E0F9
:105500002A2C02DB032000900BE0142C02DB042089
:10551000009006E00A2C02DB0520009001E0062046
:1055200000900E48C07A9DF80010884201D10020FA
:10553000DBE70A4A12689178084A526810786B468D
:105540000122FBF7F9FF10B14FF0FF30CDE79DF8D6
:1055500000100248C1720020C7E7000004000020CC
:1055600038B504462448807A10B94FF0FF3038BD72
:10557000214890F8240010B14FF0FF30F7E71E48A3
:10558000007D50B134B1282C04DCE0B2FFF77AFB87
:105590000020ECE70020FFF775FB042C01DA04245F
:1055A00004E0B4F57A7F01DD4FF47A744FF47A7039
:1055B00090FBF4F0401EC0B200900F4A1268517880
:1055C0000D4A526810786B460122FBF7B5FF10B107
:1055D0004FF0FF30CBE79DF80000401C4FF47A718C
:1055E00091FBF0F081B20448C1810146C98948109D
:1055F000FFF774FF0020BAE70400002038B5044626
:1056000004F0700010B10120009005E014B10020FA
:10561000009001E0402000902B4A1268917C2A4AB9
:10562000526810786B460122FBF786FF20B10021FB
:1056300025488172481E38BD9DF8000020F04001C9
:10564000214801730020009004F0400020B99DF82B
:10565000000040F00400009004F0200020B99DF804
:10566000000040F00200009004F0100020B99DF806
:10567000000040F00100009004F0080020B99DF8FF
:10568000000040F0380000900F4A1268D17C0E4AAA
:10569000526810786B460122FBF74EFF20B10021C3
:1056A00009488172481EC6E724B1082C02D00020A8
:1056B000FFF7DEFE04488472002101753220FBF7FB
:1056C00016FA0020B7E7000004000020F8B50446F1
:1056D0000D46164616B94FF0FF30F8BD1A48807ACD
:1056E00010B94FF0FF30F8E720128DF80000E0B25B
:1056F0008DF801009DF80100284413494968498943
:10570000884202DD4FF0FF30E7E70F4A1268117E52
:105710000D4A526810786B460222FBF70DFF10B15C
:105720004FF0FF30D9E7EAB2074B1B68597D064BB3
:105730005B6818783346FBF7FFFE10B14FF0FF307F
:10574000CBE70020C9E700000400002070B588B056
:1057500002A905A8FFF78AFC0446032C3AD101A848
:10576000FFF7DCF8002000900598FAF77BFF06466B
:105770000199FAF77FFD0546FAF782FF0590069832
:10578000FAF770FF06460199FAF774FD0546FAF735
:1057900077FF06900798FAF765FF06460199FAF732
:1057A00069FD0546FAF76CFF07906846FFF762F857
:1057B000BDF80010029848430290BDF8001003980D
:1057C00048430390BDF8001004984843049000201B
:1057D00008B070BD0120FBE738B50446214890F8B9
:1057E0002400C0B114B10220009001E0002000901C
:1057F0001C4A1268D17B1B4A526810786B46012202
:10580000FBF79AFE10B14FF0FF3038BD9DF8001045
:105810001448417423E01348807A10B94FF0FF30E8
:10582000F3E724B10F48407C08B10020EDE714B144
:105830000120009001E0002000900A4A1268D17B0C
:10584000084A526810786B460122FBF775FE10B1CA
:105850004FF0FF30D9E79DF8001002484174002056
:10586000D3E70000040000202DE9F05F4FF00009AD
:105870000024012210212148FBF76EFB0A20FBF7D0
:1058800042F9002210211D48FBF766FB00BF0821EA
:105890001A48FBF714FB0028F9D000214FF0804094
:1058A000FCF76EFD00BF08211448FBF708FB012838
:1058B000F9D04FF08040FCF734FC0546FAF7DBFEE8
:1058C00004460F492046FAF74FFF13D2DFF834A001
:1058D00021465046FAF7CEFC8346FAF7FEFE07460D
:1058E00000224FF08043FAF74EFE0546FAF720FFFC
:1058F000814600BF4846BDE8F09F00000008014017
:105900000000BE43A4705D402DE9F04106460F46FD
:10591000FBF75EF8041E0D4618BF0120284320F057
:105920000040C0F17F6000F1E040C00F0ED0301C9D
:1059300018BF0120384320F00040C0F17F6000F123
:10594000E040C00F04BF0120FCF7D0FE20462946EE
:10595000BDE8F08100000000000000000000000031
:1059600000000000000000F800000000000000330C
:105970003000000000100C06100C060000000000B3
:105980000000000040C07840C0784000043F04049C
:105990003F040400007088FC08300000001820FF5D
:1059A000211E0000F008F000E018000000211C0398
:1059B0001E211E0000F00888700000001E21232414
:1059C0001927211010160E00000000000000000032
:1059D00000000000000000E01804020000000007C2
:1059E0001820400000020418E000000000402018C9
:1059F00007000000404080F0804040000202010F9C
:105A000001020200000000F0000000000101011F7F
:105A100001010100000000000000000080B07000E3
:105A20000000000000000000000000000001010173
:105A30000101010100000000000000000030300002
:105A400000000000000000008060180400601806DC
:105A50000100000000E010080810E000000F102016
:105A600020100F00001010F8000000000020203F60
:105A700020200000007008080888700000302824EA
:105A8000222130000030088888483000001820208B
:105A900020110E000000C02010F8000000070424B0
:105AA000243F240000F808888808080000192120F5
:105AB00020110E0000E0108888180000000F11204F
:105AC00020110E0000380808C83808000000003F08
:105AD000000000000070880808887000001C222167
